:020000040000FA
:0600000006EFC2F0120041
:020006001200E6
:06000800B6EFA4F01200A7
:02000E008D80E3
:020010001200DC
:040012008D901200BB
:02001600FFFFEA
:060018005FEFA4F01200EE
:02001E000F00D1
:1000200072840100DE020000010000007184010002
:10003000DD020000010000006D840100C902000023
:10004000040000006B840100D802000002000000E0
:100050006A840100DC0200000100000067840100E6
:10006000CD0200000300000063840100C50200000F
:100070000400000061840100D602000002000000BC
:100080005D840100C1020000040000005C840100E6
:10009000DB0200000100000052840100A402000005
:1000A0000A00000050840100D40200000200000099
:1000B0004E840100D2020000020000004A840100C8
:1000C000BD0200000400000016000000D002000085
:0400D000020000002A
:0C00D400D9CFE6FFDACFE6FFE1CFD9FF7D
:1000E000E2CFDAFFFD0EDB500201D25D01E149D023
:1000F000FE0ED25D1FE01C0EE66EE66A290EE66E6D
:10010000020EE66ED2511C0DF3CF14F0F4CF15F0B1
:10011000000E14260F0E152214C0E6FF15C0E6FFD0
:1001200022ECBAF0166E060EE15C02E2E16AE552DC
:10013000E16E1650FD0EDBCFD2F2DB50FE0801E17E
:1001400020D01C0EE66EE66AFD0EDB501C0DF3CFD0
:1001500014F0F4CF15F0000E14260F0E152214C063
:10016000E6FF15C0E6FF290EE66E020EE66E22ECF3
:10017000BAF0166E060EE15C02E2E16AE552E16E4B
:100180001650E552E5CFDAFFE7CFD9FF12000201A2
:10019000D251D35D01E15ED0FE0ED35D39E0270E72
:1001A000E66EE66A010EE66E020EE66E020EE66E80
:1001B000D3511C0DF3CFE9FFF4CFEAFF000EE9267F
:1001C0000F0EEA221B0EE926000EEA22EF50E66E21
:1001D000D3511C0DF3CFE9FFF4CFEAFF000EE9265F
:1001E0000F0EEA22EECF14F0EFCF15F0270E145EBB
:1001F000000E155A14C0E6FF15C0E6FFC1EC2FF043
:10020000166E080EE15C02E2E16AE552E16E1650FC
:10021000D2C2D3F2270EE66EE66A44C2E6FF29C2D6
:1002200014F02AC215F0145E000E155A14C0E6FF31
:1002300015C0E6FF010EE66E020EE66E020EE66ED9
:10024000C1EC2FF0166E080EE15C02E2E16AE552A5
:10025000E16E16501200D9CFE6FFDACFE6FFE1CF0C
:10026000D9FFE2CFDAFF0B0EE12402E3E168E652A8
:10027000E16EE40EF36E090EF3CFDBFF140EF36EA6
:100280000A0EF3CFDBFF0201005101110FE1A8ECD0
:100290007EF006C000F207C001F2FF0E0201001757
:1002A000070E0117000E0027040E01233C0EE66E18
:1002B000E66AE66A510EE66E020EE66E70ECBAF081
:1002C000146E050EE15C02E2E16AE552E16E145043
:1002D000010EDB6ADF6ADF50146E156A030E145CD0
:1002E000000E155801E33FD1DFCFE6FFF3DEE55204
:1002F000280E146E840E156E010E166EDFCF17F0E9
:10030000186A196A060E0C6E0D6A0E6A17C007F09D
:1003100018C008F019C009F047ECC0F004C017F08D
:1003200005C018F006C019F014501724F36E1550CC
:100330001820F46E16501920F86EF4CFF7FFF3CFA3
:10034000F6FFF62A000EF722F8220800080EF5CF75
:10035000DBFF280E146E840E156E010E166EDFCFB5
:1003600017F0186A196A060E0C6E0D6A0E6A17C02D
:1003700007F018C008F019C009F047ECC0F004C03D
:1003800017F005C018F006C019F014501724F36ECA
:1003900015501820F46E16501920F86EF4CFF7FFA0
:1003A000F3CFF6FF020EF626000EF722F822090020
:1003B000020EF5CFDBFF0A00030EF5CFDBFF280EA0
:1003C000146E840E156E010E166EDFCF17F0186ACC
:1003D000196A060E0C6E0D6A0E6A17C007F018C077
:1003E00008F019C009F047ECC0F004C017F005C0D0
:1003F00018F006C019F014501724F36E1550182089
:10040000F46E16501920F86EF4CFF7FFF3CFF6FF15
:10041000040EF626000EF722F8220900040EF5CF8E
:10042000DBFF0A00050EF5CFDBFF080EDB5001E015
:1004300099D0090EDBCF08F00A0EDBCF09F0060ECB
:1004400008C0DBFF070E09C0DBFF020EDBCF16F092
:10045000030EDBCF17F0270E1626000E1722010E13
:100460001626000E1722040EDB501624146E050EFD
:10047000DB501720156E010E1426000E1522D950E0
:10048000090FE96E000EDA20EA6E1450EE261550C0
:10049000ED22090EDBCF14F00A0EDBCF15F0166A41
:1004A000176AD880FE0E14541E0E1554000E1654F2
:1004B000000E175401E2EDD7080EDBCF44F2060E12
:1004C000DBCF29F2070EDBCF2AF2270E0201292704
:1004D000000E2A23020EDB5029252B6F030EDB5062
:1004E0002A212C6F010E2B27000E2C23040EDB502B
:1004F0002B252D6F050EDB502C212E6F0D0E3F6F1F
:10050000409745DE280E146E840E156E010E166E91
:10051000DFCF17F0186A196A060E0C6E0D6A0E6AA4
:1005200017C007F018C008F019C009F047ECC0F078
:1005300004C017F005C018F006C019F014501724B5
:10054000F36E15501820F46E16501920F86EF4CF83
:10055000F7FFF3CFF6FF0800F5CF28F285EC22F085
:10056000DF2AB9D6FFD70B0EE15C02E2E16AE55261
:10057000E16EE552E5CFDAFFE7CFD9FF1200D9CF20
:10058000E6FFDACFE6FFE1CFD9FFE2CFDAFFE652AE
:10059000DF6ADF50146E156A030E145C000E1558E6
:1005A00001E3F1D0DFCFE6FF95DDE5520D0E02014C
:1005B0003F5D01E0E6D0EBDDF60EDB500201285D89
:1005C00001E0DFD0180E256F020E266FF90EDB500A
:1005D00010E1F70EDBCF12F2F80EDBCF13F24087FB
:1005E000040E3F6FF70EDBCF42F2F80EDBCF43F283
:1005F000C6D0000E005D040E015906E3880ED880B7
:100600000055130E015503E2006B040E016F00C28A
:1006100012F201C213F2002B000E0123F70EDBCF02
:1006200010F2F80EDBCF11F2F1ECBDF006C037F29C
:1006300007C038F208C039F209C03AF20201408915
:10064000F90EDB50040A50E0070A1DE0020A03E03D
:10065000030A01E094D0FA0EDBCF18F2FB0EDBCFD9
:1006600019F2FC0EDBCF1AF2FD0EDBCF1BF2F90EF6
:10067000DB50020802E0000E01D0010E2495E8B024
:1006800024853F6B7CD0FA0EDBCF18F0FB0EDBCF5E
:1006900019F0FC0EDB501824166EFD0EDB501920ED
:1006A000176EF70EDB501624146EF80EDB50172071
:1006B000156E14501219426F15501319436FFA0E2C
:1006C000DBCF18F2FB0EDBCF19F2FC0EDBCF1AF2F8
:1006D000FD0EDBCF1BF2276B270E026F036B046B43
:1006E000056B020E3F6F4BD0FA0EDBCFE9FFFB0E1E
:1006F000DBCFEAFF020EE926000EEA22EECF18F069
:10070000EFCF19F0FA0EDBCFE9FFFB0EDBCFEAFFEC
:100710001850EE24166E1950EE20176EF70EDB50AF
:100720001624146EF80EDB501720156E1450121993
:10073000426F15501319436F0A0EE66EE66AFA0E01
:10074000DBCFE6FFFB0EDBCFE6FF180EE66E020EF8
:10075000E66E22ECBAF0146E060EE15C02E2E16A8B
:10076000E552E16E14500201050E3F6F010EE66E78
:10077000020EE66E4DEC1AF0E552E55200D0DF5065
:1007800004D0DF2A06D7FE0E00D0E552E552E5CFB1
:10079000DAFFE7CFD9FF1200D9CFE6FFDACFE6FFC5
:1007A000E1CFD9FFE2CFDAFFFD0EDB50146E156A00
:1007B000030E145C000E155802E3010E0DD0FD0E61
:1007C000DBCFE6FF87DCE552020141A903D0419966
:1007D000010E02D0000E00D0E552E5CFDAFFE7CFE0
:1007E000D9FF1200D9CFE6FFDACFE6FFE1CFD9FF7C
:1007F000E2CFDAFFFD0EDB50146E156A030E145CB7
:10080000000E155802E3000E0DD0FD0EDBCFE6FF03
:1008100061DCE552070E02013F5D02E0000E01D0EF
:10082000010E00D0E552E5CFDAFFE7CFD9FF120085
:10083000D9CFE6FFDACFE6FFE1CFD9FFE2CFDAFF8B
:10084000FD0EDB50146E156A030E145C000E155875
:1008500001E365D0FD0EDBCFE6FF3CDCE55233C2A1
:1008600035F234C236F202013F51080A4EE0010A65
:100870004CE0050A4AE0020A45E0050A2DE00D0AAF
:1008800015E0010A13E0070A0EE0020A0CE0010A73
:100890000AE0060A08E0040A01E037D060EC98F0AC
:1008A00085EC22F03CD085EC22F039D0010EE66ECA
:1008B000110EE66E4DEC1AF0E552E55202011451AC
:1008C000151101E106D00E512F1902E10F51301917
:1008D000EDE1080E3F6F23D0010EE66E110EE66EBD
:1008E0004DEC1AF0E552E55202011451151101E1E7
:1008F00006D00E512F1902E10F513019EDE10C0E07
:100900003F6F0DD00D0E3F6F0AD0E66A140EE66EF3
:100910004DEC1AF0E552E55285EC22F000D0E5529C
:10092000E5CFDAFFE7CFD9FF1200D9CFE6FFDACF64
:10093000E6FFE1CFD9FFE2CFDAFFFD0EDB50146E08
:10094000156A030E145C000E155801E30DD0FD0E60
:10095000DBCFE6FF6AEC00F0E55202014097FD0EA6
:10096000DBCFE6FF65DFE552E552E5CFDAFFE7CF03
:10097000D9FF1200D9CFE6FFDACFE6FFE1CFD9FFEA
:10098000E2CFDAFFFD0EDB50146E156A030E145C25
:10099000000E155803E3F36AF46A2AD0FD0EDBCF8C
:1009A000E6FF6AEC00F0E552C7EC00F00A0EE66ED6
:1009B000E66A180EE66E020EE66E450EE66E020E52
:1009C000E66E22ECBAF0146E060EE15C02E2E16A19
:1009D000E552E16E145010C24FF211C250F2450EB2
:1009E000146E020E156E14C0F3FF15C0F4FF00D094
:1009F000E552E5CFDAFFE7CFD9FF1200D9CFE6FF06
:100A0000DACFE6FFE1CFD9FFE2CFDAFFFD0EDB5010
:100A1000146E156A030E145C000E155801E317D00E
:100A2000FD0EDBCFE6FF6AEC00F0E552C7EC00F00C
:100A300002010E512F1902E10F51301908E0010E89
:100A4000E66E100EE66E4DEC1AF0E552E552E552F8
:100A5000E5CFDAFFE7CFD9FF1200D9CFE6FFDACF33
:100A6000E6FFE1CFD9FFE2CFDAFFE652FD0EDB5021
:100A7000146E156A030E145C000E155803E3F36A36
:100A8000F46A40D0FD0EDBCFE6FF6AEC00F0E552E1
:100A90003FC2DFFF070EDF5C06E00B0EDF5C03E00A
:100AA000F36AF46A2FD0020131512F5D325130596F
:100AB0001BE329512B5D166E2C512A55176E160615
:100AC000000E175A31512F5D186E30513255196E84
:100AD0001850165C146E19501758156E14C0F3FF99
:100AE00015C0F4FF0FD00ED02F51315D146E32516E
:100AF0003055156E1406000E155A14C0F3FF15C0BC
:100B0000F4FF00D0E552E552E5CFDAFFE7CFD9FF99
:100B10001200D9CFE6FFDACFE6FFE1CFD9FFE2CF6F
:100B2000DAFFE652E652FD0EDB50146E156A030E34
:100B3000145C000E155802E3000E91D0FD0EDBCFC1
:100B4000E6FF6AEC00F0E552FD0EDBCFE6FF85DF45
:100B5000E552F3CFDEFFF4CFDDFFD9CFE9FFDACFE7
:100B6000EAFFEE50ED1003E1000E79D00ED0D9CFA0
:100B7000E9FFDACFEAFF010EEE1801E1ED5005E1E1
:100B8000FD0EDBCFE6FF3ADFE55202014151010BDA
:100B900019E1DECF14F0DDCF15F029512B5D166E73
:100BA0002C512A55176ED890173216321450165CF5
:100BB0001550175807E3FD0EDBCFE6FF1FDFE552A8
:100BC00002014181010EE66EE66AE66ED950FC0F25
:100BD000E66EFF0EDA20E66E44C2E6FF2FC2E6FFA5
:100BE00030C2E6FFC1EC2FF0146E080EE15C02E2A9
:100BF000E16AE552E16E145002012F2B000E302302
:100C00002B512F5D2C51305904E329C22FF22AC2F7
:100C100030F2D9CFE9FFDACFEAFF010EEE1801E199
:100C2000ED5006E1FD0EDBCFE6FFE8DEE55215D024
:100C300040BB13D0408B20ECBEF006C014F007C0C0
:100C400015F0166A176A060E1426000E15221622D3
:100C5000172214C03BF215C03CF2010E00D0E55241
:100C6000E552E552E5CFDAFFE7CFD9FF1200D9CF41
:100C7000E6FFDACFE6FFE1CFD9FFE2CFDAFF060EDB
:100C8000E12402E3E168E652E16E040EDB6A050E40
:100C9000DB6AFD0EDB50146E156A030E145C000E49
:100CA000155803E3F36AF46A18D1FD0EDBCFE6FFB3
:100CB0006AEC00F0E552FD0EDBCFE6FFCEDEE5523A
:100CC000020EF3CFDBFF030EF4CFDBFFD950020F90
:100CD000E96E000EDA20EA6EEE50ED1008E1FD0E2E
:100CE000DBCFE6FF8BDEE552F36AF46AF6D0020E44
:100CF000DBCFDEFFDBCFDDFFDBCF14F0030EDBCF7E
:100D000015F0F90EDBCF16F0FA0EDBCF17F014500A
:100D1000165C1550175805E2F90EDBCFDEFFDBCF6E
:100D2000DDFF02014151010B1BE1020EDBCF14F08C
:100D3000030EDBCF15F029512B5D166E2C512A5571
:100D4000176ED890173216321450165C155017587B
:100D500007E3FD0EDBCFE6FF51DEE55202014181E4
:100D6000DE502F250001146EDD50020130210001FC
:100D7000156E02012B51145C2C5115584CE32F5168
:100D80002B5D146E2C513055156E040E14C0DBFF14
:100D9000050E15C0DBFF040EDBCFE6FF050EDBCF33
:100DA000E6FF010EE66EFB0EDBCFE6FFFC0EDBCFAF
:100DB000E6FF44C2E6FF2FC2E6FF30C2E6FFC1EC09
:100DC0002FF0146E080EE15C02E2E16AE552E16E7A
:100DD0001450040EDBCF14F0050EDBCF15F0D95004
:100DE000FB0FE96EFF0EDA20EA6E1450EE26155066
:100DF000ED22040EDBCF14F0050EDBCF15F0D9CFBA
:100E0000E9FFDACFEAFF1450EE5E1550ED5A29C221
:100E10002FF22AC230F2DECFE6FFDDCFE6FF010E71
:100E2000E66EFB0EDBCFE6FFFC0EDBCFE6FF44C237
:100E3000E6FF2FC2E6FF30C2E6FFC1EC2FF0146ED2
:100E4000080EE15C02E2E16AE552E16E1450D9CF8E
:100E5000E9FFDACFEAFFEE5002012F27EE503023F0
:100E6000020EDBCF14F0030EDBCF15F0F90EDBCF53
:100E700016F0FA0EDBCF17F01450165C1550175809
:100E800006E3FD0EDBCFE6FFB9DDE55215D040BB32
:100E900013D0408B20ECBEF006C014F007C015F054
:100EA000166A176A060E1426000E1522162217223D
:100EB00014C03BF215C03CF2040EDBCF16F0050E59
:100EC000DBCF17F0DE501624146EDD501720156EA0
:100ED00014C0F3FF15C0F4FF00D0060EE15C02E27F
:100EE000E16AE552E16EE552E5CFDAFFE7CFD9FFDF
:100EF0001200D9CFE6FFDACFE6FFE1CFD9FFE2CF8C
:100F0000DAFF060EE12402E3E168E652E16E040E28
:100F1000DB6A050EDB6AFD0EDB50146E156A030EEC
:100F2000145C000E155803E3F36AF46A1DD1FD0E3C
:100F3000DBCFE6FF6AEC00F0E552FD0EDBCFE6FF0B
:100F40008CDDE552020EF3CFDBFF030EF4CFDBFFA7
:100F5000D950020FE96E000EDA20EA6EEE50ED1065
:100F600008E1FD0EDBCFE6FF49DDE552F36AF46AE6
:100F7000FBD002014151010B1BE1020EDBCF14F04B
:100F8000030EDBCF15F029512B5D166E2C512A551F
:100F9000176ED890173216321450165C1550175829
:100FA00007E3FD0EDBCFE6FF29DDE55202014181BB
:100FB000020EDBCFDEFFDBCFDDFFDBCF14F0030E55
:100FC000DBCF15F0F80EDBCF16F0F90EDBCF17F004
:100FD0001450165C1550175805E2F80EDBCFDEFFF3
:100FE000DBCFDDFFDE502F250001146EDD50020146
:100FF00030210001156E02012B51145C2C51155843
:1010000050E32F512B5D146E2C513055156E040E8C
:1010100014C0DBFF050E15C0DBFF040EDBCFE6FFBF
:10102000050EDBCFE6FFFA0EDBCFE6FFFB0EDBCFD4
:10103000E6FFFC0EDBCFE6FF44C2E6FF2FC2E6FF71
:1010400030C2E6FF74EC30F0146E080EE15C02E290
:10105000E16AE552E16E1450040EDBCF14F0050E88
:10106000DBCF15F0166AD950FA0FE96EFF0EDA20C1
:10107000EA6E1450EE261550EE221650EE22040EA3
:10108000DBCF14F0050EDBCF15F0D9CFE9FFDACFB7
:10109000EAFF1450EE5E1550ED5A29C22FF22AC213
:1010A00030F2DECFE6FFDDCFE6FFFA0EDBCFE6FF64
:1010B000FB0EDBCFE6FFFC0EDBCFE6FF44C2E6FF14
:1010C0002FC2E6FF30C2E6FF74EC30F0146E080E5B
:1010D000E15C02E2E16AE552E16E1450D9CFE9FF2A
:1010E000DACFEAFFEE5002012F27EE503023020E36
:1010F000DBCF14F0030EDBCF15F0F80EDBCF16F0CC
:10110000F90EDBCF17F01450165C1550175806E394
:10111000FD0EDBCFE6FF72DCE55215D040BB13D0ED
:10112000408B20ECBEF006C014F007C015F0166A24
:10113000176A060E1426000E15221622172214C056
:101140003BF215C03CF2040EDBCF16F0050EDBCFF0
:1011500017F0DE501624146EDD501720156E14C0E3
:10116000F3FF15C0F4FF00D0060EE15C02E2E16A75
:10117000E552E16EE552E5CFDAFFE7CFD9FF120085
:10118000D9CFE6FFDACFE6FFE1CFD9FFE2CFDAFF32
:10119000FB0EDBCF16F0FC0EDBCF17F016C0E6FF20
:1011A00017C0E6FFFB0EDBCFE6FFFC0EDBCFE6FF52
:1011B000FAECBAF0E552E552F3CF18F0F4CF19F09B
:1011C00018C0E6FF19C0E6FFFB0EDBCFE6FFFC0E02
:1011D000DBCFE6FFFD0EDBCFE6FF49DD1A6E050E25
:1011E000E15C02E2E16AE552E16E1A50E552E7CFB6
:1011F00017F0E552E7CF16F01650F324146E17508F
:10120000F420156E14C0F3FF15C0F4FF00D0E552B2
:10121000E5CFDAFFE7CFD9FF1200D9CFE6FFDACF6B
:10122000E6FFE1CFD9FFE2CFDAFFFA0EDBCFE6FF30
:10123000FB0EDBCFE6FFFC0EDBCFE6FF08ECBBF0DE
:10124000E552E552E55207C01AF008C01BF01AC07B
:10125000E6FF1BC0E6FFFA0EDBCFE6FFFB0EDBCF9F
:10126000E6FFFC0EDBCFE6FFFD0EDBCFE6FF41DE47
:101270001C6E060EE15C02E2E16AE552E16E1C5072
:10128000F3CF17F0F4CF18F0196AD950FA0FE96EBE
:10129000FF0EDA20EA6EEE501724146EEE5018207E
:1012A000156EEE501920166E14C007F015C008F028
:1012B00016C009F000D0E552E5CFDAFFE7CFD9FF3D
:1012C0001200D9CFE6FFDACFE6FFE1CFD9FFE2CFB8
:1012D000DAFFE652E652E652E652FD0EDB50146E9D
:1012E000156A030E145C000E155803E3F36AF46AE2
:1012F00031D0FD0EDBCFE6FF6AEC00F0E5520201D3
:1013000029512B5D146E2C512A55156E1406000EB2
:10131000155A020E14C0DBFF030E15C0DBFFFD0ED5
:10132000DBCFE6FF2DEC05F0E552F3CFDEFFF4CF87
:10133000DDFF020EDBCF16F0030EDBCF17F0DE5021
:10134000165C146EDD501758156E14C0F3FF15C0EF
:10135000F4FF00D0040EE15C02E2E16AE552E16EC6
:10136000E552E5CFDAFFE7CFD9FF1200D9CFE6FF8C
:10137000DACFE6FFE1CFD9FFE2CFDAFFFD0EDBCF18
:10138000E6FF20D8E552F3CF14F0F4CF15F0145057
:10139000151012E0FD0EDBCFE6FF6AEC00F0E5521F
:1013A00033C235F234C236F2010EE66E100EE66E2E
:1013B0004DEC1AF0E552E552E552E5CFDAFFE7CF02
:1013C000D9FF1200D9CFE6FFDACFE6FFE1CFD9FF90
:1013D000E2CFDAFFFD0EDB50146E156A030E145CCB
:1013E000000E155803E3F36AF46A33D0FD0EDBCF29
:1013F000E6FF6AEC00F0E55202013551335D3651EB
:1014000034590CE33551335D146E34513655156E35
:1014100014C0F3FF15C0F4FF1CD01BD035512D5D57
:10142000166E2E513655176E010E1626000E172217
:101430002B51335D186E34512C55196E16501824EB
:10144000146E17501920156E14C0F3FF15C0F4FF69
:1014500000D0E552E5CFDAFFE7CFD9FF1200D9CFB0
:10146000E6FFDACFE6FFE1CFD9FFE2CFDAFFE652BF
:10147000E652FD0EDBCFE6FFA5DFE552F3CFDEFF40
:10148000F4CFDDFFD9CFE9FFDACFEAFFEE50ED1060
:1014900002E1000E58D0FD0EDBCFE6FF6AEC00F053
:1014A000E552D950FB0FE96EFF0EDA20EA6EEE50DE
:1014B000ED101AE0010EE66EE66A44C2E6FF35C2A0
:1014C000E6FF36C2E6FFE66EFB0EDBCFE6FFFC0E64
:1014D000DBCFE6FFC1EC2FF0146E080EE15C02E2F8
:1014E000E16AE552E16E14500201352B000E3623FD
:1014F00035512D5D36512E5904E22BC235F22CC2E6
:1015000036F2D9CFE9FFDACFEAFF010EEE1801E19A
:10151000ED5002E1418515D040BB13D0408B20EC4B
:10152000BEF006C014F007C015F0166A176A1F0E49
:101530001426000E15221622172214C03BF215C0E5
:101540003CF2010E00D0E552E552E552E5CFDAFF5C
:10155000E7CFD9FF1200D9CFE6FFDACFE6FFE1CF20
:10156000D9FFE2CFDAFFE652E652E652E652020E29
:10157000DB6A030EDB6AFD0EDBCFE6FF23DFE552FD
:10158000F3CFDEFFF4CFDDFFD9CFE9FFDACFEAFFFB
:10159000EE50ED1003E1F36AF46A07D1FD0EDBCFE4
:1015A000E6FF6AEC00F0E552F90EDBCF14F0FA0E1C
:1015B000DBCF15F0DECF16F0DDCF17F01450165C40
:1015C000155017580AE2D9CFE9FFDACFEAFFF90E32
:1015D000EECFDBFFFA0EEDCFDBFFF90EDB500201A1
:1015E00035250001146EFA0EDB5002013621000190
:1015F000156E020114502D5D15502E595BE23551C8
:101600002D5D146E2E513655156E010E1426000EEA
:101610001522020E14C0DBFF030E15C0DBFFD950EC
:10162000FB0FE96EFF0EDA20EA6EEE50ED102EE0B1
:10163000020EDBCFE6FF030EDBCFE6FF44C2E6FF80
:1016400035C2E6FF36C2E6FF010EE66EFB0EDBCFCB
:10165000E6FFFC0EDBCFE6FFC1EC2FF0146E080EA8
:10166000E15C02E2E16AE552E16E1450020EDBCF6A
:1016700014F0030EDBCF15F0D950FB0FE96EFF0E0F
:10168000DA20EA6E1450EE261550ED22020EDBCF62
:1016900014F0030EDBCF15F0D950F90FE96EFF0EF1
:1016A000DA20EA6E1450EE5E1550ED5A2BC235F278
:1016B0002CC236F2D950FB0FE96EFF0EDA20EA6E2B
:1016C000EE50ED101EE0F90EDBCFE6FFFA0EDBCF99
:1016D000E6FF44C2E6FF35C2E6FF36C2E6FF010E72
:1016E000E66EFB0EDBCFE6FFFC0EDBCFE6FFC1ECC8
:1016F0002FF0146E080EE15C02E2E16AE552E16E41
:101700001450F90EDBCF08F0FA0EDBCF09F00850C9
:101710000201352709503623020EDBCF14F0030EE9
:10172000DBCF15F0D950F90FE96EFF0EDA20EA6E23
:101730001450EE261550ED22DECF16F0DDCF17F057
:10174000F90EDB50165C146EFA0EDB501758156E4E
:10175000F90EDBCF18F0FA0EDBCF19F01450185C3D
:101760001550195802E3418515D040BB13D0408B6A
:1017700020ECBEF006C014F007C015F0166A176A18
:101780001F0E1426000E15221622172214C03BF23B
:1017900015C03CF2F90EDBCF14F0FA0EDBCF15F0DA
:1017A00014C0F3FF15C0F4FF00D0040EE15C02E2A8
:1017B000E16AE552E16EE552E5CFDAFFE7CFD9FF06
:1017C0001200D9CFE6FFDACFE6FFE1CFD9FFE2CFB3
:1017D000DAFFE652E652E652E652FD0EDB50146E98
:1017E000156A030E145C000E155803E3F36AF46ADD
:1017F0002DD0FD0EDBCFE6FF6AEC00F0E5520201D2
:101800002B512D5D146E2E512C55156E020E14C0E9
:10181000DBFF030E15C0DBFFFD0EDBCFE6FFD2DDE5
:10182000E552F3CFDEFFF4CFDDFF020EDBCF16F083
:10183000030EDBCF17F0DE50165C146EDD50175828
:10184000156E14C0F3FF15C0F4FF00D0040EE15C68
:1018500002E2E16AE552E16EE552E5CFDAFFE7CF59
:10186000D9FF1200D9CFE6FFDACFE6FFE1CFD9FFEB
:10187000E2CFDAFF060EE12402E3E168E652E16E10
:10188000FD0EDB50146E156A030E145C000E155825
:1018900009E2D950F90FE96EFF0EDA20EA6EEE5038
:1018A000ED1003E1F36AF46A09D1FD0EDBCFE6FF28
:1018B0006AEC00F0E552FD0EDBCFE6FF83DDE5527A
:1018C000020EF3CFDBFF030EF4CFDBFFF90EDBCF0D
:1018D00016F0FA0EDBCF17F0F70EDB501624146E5D
:1018E000F80EDB501720156E020EDBCF18F0030E3A
:1018F000DBCF19F01450185C1550195814E2020E81
:10190000DBCF16F0030EDBCF17F0F70EDB50165CC3
:10191000146EF80EDB501758156EF90E14C0DBFF6D
:10192000FA0E15C0DBFFF70EDB5002013525000172
:10193000146EF80EDB50020136210001156E14C042
:10194000DEFF15C0DDFFDECF14F0DDCF15F00201A4
:1019500014502D5D15502E5912E22B512D5D146E31
:101960002E512C55156E010E1426000E1522D9CFBE
:10197000E9FFDACFEAFF1450EE5E1550ED5ADE5063
:101980002D5D146EDD502E59156E010E1426000EBD
:101990001522040E14C0DBFF050E15C0DBFFF90E87
:1019A000DBCF14F0FA0EDBCF15F0040EDBCF16F010
:1019B000050EDBCF17F01450165C155017581FE3B7
:1019C000F90EDBCFE6FFFA0EDBCFE6FF44C2E6FFFF
:1019D000DECFE6FFDDCFE6FF010EE66EFB0EDBCFCE
:1019E000E6FFFC0EDBCFE6FFC1EC2FF0146E080E15
:1019F000E15C02E2E16AE552E16E145054D0040E5B
:101A0000DBCFE6FF050EDBCFE6FF44C2E6FFDECF0D
:101A1000E6FFDDCFE6FF010EE66EFB0EDBCFE6FF55
:101A2000FC0EDBCFE6FFC1EC2FF0146E080EE15C7C
:101A300002E2E16AE552E16E1450F90EDBCF16F0D6
:101A4000FA0EDBCF17F0040EDB50165C146E050E99
:101A5000DB501758156E14C0E6FF15C0E6FF44C2F0
:101A6000E6FF2BC2E6FF2CC2E6FF010EE66E040E77
:101A7000DBCF1AF0050EDBCF1BF0FB0EDB501A2478
:101A8000186EFC0EDB501B20196E18C0E6FF19C043
:101A9000E6FFC1EC2FF01C6E080EE15C02E2E16A89
:101AA000E552E16E1C50F90EDBCF14F0FA0EDBCFDD
:101AB00015F014C0F3FF15C0F4FF00D0060EE15C72
:101AC00002E2E16AE552E16EE552E5CFDAFFE7CFE7
:101AD000D9FF1200D9CFE6FFDACFE6FFE1CFD9FF79
:101AE000E2CFDAFFE652FB0EDBCFE6FFFC0EDBCFE8
:101AF000E6FF010EE66EE66AD9CFE6FFDACFE6FF33
:101B0000FD0EDBCFE6FFAEDE146E070EE15C02E2F7
:101B1000E16AE552E16E1450DF5000D0E552E55223
:101B2000E5CFDAFFE7CFD9FF1200D9CFE6FFDACF52
:101B3000E6FFE1CFD9FFE2CFDAFF300EE12402E386
:101B4000E168E652E16EFD0EDB50146E156A030E7D
:101B5000145C000E155809E2D950F90FE96EFF0E1A
:101B6000DA20EA6EEE50ED1003E1F36AF46A00D376
:101B7000FD0EDBCFE6FF6AEC00F0E552FD0EDBCF99
:101B8000E6FF20DCE552F3CF16F0F4CF17F0F70EA6
:101B9000DB50165C146EF80EDB501758156E020EF3
:101BA00014C0DBFF030E15C0DBFF020EDBCF14F009
:101BB000030EDBCF15F0F90EDBCF16F0FA0EDBCFFC
:101BC00017F01650145C1750155803E2F368F468C8
:101BD000CFD2D950F50FE96EFF0EDA20EA6EEE5043
:101BE000ED101DE0020EDBCF14F0030EDBCF15F07D
:101BF000F50EDBCF16F0F60EDBCF17F01450165CA7
:101C0000155017580CE2F50EDBCF08F0F60EDBCFBF
:101C100009F0020E08C0DBFF030E09C0DBFFF70E60
:101C2000DB50020135250001146EF80EDB50020175
:101C300036210001156E060E14C0DBFF070E15C01D
:101C4000DBFF060EDBCF14F0070EDBCF15F0020131
:101C500014502D5D15502E5914E22B512D5D146E2C
:101C60002E512C55156E010E1426000E1522D9503A
:101C7000060FE96E000EDA20EA6E1450EE5E155083
:101C8000ED5A060EDBCFDEFFDBCFDDFFDB502D5D37
:101C90000001146E070EDB5002012E590001156E73
:101CA000010E1426000E1522040E14C0DBFF050ED3
:101CB00015C0DBFFF70EDBCF08F0F80EDBCF09F025
:101CC000060E08C0DBFF070E09C0DBFFF90EDBCFF5
:101CD00008F0FA0EDBCF09F0080E08C0DBFF090E92
:101CE00009C0DBFFFB0EDBCF08F0FC0EDBCF09F0F9
:101CF0000A0E08C0DBFF0B0E09C0DBFFFB0EDBCFBB
:101D0000E9FFDB2AFC0EDBCFEAFF01E3DB2A0D0E45
:101D1000EFCFDBFF0F0EDB6AF40EDB5016E0610E37
:101D2000F36E0D0EDBCFF4FFF350F45C0EE30D0EFB
:101D3000DB507A080AE3E00E146E0D0EDBCFE7FFEE
:101D40001450E7260D0EE7CFDBFF200EF36E0E0ECC
:101D5000F3CFDBFFDBCF14F0040EDBCF15F0050E65
:101D6000DBCF16F01450155C000E165806E2040E78
:101D7000DB50E76E0E0EE7CFDBFF0E0EDBCF14F06D
:101D8000020EDBCF15F0030EDBCF16F01450155CFE
:101D9000000E165806E2020EDB50E76E0E0EE7CF7D
:101DA000DBFF0E0EDBCFE6FFE66A44C2E6FFDECFC6
:101DB000E6FFDDCFE6FF010EE66ED950100FE66EAE
:101DC000000EDA20E66EC1EC2FF0146E080EE15C16
:101DD00002E2E16AE552E16E14500E0EDB50DE269F
:101DE000000EDD220E0EDB50146E156AD950040F62
:101DF000E96E000EDA20EA6E1450EE5E1550ED5AD0
:101E0000D950040FE96E000EDA20EA6EEE50ED10A4
:101E100008E12BC2DEFF2CC2DDFF040EDB68050EDD
:101E2000DB68F40EDB5001E1E9D00C0EDB6A0E0E2C
:101E3000DB50F36E0C0EDBCFF4FFF350F45C01E3E8
:101E4000DCD0D950100F156E000EDA20166E0C0E75
:101E5000DB500F011524E96E000E1620EA6EEFCF5D
:101E600014F0610E145C21E3D950100F176E000EB0
:101E7000DA20186E0C0EDB501724E96E000E1820C5
:101E8000EA6EEF507A0811E3E00E166ED950100F8B
:101E9000146E000EDA20156E0C0EDB501424E96E61
:101EA000000E1520EA6E1650EF26D950100F146E52
:101EB000000EDA20156E0C0EDB501424E96E000EB5
:101EC0001520EA6EEF50F36E0D0EDB50F35C53E11C
:101ED000F90EDB06DBCF14F0FA0E01E2DB06DBCFF6
:101EE00015F0145015101FE1060EDBCF18F0070E89
:101EF000DBCF19F0080EDB50185C166E090EDB50B4
:101F00001958176E0C0EDB5000011624146E000ECB
:101F10001720156E010E1426000E152214C0F3FFB3
:101F200015C0F4FF25D1FB0EDBCFE9FFDB2AFC0E49
:101F3000DBCFEAFF01E3DB2A0D0EEFCFDBFF010E63
:101F4000F36E0F0EF3CFDBFF610EF36E0D0EDBCFE2
:101F5000F4FFF350F45C0EE30D0EDB507A080AE355
:101F6000E00E146E0D0EDBCFE7FF1450E7260D0ECA
:101F7000E7CFDBFF3FD0080EDBCF08F0090EDBCF49
:101F800009F0F90E08C0DBFFFA0E09C0DBFF0F0EE7
:101F9000DB5030E00A0EDBCF08F00B0EDBCF09F090
:101FA000FB0E08C0DBFFFC0E09C0DBFFFB0EDBCF26
:101FB000E9FFDB2AFC0EDBCFEAFF01E3DB2A0D0E93
:101FC000EFCFDBFF610EF36E0D0EDBCFF4FFF350AE
:101FD000F45C0EE30D0EDB507A080AE3E00E146E9B
:101FE0000D0EDBCFE7FF1450E7260D0EE7CFDBFF2A
:101FF0000F0EDB6A0C0EDB2A1AD789D00C0EDB6AB7
:102000000E0EDB50F36E0C0EDBCFF4FFF350F45CDE
:1020100001E37DD0D950100F146E000EDA20156E3A
:102020000C0EDB500F011424E96E000E1520EA6E31
:10203000EF50F36E0D0EDB50F35C3DE1F90EDB0665
:10204000DBCF14F0FA0E01E2DB06DBCF15F0145003
:1020500015101FE1060EDBCF18F0070EDBCF19F0CD
:10206000080EDB50185C166E090EDB501958176EFF
:102070000C0EDB5000011624146E000E1720156E96
:10208000010E1426000E152214C0F3FF15C0F4FF34
:102090006FD0FB0EDBCFE9FFDB2AFC0EDBCFEAFFC4
:1020A00001E3DB2A0D0EEFCFDBFF010EF36E0F0E07
:1020B000F3CFDBFF29D0080EDBCF08F0090EDBCF12
:1020C00009F0F90E08C0DBFFFA0E09C0DBFF0F0EA6
:1020D000DB501AE00A0EDBCF08F00B0EDBCF09F065
:1020E000FB0E08C0DBFFFC0E09C0DBFFFB0EDBCFE5
:1020F000E9FFDB2AFC0EDBCFEAFF01E3DB2A0D0E52
:10210000EFCFDBFF0F0EDB6A0C0EDB2A79D70E0E4A
:10211000DB50146E156AD950020FE96E000EDA20FA
:10212000EA6E1450EE5E1550ED5A020EDBCF14F03D
:10213000030EDBCF15F0F90EDBCF16F0FA0EDBCF76
:1021400017F01650145C1750155803E2F368F46842
:102150000FD00E0EDB50146E156AD950060FE96EC3
:10216000000EDA20EA6E1450EE261550ED22EDD561
:10217000300EE15C02E2E16AE552E16EE552E5CF44
:10218000DAFFE7CFD9FF1200D9CFE6FFDACFE6FFBB
:10219000E1CFD9FFE2CFDAFF310EE12402E3E168BB
:1021A000E652E16EFD0EDB50146E156A030E145CF0
:1021B000000E155809E2D950F80FE96EFF0EDA202B
:1021C000EA6EEE50ED1003E1F36AF46A32D3FD0ECD
:1021D000DBCFE6FF6AEC00F0E552FD0EDBCFE6FF59
:1021E000E2EC09F0E552F3CF16F0F4CF17F0F60E5B
:1021F000DB50165C146EF70EDB501758156E020E8E
:1022000014C0DBFF030E15C0DBFF020EDBCF14F0A2
:10221000030EDBCF15F0F80EDBCF16F0F90EDBCF97
:1022200017F01650145C1750155803E2F368F46861
:1022300000D3D950F40FE96EFF0EDA20EA6EEE50AB
:10224000ED101DE0020EDBCF14F0030EDBCF15F016
:10225000F40EDBCF16F0F50EDBCF17F01450165C42
:10226000155017580CE2F40EDBCF08F0F50EDBCF5B
:1022700009F0020E08C0DBFF030E09C0DBFFF60EFB
:10228000DB50020135250001146EF70EDB50020110
:1022900036210001156E060E14C0DBFF070E15C0B7
:1022A000DBFF060EDBCF14F0070EDBCF15F00201CB
:1022B00014502D5D15502E5914E22B512D5D146EC6
:1022C0002E512C55156E010E1426000E1522D950D4
:1022D000060FE96E000EDA20EA6E1450EE5E15501D
:1022E000ED5A060EDBCFDEFFDBCFDDFFDB502D5DD1
:1022F0000001146E070EDB5002012E590001156E0D
:10230000010E1426000E1522040E14C0DBFF050E6C
:1023100015C0DBFFF60EDBCF08F0F70EDBCF09F0C0
:10232000060E08C0DBFF070E09C0DBFFF80EDBCF8F
:1023300008F0F90EDBCF09F0080E08C0DBFF090E2C
:1023400009C0DBFFD950FA0FE96EFF0EDA20EA6E02
:102350000A0EEECFDBFF0B0EEECFDBFF0C0EEECF47
:10236000DBFFD950FA0FE96EFF0EDA20EA6EEFCFED
:10237000F6FFEE2AEFCFF7FF000EEE22EFCFF8FFC9
:10238000EE2208000E0EF5CFDBFF100EDB6AF30E17
:10239000DB5016E0610EF36E0E0EDBCFF4FFF35050
:1023A000F45C0EE30E0EDB507A080AE3E00E146EC6
:1023B0000E0EDBCFE7FF1450E7260E0EE7CFDBFF54
:1023C000200EF36E0F0EF3CFDBFFDBCF14F0040E05
:1023D000DBCF15F0050EDBCF16F01450155C000EA8
:1023E000165806E2040EDB50E76E0F0EE7CFDBFF58
:1023F0000F0EDBCF14F0020EDBCF15F0030EDBCF98
:1024000016F01450155C000E165806E2020EDB5052
:10241000E76E0F0EE7CFDBFF0F0EDBCFE6FFE66ABE
:1024200044C2E6FFDECFE6FFDDCFE6FF010EE66E3B
:10243000D950110FE66E000EDA20E66EC1EC2FF0D7
:10244000146E080EE15C02E2E16AE552E16E14509E
:102450000F0EDB50DE26000EDD220F0EDB50146E59
:10246000156AD950040FE96E000EDA20EA6E145096
:10247000EE5E1550ED5AD950040FE96E000EDA20C9
:10248000EA6EEE50ED1008E12BC2DEFF2CC2DDFF3C
:10249000040EDB68050EDB68F30EDB5001E1FCD0B7
:1024A0000D0EDB6A0F0EDB50F36E0D0EDBCFF4FF6B
:1024B000F350F45C01E3EFD0D950110F156E000E0C
:1024C000DA20166E0D0EDB500F011524E96E000E9A
:1024D0001620EA6EEFCF14F0610E145C21E3D950A0
:1024E000110F176E000EDA20186E0D0EDB50172438
:1024F000E96E000E1820EA6EEF507A0811E3E00E44
:10250000166ED950110F146E000EDA20156E0D0ED6
:10251000DB501424E96E000E1520EA6E1650EF26EB
:10252000D950110F146E000EDA20156E0D0EDB500F
:102530001424E96E000E1520EA6EEF50F36E0E0EB5
:10254000DB50F35C5BE1F80EDB06DBCF14F0F90E39
:1025500001E2DB06DBCF15F0145015101FE1060E6B
:10256000DBCF18F0070EDBCF19F0080EDB50185C3C
:10257000166E090EDB501958176E0D0EDB50000158
:102580001624146E000E1720156E010E1426000E70
:10259000152214C0F3FF15C0F4FF4BD1D950FA0F28
:1025A000E96EFF0EDA20EA6EEFCFF6FFEE2AEFCFEC
:1025B000F7FF000EEE22EFCFF8FFEE2208000E0E1E
:1025C000F5CFDBFF010EF36E100EF3CFDBFF610ED4
:1025D000F36E0E0EDBCFF4FFF350F45C0EE30E0E41
:1025E000DB507A080AE3E00E146E0E0EDBCFE7FF35
:1025F0001450E7260E0EE7CFDBFF4AD0080EDBCFE4
:1026000008F0090EDBCF09F0F80E08C0DBFFF90E69
:1026100009C0DBFF100EDB503BE0D9500A0FE96E1A
:10262000000EDA20EA6EFA0EEECFDBFFFB0EEECFE5
:10263000DBFFFC0EEECFDBFFD950FA0FE96EFF0E89
:10264000DA20EA6EEFCFF6FFEE2AEFCFF7FF000EAB
:10265000EE22EFCFF8FFEE2208000E0EF5CFDBFFE3
:10266000610EF36E0E0EDBCFF4FFF350F45C0EE35D
:102670000E0EDB507A080AE3E00E146E0E0EDBCF6E
:10268000E7FF1450E7260E0EE7CFDBFF100EDB6AE4
:102690000D0EDB2A07D79CD00D0EDB6A0F0EDB5028
:1026A000F36E0D0EDBCFF4FFF350F45C01E390D03A
:1026B000D950110F146E000EDA20156E0D0EDB507E
:1026C0000F011424E96E000E1520EA6EEF50F36E30
:1026D0000E0EDB50F35C45E1F80EDB06DBCF14F0A9
:1026E000F90E01E2DB06DBCF15F0145015101FE1E7
:1026F000060EDBCF18F0070EDBCF19F0080EDB500B
:10270000185C166E090EDB501958176E0D0EDB5053
:1027100000011624146E000E1720156E010E1426EB
:10272000000E152214C0F3FF15C0F4FF82D0D9505B
:10273000FA0FE96EFF0EDA20EA6EEFCFF6FFEE2A0F
:10274000EFCFF7FF000EEE22EFCFF8FFEE220800EA
:102750000E0EF5CFDBFF010EF36E100EF3CFDBFF95
:1027600034D0080EDBCF08F0090EDBCF09F0F80EED
:1027700008C0DBFFF90E09C0DBFF100EDB5025E0BF
:10278000D9500A0FE96E000EDA20EA6EFA0EEECF8B
:10279000DBFFFB0EEECFDBFFFC0EEECFDBFFD950F5
:1027A000FA0FE96EFF0EDA20EA6EEFCFF6FFEE2A9F
:1027B000EFCFF7FF000EEE22EFCFF8FFEE2208007A
:1027C0000E0EF5CFDBFF100EDB6A0D0EDB2A66D78F
:1027D0000F0EDB50146E156AD950020FE96E000E11
:1027E000DA20EA6E1450EE5E1550ED5A020EDBCF81
:1027F00014F0030EDBCF15F0F80EDBCF16F0F90E58
:10280000DBCF17F01650145C1750155803E2F3682D
:10281000F4680FD00F0EDB50146E156AD950060FF6
:10282000E96E000EDA20EA6E1450EE261550ED2205
:10283000C7D5310EE15C02E2E16AE552E16EE55294
:10284000E5CFDAFFE7CFD9FF1200D9CFE6FFDACF25
:10285000E6FFE1CFD9FFE2CFDAFFF70EDBCFE6FFED
:10286000F80EDBCFE6FFF90EDBCFE6FFFA0EDBCF8B
:10287000E6FFFB0EDBCFE6FF010EE66EE66AD950FF
:10288000FC0FE66EFF0EDA20E66EFD0EDBCFE6FFF4
:1028900095EC0DF0146E0A0EE15C02E2E16AE5527D
:1028A000E16E145000D0E552E5CFDAFFE7CFD9FF53
:1028B0001200D9CFE6FFDACFE6FFE1CFD9FFE2CFB2
:1028C000DAFF0A0EE12402E3E168E652E16EDF6A14
:1028D000DF50146E156A030E145C000E155801E3E8
:1028E000F9D3DFCFE6FF6AEC00F0E552030EDB6AB6
:1028F000010EDB6A020EDB6A02014151020B03E1A9
:102900004151040B12E0ADEC91F000090EE0100E05
:10291000F36E030EF3CFDBFF02014151040B01E024
:10292000010EE76E010EE7CFDBFF020140AB15D0D1
:1029300020ECBEF0020106503B5D146E07503C597E
:10294000156E153404E214500008000E155405E30A
:10295000100EF36E030EF3CFDBFF40AD15D020EC6D
:10296000BEF0020106503D5D146E07503E59156ED3
:10297000153404E214500008000E155405E3100E3F
:10298000F36E030EF3CFDBFF0B0E3F5D17E120EC80
:10299000BEF0020106503D5D146E07503E59156EA3
:1029A000153404E214500008000E155407E3110E0C
:1029B000F36E030EF3CFDBFF0C0E3F6F040E3F5D93
:1029C00001E036D1040EDB6A050EDB6A040EDBCFB4
:1029D00014F0050EDBCF15F0030E145C000E155835
:1029E00001E326D1040EDBCFE9FF050EDBCFEAFFC2
:1029F000140EEA02F3CFEAFFE902F3CFE9FFF45045
:102A0000EA26510EE926020EEA22100EE926000EF1
:102A1000EA22EE50ED1001E10BD1040EDBCFE9FF0D
:102A2000050EDBCFEAFF140EEA02F3CFEAFFE9025C
:102A3000F3CFE9FFF450EA26510EE926020EEA220E
:102A4000100EE926000EEA22EECF14F0EFCF15F0BB
:102A50004251141802E14351151801E0E3D0C7ECCC
:102A600000F00A0EE66EE66A040EDBCFE9FF050E03
:102A7000DBCFEAFF140EEA02F3CFEAFFE902F3CF5D
:102A8000E9FFF450EA26510EE926020EEA22E9CFC8
:102A900014F0EACF15F014C0E6FF15C0E6FF180EDB
:102AA000E66E020EE66E22ECBAF0166E060EE15CE1
:102AB00002E2E16AE552E16E1650040EDBCFE9FF57
:102AC000050EDBCFEAFF140EEA02F3CFEAFFE902BC
:102AD000F3CFE9FFF450EA26510EE926020EEA226E
:102AE0000A0EE926000EEA22EECF10F2EDCF11F227
:102AF000040EDBCFE9FF050EDBCFEAFF140EEA027E
:102B0000F3CFEAFFE902F3CFE9FFF450EA26510ED2
:102B1000E926020EEA220C0EE926000EEA22EECF8A
:102B20000AF2EECF0BF2EECF0CF2EFCF0DF2020174
:102B30000A2B0B230C230D231A511825166E1B513B
:102B40001921176E16501025146E17501121156E8D
:102B500014501219426F15501319436F120EF36E71
:102B6000030EF3CFDBFF060E3F6F040EDBCF14F036
:102B7000050EDBCF15F0020ED8801456000E155648
:102B8000140E1502F3CF15F01402F3CF14F0F45025
:102B9000152614C0E6FF15C0E6FF010EE66EE76ECF
:102BA000040EDBCF16F0050EDBCF17F0E75016262C
:102BB000000E1722140E1702F3CF17F01602F3CFF0
:102BC00016F0F4501726510E1626020E172216C0C4
:102BD000E6FF17C0E6FF010EE66E040EDBCF18F02D
:102BE000050EDBCF19F0140E1902F3CF19F01802FD
:102BF000F3CF18F0F4501926510E1826020E1922A0
:102C000018C0E6FF19C0E6FFC1EC2FF01A6E080EDF
:102C1000E15C02E2E16AE552E16E1A500201896B61
:102C20008A6B06D0040EDB2A050E01E3DB2ACED622
:102C3000030EDB500EE0010EDB5002E0000E01D06F
:102C4000010EE66E030EDBCFE6FF4DEC1AF0E55207
:102C5000E552020140B952D0070E3F5D4EE1F1EC62
:102C6000BDF002013751065C146E38510758156EDD
:102C700039510858166E3A510958176E0001800EE6
:102C8000171401E024D202014051070B060819E194
:102C90004051080B01E0010EE76E030EE7CFDBFFAA
:102CA000DFCFE6FF18EC04F0E552DFCFE6FF18ECCB
:102CB00004F0E552030EDB5003E102010E0E3F6FFC
:102CC00006D2C7EC00F0020EE66E100EE66EE5DBF3
:102CD000E552E552F1ECBDF006C037F207C038F21C
:102CE00008C039F209C03AF2740E02013727350ED6
:102CF0003823060E3923000E3A23E9D1F1ECBDF05A
:102D000002013751065C146E38510758156E39515F
:102D10000858166E3A510958176E0001800E1714A4
:102D200001E0D5D1C7EC00F002013F510C0A01E1EE
:102D300056D1060A01E13CD1030A01E12ED1010A74
:102D400001E114D10F0A01E1FDD00C0A01E1FAD032
:102D50000D0A01E1D8D0030A01E1C0D0060A01E161
:102D600088D0010A74E0030A25E0010A01E04ED18F
:102D700057EC98F000091DE00201010E3F6F24A5F9
:102D80000ED0E66E18C2E6FF19C2E6FF1AC2E6FFD1
:102D9000A9EC98F0E552E552E552E5520AD0E66E0C
:102DA00018C2E6FF19C2E6FF74EC98F0E552E5524E
:102DB000E5522CD1D950060FE66E000EDA20E66EF1
:102DC000E7EC98F0E552E552000940E060EC98F03D
:102DD000000928E0060EDBCF18F2070EDBCF19F250
:102DE000080EDBCF1AF2090EDBCF1BF20201020E36
:102DF0003F6F1A511825166E1B511921176E165068
:102E00001025146E17501121156E14501219426FAF
:102E100015501319436F276B270E026F036B046B5A
:102E2000056B14D0F1ECBDF006C037F207C038F2E4
:102E300008C039F209C03AF2740E02013727350E84
:102E40003823060E3923000E3A233F6BDFD020ECE7
:102E5000BEF006C03BF207C03CF2180EE66E020E52
:102E6000E66EBFECAAF0E552E5520201030E3F6F99
:102E7000CDD01C0EE66E020EE66E180EE66E020E49
:102E8000E66E36ECABF0E552E552E552E55200094C
:102E90001AE120ECBEF002013B51065C146E3C517D
:102EA0000758156E1450025D155003590BE2060EBB
:102EB000275D06E2272BD890023703370437053702
:102EC000020E3F6FA3D0020EF36E030EF3CFDBFFB3
:102ED000010EDB6A0201050E3F6F98D0020EF36E01
:102EE000030EF3CFDBFFDE52010EDD6E040E275D15
:102EF00009E3040E276F200E026FEF0E036F090E19
:102F0000046F056B83D0020E275D09E2120EF36E8B
:102F1000030EF3CFDBFFDE52010EDD6E12D040A7B1
:102F20000BD0140EF36E030EF3CFDBFF010EF36E26
:102F3000020EF3CFDBFF05D0020EF36E030EF3CFCC
:102F4000DBFF64D0050E275D09E2100EF36E030E61
:102F5000F3CFDBFFDE52010EDD6E07D0080E3F6FB0
:102F6000110EF36E030EF3CFDBFF50D0050E275D7D
:102F700009E2110EF36E030EF3CFDBFFDE52010EFA
:102F8000DD6E0AD0140EF36E030EF3CFDBFF010EDD
:102F9000F36E020EF3CFDBFF39D0140EF36E030E87
:102FA000F3CFDBFF010EF36E020EF3CFDBFF2ED06B
:102FB000050E275D09E2100EF36E030EF3CFDBFF63
:102FC000DE52010EDD6E0AD0140EF36E030EF3CF47
:102FD000DBFF010EF36E020EF3CFDBFF17D0050E01
:102FE000275D09E2110EF36E030EF3CFDBFFDE5215
:102FF000010EDD6E0AD0140EF36E030EF3CFDBFF6D
:10300000010EF36E020EF3CFDBFF00D0030EDB5098
:1030100059E0010EDB504EE00201272BD890023719
:1030200003370437053731510E5D146E0F51325599
:10303000156E040E14C0DBFF050E15C0DBFF315109
:103040000E5D32510F5910E229512B5D146E2C5137
:103050002A55156ED950040FE96E000EDA20EA6E7B
:103060001450EE261550ED22040EDBCF14F0050EA1
:10307000DBCF15F0166A176A1450065F1550075B10
:103080001650085B1750095B040EDBCF08F0050EE5
:10309000DBCF09F0085014270950152331C20EF276
:1030A00032C20FF2E66A030EDBCFE6FFF6D9E55235
:1030B000E55208D0010EE66E030EDBCFE6FFEDD938
:1030C000E552E552020EDB5002E085EC22F0DF2AE9
:1030D00068EF14F0040EDB6A050EDB6A040EDBCF2A
:1030E00014F0050EDBCF15F0030E145C000E15581E
:1030F00001E3B5D0040EDBCFE9FF050EDBCFEAFF1D
:10310000140EEA02F3CFEAFFE902F3CFE9FFF4502D
:10311000EA26510EE926020EEA22100EE926000EDA
:10312000EA22EE50ED1001E19AD0040EDBCFE9FF68
:10313000050EDBCFEAFF140EEA02F3CFEAFFE90245
:10314000F3CFE9FFF450EA26510EE926020EEA22F7
:10315000120EE926000EEA22EECF16F0EFCF17F09E
:1031600016C0E6FF17C0E6FF20ECBEF0E552E7CF41
:1031700017F0E552E7CF16F01650065C146E1750A4
:103180000758156EDC0ED8801454010E155461E2F8
:10319000040EDBCF14F0050EDBCF15F0020ED88045
:1031A0001456000E1556140E1502F3CF15F0140226
:1031B000F3CF14F0F450152614C0E6FF15C0E6FF57
:1031C000010EE66EE76E040EDBCF16F0050EDBCFC8
:1031D00017F0E7501626000E1722140E1702F3CF31
:1031E00017F01602F3CF16F0F4501726510E1626DC
:1031F000020E172216C0E6FF17C0E6FF010EE66EAC
:10320000040EDBCF18F0050EDBCF19F0140E1902F7
:10321000F3CF19F01802F3CF18F0F4501926510E1D
:103220001826020E192218C0E6FF19C0E6FFC1ECED
:103230002FF01A6E080EE15C02E2E16AE552E16EDF
:103240001A500201896B8A6B040EDB06050E01E23F
:10325000DB06040EDB2A050E01E3DB2A3FD70A0E4C
:10326000E15C02E2E16AE552E16EE552E5CFDAFFA8
:10327000E7CFD9FF1200D9CFE6FFDACFE6FFE1CFE3
:10328000D9FFE2CFDAFF250EE12402E3E168E6523E
:10329000E16EFC0EDBCFE9FFFD0EDBCFEAFF140E83
:1032A000EECFDBFF150EEECFDBFF160EEECFDBFF12
:1032B000170EEECFDBFFFA0EDBCFE9FFFB0EDBCF05
:1032C000EAFF180EEECFDBFF190EEECFDBFF1A0E72
:1032D000EECFDBFF1B0EEECFDBFF1C0EDB6A060E14
:1032E000F36E1D0EF3CFDBFFF80EDBCF08F0F90E07
:1032F000DBCF09F01E0E08C0DBFF1F0E09C0DBFF8D
:103300001E0EDBCFE6FF1F0EDBCFE6FF3BEC85F0AA
:10331000E552E5521E0EF3CFDBFF1F0EF4CFDBFFAD
:103320000C0EE66EE66AD950140FE66E000EDA2037
:10333000E66EC2EC85F0E552E552E552E552F3CF78
:1033400014F0F4CF15F0141E151E200E14C0DBFF70
:10335000210E15C0DBFFF80EDBCFE6FFF90EDBCF49
:10336000E6FFD0EC94F0E552E552220EF3CFDBFFFE
:10337000230EF4CFDBFF200EDBCF14F0210EDBCFCA
:1033800015F0220EDB50141803E1230EDB50151844
:1033900004E0CAEC91F0010E72D0000EE66EE66A0F
:1033A00056ECB2F0E552E552140EE66EE66AD9CF5D
:1033B000E6FFDACFE6FF30EC97F0E552E552E55252
:1033C000E552D9CFE6FFDACFE6FF67EC21F0E55210
:1033D000E552D9500C0FE96E000EDA20EA6EEF507C
:1033E000F00BE842E842E842E842040DF350146E64
:1033F000156A140E145E000E155A240E14C0DBFF5D
:10340000DB50166E176AF80EDBCF08F0F90EDBCF33
:1034100009F01650085C146E17500958156E140EFA
:10342000145E000E155AF80E14C0DBFFF90E15C01D
:10343000DBFFFC0EDBCFE6FFFD0EDBCFE6FFD9CFD7
:10344000E6FFDACFE6FF46EC1EF0E552E552E55224
:10345000E552000910E0F80EDBCFE6FFF90EDBCFF6
:10346000E6FFD9CFE6FFDACFE6FF8BEC23F0E5529B
:10347000E552E552E552CAEC91F0010E00D0146E0F
:10348000250EE15C02E2E16AE552E16E1450E5527C
:10349000E5CFDAFFE7CFD9FF1200D9CFE6FFDACFC9
:1034A000E6FFE1CFD9FFE2CFDAFF280EE12402E305
:1034B000E168E652E16EC7EC00F0FD0EDBA004D03F
:1034C00002014187FD0EDB900201409B409D409F21
:1034D000419341954191ADEC91F0000901E1FBD799
:1034E000FD0EDB50060B05E0260EDB6A270EDB6ABD
:1034F00064D102010E512F1902E10F51301905E17B
:10350000260EDB6A270EDB6A3CD12F510E5D30514F
:103510000F5956E20E512F5D146E30510F55156E36
:10352000260E14C0DBFF270E15C0DBFF260EDBCFF7
:1035300014F0270EDBCF15F01450145D15501559FB
:1035400006E2260E14C2DBFF270E15C2DBFF260E95
:10355000DBCF14F0270EDBCF15F01450255D15508E
:10356000265907E2260E25C2DBFF270E26C2DBFF07
:103570004185260EDBCFE6FF270EDBCFE6FF44C2F8
:10358000E6FF0EC2E6FF0FC2E6FFE66A290EE66E10
:103590000F0EE66EC1EC2FF0146E080EE15C02E235
:1035A000E16AE552E16E1450260EDBCF08F0270EDB
:1035B000DBCF09F0085002010E2709500F23E1D09C
:1035C0000E512B5D146E2C510F55156E240E14C028
:1035D000DBFF250E15C0DBFF240EDB502F2500017D
:1035E000166E250EDB50020130210001176E02011C
:1035F0002951165C146E2A511758156E260E14C0E8
:10360000DBFF270E15C0DBFF260EDBCF14F0270EE5
:10361000DBCF15F01450145D1550155906E2260E37
:1036200014C2DBFF270E15C2DBFF260EDBCF14F022
:10363000270EDBCF15F01450255D1550265907E2F3
:10364000260E25C2DBFF270E26C2DBFF4185240E96
:10365000DBCF14F0250EDBCF15F0260EDBCF16F0F6
:10366000270EDBCF17F01450165C155017580CE2DC
:10367000260EDBCF08F0270EDBCF09F0240E08C0A2
:10368000DBFF250E09C0DBFF240EDBCFE6FF250E96
:10369000DBCFE6FF44C2E6FF0EC2E6FF0FC2E6FF45
:1036A000E66A290EE66E0F0EE66EC1EC2FF0146E80
:1036B000080EE15C02E2E16AE552E16E1450260E6A
:1036C000DBCF16F0270EDBCF17F0240EDB50165C95
:1036D000146E250EDB501758156E240E14C0DBFF38
:1036E000250E15C0DBFFD950240FE96E000EDA203D
:1036F000EA6EEE50ED102BE0240EDBCFE6FF250E38
:10370000DBCFE6FF44C2E6FF29C2E6FF2AC2E6FF9E
:10371000E66A02010E512B5D146E2C510F55156E89
:10372000166A176A290E14260F0E1522000E16228D
:10373000172214C0E6FF15C0E6FFC1EC2FF0186E8B
:10374000080EE15C02E2E16AE552E16E1850260ED5
:10375000DBCF08F0270EDBCF09F0085002010E275F
:1037600009500F232B510E5D2C510F590AE329519B
:103770002B5D146E2C512A55156E14500E5F15508A
:103780000F5B41A71AD0260EDBCF14F0270EDBCF3C
:1037900015F01451141802E1155115180EE0260EFB
:1037A000DBCF16F0270EDBCF17F02551161802E1FC
:1037B0002651171802E0FD0EDB80D950260FE96E66
:1037C000000EDA20EA6EEE50ED1004E1FD0EDB5043
:1037D000030B31E0260EDBCF08F0270EDBCF09F01C
:1037E00008500201145F0950155BD950260FE96E8D
:1037F000000EDA20EA6EEE50ED1002E0FD0EDB86E0
:10380000FC0EDBA007D0276BF20E026F9E0E036F3B
:10381000046B056BF1ECBDF0065002010225376F19
:1038200007500321386F08500421396F09500521D2
:103830003A6F40893ED0FC0EDBA21FD0400EE96EED
:10384000020EEA6EEF50070BE82AF36EF350070BF7
:10385000F36EF46EF80EEF14F310EF6EF4500201F5
:103860000607000E075B085B095B010EF36E260E70
:10387000F3CFDBFF270EDB6A1CD0020140A919D071
:10388000DBB008D0275106E02707D8900533043372
:1038900003330233F1ECBDF0065002010225376F0D
:1038A00007500321386F08500421396F0950052152
:1038B0003A6F020E12C2DBFF030E13C2DBFF040ECF
:1038C00010C2DBFF050E11C2DBFF060E06C2DBFFD6
:1038D000070E07C2DBFF080E08C2DBFF090E09C294
:1038E000DBFF0A0E0AC2DBFF0B0E0BC2DBFF0C0E66
:1038F0000CC2DBFF0D0E0DC2DBFF0F0EDB9CDB9E4F
:103900000E0EDB90DB92DB94DB96FD0EDB50E76E58
:103910000F0EE7CFDBFF140EDB6A150EDB6A260EF7
:10392000DBCF14F0270EDBCF15F00001145002019D
:1039300006270001155002010723000E0823092362
:10394000FD0EDBA21ED0DBB808D00A0EDB6A0B0E20
:10395000DB6A0C0EDB6A0D0EDB6A24A30CD0D95097
:10396000060FE96E000EDA20EA6EEE06000EEE5A41
:10397000EE5AEE5A06D0062B000E07230823092321
:103980002483FD0EDBB024813551335D365134592B
:1039900019E32B512D5D166E2E512C55176E355196
:1039A000335D186E34513655196E1850165C146E0E
:1039B00019501758156E100E14C0DBFF110E15C0EC
:1039C000DBFF0FD03351355D146E36513455156E13
:1039D0001406000E155A100E14C0DBFF110E15C090
:1039E000DBFF14EC92F0F3CFDEFFF4CFDDFFDECF90
:1039F00014F0DDCF15F0400E145C000E155803E2F4
:103A0000DE6ADD6A08D0D9CFE9FFDACFEAFF400EDF
:103A1000EE5E000EED5A100EDBCF14F0110EDBCF70
:103A200015F0DECF16F0DDCF17F01450165C1550F0
:103A300017580AE2D9CFE9FFDACFEAFF100EEECF2E
:103A4000DBFF110EEDCFDBFFD950020FE66E000E4B
:103A5000DA20E66E67EC21F0E552E552D950260FE8
:103A6000E96E000EDA20EA6E140EEE26000EED224C
:103A70000E0EDB88DB9ADB8CDB9EFD0EDBA238D0E2
:103A8000D950260FE96E000EDA20EA6E040EEE26FB
:103A9000000EED22020EF36E160EF3CFDBFF040EC6
:103AA000F36E170EF3CFDBFF020EF36E180EF3CF9B
:103AB000DBFFF36E190EF3CFDBFF010E146ED9504E
:103AC0000E0FE96E000EDA20EA6EEF50F00BE842BE
:103AD000E842E842E84214240F0BF36EF46EF3461A
:103AE000F346F346F3460F0EEF14F310EF6EF45067
:103AF0001A0E00C1DBFF1B0E01C1DBFF1C0E02C151
:103B0000DBFF1D0E03C1DBFF1E0E18C2DBFF1F0E05
:103B100019C2DBFF200E1AC2DBFF210E1BC2DBFF26
:103B2000220EDB6A060EF36E230EF3CFDBFF260EAA
:103B3000DBCF08F0270EDBCF09F0240E08C0DBFF37
:103B4000250E09C0DBFF240EDBCFE6FF250EDBCF01
:103B5000E6FF3BEC85F0E552E552240EF3CFDBFFA8
:103B6000250EF4CFDBFF0C0EE66EE66AD9501A0F75
:103B7000E66E000EDA20E66EC2EC85F0E552E55204
:103B8000E552E552F3CF14F0F4CF15F0141E151ED4
:103B9000120E14C0DBFF130E15C0DBFF010EE66E24
:103BA0000F0EE66E1DEC94F0E552E552260EDBCFCB
:103BB000E6FF270EDBCFE6FF060EE66E180EE66E7A
:103BC000020EE66E95ECB1F0146E050EE15C02E2B9
:103BD000E16AE552E16E1450140EE66EE66AD950C1
:103BE000020FE66E000EDA20E66E97EC97F0E552D3
:103BF000E552E552E552FD0EDBA20FD0040EE66E53
:103C0000E66AD950160FE66E000EDA20E66E97ECE3
:103C100097F0E552E552E552E552150EE66E0F0EAD
:103C2000E66E42EC94F0E552E552260EDBCFE6FF5D
:103C3000270EDBCFE6FFD0EC94F0E552E552F3CF50
:103C4000DEFFF4CFDDFF250EE66E0F0EE66E1DECF7
:103C500094F0E552E552020EE66EE66AD9CFE6FF31
:103C6000DACFE6FF97EC97F0E552E552E552E552E0
:103C7000BAEC93F0280EE15C02E2E16AE552E16EF3
:103C8000E552E5CFDAFFE7CFD9FF1200D9CFE6FF43
:103C9000DACFE6FFE1CFD9FFE2CFDAFF060EE1246B
:103CA00002E3E168E652E16EFC0EDBCFE9FFFD0EB8
:103CB000DBCFEAFF020EE926000EEA22EE50ED10FD
:103CC00002E1000EF6D2DE52FE0EDD6EFA0EDBCF02
:103CD000E9FFFB0EDBCFEAFF020EE926000EEA2227
:103CE000EECF1AF0EFCF1BF0FA0EDBCFE9FFFB0EA1
:103CF000DBCFEAFF1A50EE24186E1B50EE20196E2F
:103D0000FC0EDBCFE9FFFD0EDBCFEAFF1850EE24FF
:103D1000166E1950EE20176EFC0EDBCFE9FFFD0E7C
:103D2000DBCFEAFF020EE926000EEA221650EE185B
:103D3000146E1750EE18156E020E14C0DBFF030E42
:103D400015C0DBFFDF6ADF50146E156A030E145CCA
:103D5000000E155872E2DFCFE6FF6AEC00F0E55284
:103D60000D0E02013F5D02E166D029D0040E3F5DD9
:103D700019E1FC0EDBCFE9FFFD0EDBCFEAFF020EFF
:103D8000E926000EEA22EECF14F0EFCF15F0145022
:103D9000421902E11550431903E1010EDFCFDBFFA9
:103DA0004AD00DD042C214F043C215F0020EDB50CF
:103DB000141803E1030EDB50151801E03CD0C7ECEA
:103DC00000F0FC0EDBCFE9FFFD0EDBCFEAFF020EB9
:103DD000E926000EEA22EECF14F0EFCF15F0020133
:103DE0001251141802E11351151825E1FC0EDBCF16
:103DF000E9FFFD0EDBCFEAFFEECF16F0EFCF17F0B5
:103E00001051161802E11151171815E1FA0EDBCF07
:103E1000E9FFFB0EDBCFEAFFEE50181909E1EE5087
:103E2000191906E1EE501A1903E1EE501B1900E1D1
:103E300002E1010E3ED2DF2A86D7010EDB50FE08DA
:103E400047E0010EDBCFE6FF6AEC00F0E552C7EC7D
:103E500000F0010EDB50FE083BE0020EDBCF42F229
:103E6000030EDBCF43F20A0EE66EE66AFA0EDBCFF4
:103E7000E6FFFB0EDBCFE6FF180EE66E020EE66EE7
:103E800022ECBAF0146E060EE15C02E2E16AE55241
:103E9000E16E1450FC0EDBCFE9FFFD0EDBCFEAFF35
:103EA000EECF10F2EDCF11F2FC0EDBCFE9FFFD0EED
:103EB000DBCFEAFF020EE926000EEA22EECF12F275
:103EC000EDCF13F229C20EF22AC20FF2010EF1D188
:103ED000FC0EDBCFE9FFFD0EDBCFEAFF0D0EE9267E
:103EE000000EEA22EF50020B02E1000EE2D10201C5
:103EF00089518A1102E0000EDCD1040EDB6A050E46
:103F0000DB6A040EDBCF14F0050EDBCF15F0030ED9
:103F1000145C000E155801E3CFD0040EDBCFE9FF8F
:103F2000050EDBCFEAFF140EEA02F3CFEAFFE90247
:103F3000F3CFE9FFF450EA26510EE926020EEA22F9
:103F4000100EE926000EEA22EE50ED1001E1B4D089
:103F5000040EDBCFE9FF050EDBCFEAFF140EEA0209
:103F6000F3CFEAFFE902F3CFE9FFF450EA26510E5E
:103F7000E926020EEA22100EE926000EEA22EECF12
:103F800014F0EFCF15F0FC0EDBCFE9FFFD0EDBCF19
:103F9000EAFF020EE926000EEA22EECF16F0EFCF7E
:103FA00017F01650141802E11750151801E07ED0D2
:103FB000040EDBCFE9FF050EDBCFEAFF140EEA02A9
:103FC000F3CFEAFFE902F3CFE9FFF450EA26510EFE
:103FD000E926020EEA220A0EE926000EEA22EECFB8
:103FE00014F0EFCF15F0FC0EDBCFE9FFFD0EDBCFB9
:103FF000EAFFEECF16F0EFCF17F01650141802E1DB
:104000001750151801E052D0FA0EDBCFE9FFFB0E76
:10401000DBCFEAFFEECF14F0EECF15F0EECF16F0C7
:10402000EFCF17F0040EDBCFE9FF050EDBCFEAFF81
:10403000140EEA02F3CFEAFFE902F3CFE9FFF450EE
:10404000EA26510EE926020EEA22EE50000114186B
:1040500009E1EE50151806E1EE50161803E1EE5096
:10406000171800E101E022D020ECBEF006C014F0E9
:1040700007C015F0040EDBCFE9FF050EDBCFEAFF2A
:10408000140EEA02F3CFEAFFE902F3CFE9FFF4509E
:10409000EA26510EE926020EEA22120EE926000E49
:1040A000EA2214C0EEFF15C0EDFF03D1040EDB2A97
:1040B000050E01E3DB2A25D7DF6ADF50146E156A8F
:1040C000030E145C000E155801E3F1D0DFCFE6FFBC
:1040D0006AEC00F0E552020140A7E7D0C7EC00F01F
:1040E000FC0EDBCFE9FFFD0EDBCFEAFF020EE92677
:1040F000000EEA22EECF14F0EFCF15F014500201BB
:10410000121902E11550131901E0CFD00A0EE66E24
:10411000E66AFA0EDBCFE6FFFB0EDBCFE6FF040E0E
:10412000DBCFE9FF050EDBCFEAFF140EEA02F3CF87
:10413000EAFFE902F3CFE9FFF450EA26510EE9263F
:10414000020EEA22E9CF14F0EACF15F014C0E6FF20
:1041500015C0E6FF22ECBAF0166E060EE15C02E234
:10416000E16AE552E16E1650FC0EDBCFE9FFFD0E71
:10417000DBCFEAFFEECF14F0EFCF15F0040EDBCF6C
:10418000E9FF050EDBCFEAFF140EEA02F3CFEAFFE8
:10419000E902F3CFE9FFF450EA26510EE926020EB8
:1041A000EA220A0EE926000EEA2214C0EEFF15C02C
:1041B000EDFFFC0EDBCFE9FFFD0EDBCFEAFF040EC7
:1041C000E926000EEA22EECF14F0EECF15F0EECF86
:1041D00016F0EFCF17F0040EDBCFE9FF050EDBCFB3
:1041E000EAFF140EEA02F3CFEAFFE902F3CFE9FF98
:1041F000F450EA26510EE926020EEA220C0EE926B8
:10420000000EEA2214C0EEFF15C0EEFF16C0EEFF4E
:1042100017C0EEFFFC0EDBCFE9FFFD0EDBCFEAFFA0
:10422000020EE926000EEA22EECF14F0EFCF15F0D1
:10423000040EDBCFE9FF050EDBCFEAFF140EEA0226
:10424000F3CFEAFFE902F3CFE9FFF450EA26510E7B
:10425000E926020EEA22100EE926000EEA2214C018
:10426000EEFF15C0EDFF20ECBEF006C014F007C055
:1042700015F0040EDBCFE9FF050EDBCFEAFF140ECD
:10428000EA02F3CFEAFFE902F3CFE9FFF450EA26AE
:10429000510EE926020EEA22120EE926000EEA224B
:1042A00014C0EEFF15C0EDFF04D0DF2A06D7000EC4
:1042B00000D0146E060EE15C02E2E16AE552E16EA6
:1042C0001450E552E5CFDAFFE7CFD9FF1200D9CF7E
:1042D000E6FFDACFE6FFE1CFD9FFE2CFDAFFFC0E4F
:1042E000DBCFE9FFFD0EDBCFEAFFEECFE6FFEFCF3E
:1042F000E6FF3BEC85F0E552E552F3CF14F0F4CF46
:1043000015F0FC0EDBCFE9FFFD0EDBCFEAFF14C09A
:10431000EEFF15C0EDFFFC0EDBCFE9FFFD0EDBCF9E
:10432000EAFF020EE926000EEA22EECFE6FFEFCF0B
:10433000E6FF3BEC85F0E552E552F3CF14F0F4CF05
:1043400015F0FC0EDBCFE9FFFD0EDBCFEAFF020E1E
:10435000E926000EEA2214C0EEFF15C0EDFFFC0EA8
:10436000DBCFE9FFFD0EDBCFEAFF040EE926000EEE
:10437000EA22EECFE6FFEECFE6FFEECFE6FFEFCF8D
:10438000E6FF69EC85F0E552E552E552E55206C0DC
:1043900014F007C015F008C016F009C017F0FC0EA5
:1043A000DBCFE9FFFD0EDBCFEAFF040EE926000EAE
:1043B000EA2214C0EEFF15C0EEFF16C0EEFF17C0D4
:1043C000EEFFFC0EDBCFE9FFFD0EDBCFEAFF080EB0
:1043D000E926000EEA22EECFE6FFEECFE6FFEECFB3
:1043E000E6FFEFCFE6FF69EC85F0E552E552E552D6
:1043F000E55206C014F007C015F008C016F009C059
:1044000017F0FC0EDBCFE9FFFD0EDBCFEAFF080E55
:10441000E926000EEA2214C0EEFF15C0EEFF16C01A
:10442000EEFF17C0EEFFFC0EDBCFE9FFFD0EDBCF8A
:10443000EAFF0E0EE926000EEA22EECFE6FFEFCFEE
:10444000E6FF3BEC85F0E552E552F3CF14F0F4CFF4
:1044500015F0FC0EDBCFE9FFFD0EDBCFEAFF0E0E01
:10446000E926000EEA2214C0EEFF15C0EDFFFC0E97
:10447000DBCFE9FFFD0EDBCFEAFF100EE926000ED1
:10448000EA22EECFE6FFEFCFE6FF3BEC85F0E55208
:10449000E552F3CF14F0F4CF15F0FC0EDBCFE9FFBB
:1044A000FD0EDBCFEAFF100EE926000EEA2214C053
:1044B000EEFF15C0EDFFFC0EDBCFE9FFFD0EDBCFFD
:1044C000EAFF120EE926000EEA22EECFE6FFEFCF5A
:1044D000E6FF3BEC85F0E552E552F3CF14F0F4CF64
:1044E00015F0FC0EDBCFE9FFFD0EDBCFEAFF120E6D
:1044F000E926000EEA2214C0EEFF15C0EDFFE552DA
:10450000E5CFDAFFE7CFD9FF1200C7EC00F012C207
:1045100042F213C243F229C22FF22AC230F229C258
:1045200031F22AC232F22BC233F22CC234F22BC245
:1045300035F22CC236F202014051080B02E0040EA3
:1045400001D00D0E3F6F4091409340954099409BA4
:10455000409D409F419141934195419741892491CC
:1045600024932497249929C20EF22AC20FF258EC00
:104570007EF0F3CF06F2F4CF07F258EC7EF0F3CFE3
:1045800008F2F4CF09F2020122692369010E146FC7
:10459000156B1200D9CFE6FFDACFE6FFE1CFD9FFE6
:1045A000E2CFDAFFE652E652E652E6520C0EE66E33
:1045B000E66A56ECB2F0E552E5522DEC97F0DF6E6C
:1045C000F00EDF14E840E8403F0B146E156A140E3D
:1045D000145E000E155A1450DF6EDF5005E1180E00
:1045E000F36E020EF46E8BD0070EE66EE66A000ED6
:1045F000E66EE66A30EC97F0E552E552E552E55298
:10460000DF50DF06000976E02DEC97F0E76E010E33
:10461000E7CFDBFFDB5001E16DD0010EDB0401E1F0
:10462000EFD7010EDB50020846E1030EDF5C01E22A
:1046300061D0020EDB6A030EDB6A2DEC97F0E76EA9
:10464000010EE7CFDBFFDB5004080CE12DEC97F007
:10465000E76E030EE7CFDBFF2DEC97F0E76E020E5F
:10466000E7CFDBFF020EDBCF14F0030EDBCF15F03C
:10467000180E145C020E155801E23CD0D950020FFE
:10468000E96E000EDA20EA6EB40ED880EE54050E04
:10469000ED5406E2B40EF36E050EF46E30D029D060
:1046A000020EDBCF14F0030EDBCF15F014C0F3FFC6
:1046B00015C0F4FF24D0020EDF5C01E21BD02DEC0C
:1046C00097F0E76E010EE7CFDBFFDB50DF5C01E226
:1046D00011D0010EDBCFE6FFE66A000EE66EE66A59
:1046E00030EC97F0E552E552E552E552010EDB5011
:1046F000DF5E86D7180EF36E020EF46E00D0040E45
:10470000E15C02E2E16AE552E16EE552E5CFDAFFF3
:10471000E7CFD9FF1200D9CFE6FFDACFE6FFE1CF2E
:10472000D9FFE2CFDAFF1C0EE12402E3E168E65292
:10473000E16EFC0EDBCFE9FFFD0EDBCFEAFF0D0ED5
:10474000E926000EEA220E0EEFCFDBFFFC0EDBCFD8
:10475000E9FFFD0EDBCFEAFF080EE926000EEA2294
:104760000F0EEECFDBFF100EEECFDBFF110EEECF04
:10477000DBFF120EEECFDBFFFC0EDBCFE9FFFD0E01
:10478000DBCFEAFF040EE926000EEA22130EEECF7D
:10479000DBFF140EEECFDBFF150EEECFDBFF160EA8
:1047A000EECFDBFF020140914093409540B913D01A
:1047B000F1ECBDF006C037F207C038F208C039F29C
:1047C00009C03AF2740E02013727350E3823060E5F
:1047D0003923000E3A233F51050A5CE0010A15E037
:1047E000FA0EDBCF08F0FB0EDBCF09F0170E08C086
:1047F000DBFF180E09C0DBFF0E0EDBA0EBD0170E9F
:10480000DB2A180E01E2E6D0E4D00E0EDBA403D0C2
:104810007CDE03EF2EF0DBA816D00F0EDBCF06F206
:10482000100EDBCF07F2110EDBCF08F2120EDBCF3A
:1048300009F2E66A040EE66E4DEC1AF0E552E55216
:1048400064DE03EF2EF0DBA222D0130EDBCF0AF2E0
:10485000140EDBCF0BF2150EDBCF0CF2160EDBCFF6
:104860000DF20A2B000E0B230C230D2393DEF3CF46
:1048700025F2F4CF26F2010EE66E120EE66E4DEC36
:104880001AF0E552E5520201060E3F6F01D03DDEFF
:1048900003EF2EF00E0EDBA402D003EF2EF0DBA808
:1048A00041D0D9500F0FE96E000EDA20EA6EEE50BB
:1048B000061909E1EE50071906E1EE50081903E167
:1048C000EE50091900E12EE0130E06C2DBFF140EB4
:1048D00007C2DBFF150E08C2DBFF160E09C2DBFFA5
:1048E0000F0EDBCF06F2100EDBCF07F2110EDBCF7F
:1048F00008F2120EDBCF09F2010EE66E040EE66E30
:104900004DEC1AF0E552E552130EDBCF06F2140E11
:10491000DBCF07F2150EDBCF08F2160EDBCF09F264
:1049200003EF2EF00E0EDBA252D0130EDBCF0AF2F5
:10493000140EDBCF0BF2150EDBCF0CF2160EDBCF15
:104940000DF20A2B000E0B230C230D23FC0EDBCFE4
:10495000E9FFFD0EDBCFEAFF0E0EE926000EEA228C
:10496000EECF14F2EDCF15F215DEF3CF25F2F4CF32
:1049700026F20E0EDBA820D0010EE66E100EE66EBB
:104980004DEC1AF0E552E5520201070E3F6FF1ECD3
:10499000BDF006C037F207C038F208C039F209C0CE
:1049A0003AF2740E02013727350E3823060E3923EA
:1049B000000E3A2340990BD0010EE66E120EE66E01
:1049C0004DEC1AF0E552E5520201060E3F6F03EF7F
:1049D0002EF0DB2A0E0EDBA205D0170EDB2A180EF6
:1049E00001E3DB2A3551335D3651345919E32B513C
:1049F0002D5D166E2E512C55176E3551335D186E88
:104A000034513655196E1850165C146E19501758DB
:104A1000156E0C0E14C0DBFF0D0E15C0DBFF0FD0A2
:104A20003351355D146E36513455156E1406000E33
:104A3000155A0C0E14C0DBFF0D0E15C0DBFFD9504C
:104A4000130FE96E000EDA20EA6E0A51EE5C146E66
:104A50000B51EE58156E0C51EE58166E0D51EE5866
:104A6000176E060E14C0DBFF070E15C0DBFF080E25
:104A700016C0DBFF090E17C0DBFF060EDBCF08F008
:104A8000070EDBCF09F00A0E08C0DBFF0B0E09C0D2
:104A9000DBFF190EDB6AD950170FE96E000EDA2022
:104AA000EA6EEE50ED1001E1C9D0D9500C0FE96E5D
:104AB000000EDA20EA6EEE50ED1001E1BED0D950C2
:104AC000060FE96E000EDA20EA6ED890030EEB5066
:104AD000000A08E6000EEE5C000EEE58000EEE58DE
:104AE000000EEE581DE30C0EDBCF14F00D0EDBCFE5
:104AF00015F0166A176AD950060FE96E000EDA2013
:104B0000EA6E1450EE5C1550EE581650EE581750E1
:104B1000EE5806E2010EF36E190EF3CFDBFF55D00F
:104B2000170EDBCF14F0180EDBCF15F0166A176ADC
:104B3000D950060FE96E000EDA20EA6EEE50142608
:104B4000EE501522EE501622EE5017221734000EAA
:104B5000171809E6D880000E1454000E1554000EE4
:104B60001654000E175431E20C0EDBCF1CF00D0E64
:104B7000DBCF1DF0170EDB501C5C186E180EDB50DF
:104B80001D58196E1A6A1B6A19AE02D01A681B6882
:104B9000D950060FE96E000EDA20EA6E030EEBCF55
:104BA000F3FF1B50F318E8AE02D0F33408D0EE50F8
:104BB000185CEE501958EE501A58EE501B5805E389
:104BC000010EF36E190EF3CFDBFF0C0EDBCF14F0EA
:104BD0000D0EDBCF15F0166A176AD950060FE96E75
:104BE000000EDA20EA6E030EEB501718E8AE02D082
:104BF000173408D01450EE5C1550EE581650EE588D
:104C00001750EE581AE2170EDBCF1AF0180EDBCF52
:104C10001BF00A0EDB501A24186E0B0EDB501B2003
:104C2000196E193404E218500008000E195405E2F8
:104C3000010EF36E190EF3CFDBFF47D0060EDBCF6C
:104C400014F0070EDBCF15F0080EDBCF16F0090EBF
:104C5000DBCF17F0145015101610171006E1010ED7
:104C6000F36E190EF3CFDBFF30D0D950060FE96E8B
:104C7000000EDA20EA6ED890030EEB50000A08E628
:104C8000000EEE5C000EEE58000EEE58000EEE58D0
:104C90001CE30C0EDBCF14F00D0EDBCF15F0166A03
:104CA000176AD950060FE96E000EDA20EA6E14502A
:104CB000EE5C1550EE581650EE581750EE5805E2BF
:104CC000010EF36E190EF3CFDBFF190EDB500DE171
:104CD0000E0EDBB408D0010EE66E100EE66E4DEC43
:104CE0001AF0E552E55203EF2EF00E0EDB50060BE4
:104CF00004E085EC22F003EF2EF00E0EDBB802D0BC
:104D000003EF2EF03F510C0A01E131D30B0A4EE0C4
:104D10000F0A4CE0010A4AE0020A48E0010A46E0B4
:104D20000C0A01E048D3D9500F0FE96E000EDA20CB
:104D3000EA6EEE50061909E1EE50071906E1EE5051
:104D4000081903E1EE50091900E12EE0130E06C226
:104D5000DBFF140E07C2DBFF150E08C2DBFF160EC9
:104D600009C2DBFF0F0EDBCF06F2100EDBCF07F21E
:104D7000110EDBCF08F2120EDBCF09F2010EE66E48
:104D8000040EE66E4DEC1AF0E552E552130EDBCF41
:104D900006F2140EDBCF07F2150EDBCF08F2160E6B
:104DA000DBCF09F203EF2EF0070E3F6F0E512F5DA0
:104DB000146E30510F55156E040E14C0DBFF050E36
:104DC00015C0DBFF040EDBCF14F0050EDBCF15F0B2
:104DD0000001800E151411E0020129512B5D146EA3
:104DE0002C512A55156ED950040FE96E000EDA20A9
:104DF000EA6E1450EE261550ED22040EDBCF14F0AF
:104E0000050EDBCF15F0166A176A060EE96E020E64
:104E1000EA6EEE501426EE501522EE501622EE5099
:104E2000172214C0DFFF010E15C0DBFF020E16C0F3
:104E3000DBFF030E17C0DBFF0F0EDBCF18F0100EE9
:104E4000DBCF19F0110EDBCF1AF0120EDBCF1BF007
:104E5000D9CFE9FFDACFEAFFEE50185C146EEE50BE
:104E60001958156EEE501A58166EEE501B58176EE4
:104E700014C0DFFF010E15C0DBFF020E16C0DBFF02
:104E8000030E17C0DBFFDECF07F0DECF08F0DECF6A
:104E900009F0DDCF0AF0DD52DD520A34000E0A18A7
:104EA00009E6D880000E0754000E0854000E09547D
:104EB000000E0A5426E202012451010B0DE0D9CF65
:104EC000E9FFDACFEAFF010EEE1805E1EE5003E14B
:104ED000EE5001E1EE500AE0E66A100EE66E4DEC8F
:104EE0001AF0E552E55203EF2EF00BD0D9500F0F18
:104EF000E96E000EDA20EA6EEE06000EEE5AEE5A69
:104F0000EE5A020131510E5D186E0F513255196E75
:104F10001A6A1B6A19AE02D01A681B681850065D1F
:104F2000146E19500759156E1A500859166E1B50F9
:104F30000959176E14C0DFFF010E15C0DBFF020E0A
:104F400016C0DBFF030E17C0DBFF31510E5D32517F
:104F50000F5914E229512B5D146E2C512A55156EF0
:104F6000166A176AD9CFE9FFDACFEAFF1450EE5E6E
:104F70001550EE5A1650EE5A1750EE5A0F0EDBCF60
:104F800018F0100EDBCF19F0110EDBCF1AF0120E55
:104F9000DBCF1BF0D9CFE9FFDACFEAFFEE50185C88
:104FA000146EEE501958156EEE501A58166EEE50DB
:104FB0001B58176E14C0DFFF010E15C0DBFF020E79
:104FC00016C0DBFF030E17C0DBFFDECF07F0DECF1E
:104FD00008F0DECF09F0DDCF0AF0DD52DD520A34F1
:104FE000000E0A1809E6D880000E0754000E085477
:104FF000000E0954000E0A5401E3A2D029512B5D82
:10500000146E2C512A55156E166A176AD9CFE9FF0E
:10501000DACFEAFFEE50145CEE501558EE501658F9
:10502000EE50175801E28CD0249724994191040E38
:1050300031C2DBFF050E32C2DBFFD9CFE9FFDACF89
:10504000EAFFEE503127EE503223040EDBCF14F08E
:10505000050EDBCF15F014500E5D15500F591BE3F4
:1050600031510E5D32510F5915E20E51315D146E02
:1050700032510F55156E0001145002010627000130
:10508000155002010723000E0823092331C20EF236
:1050900032C20FF236D029512B5D166E2C512A5593
:1050A000176E0E511624146E0F511720156E040E34
:1050B00014C0DBFF050E15C0DBFF040EDBCF14F0C0
:1050C000050EDBCF15F03151145C3251155819E241
:1050D000040EDB50315D0001146E050EDB50020141
:1050E00032590001156E14500201062700011550B7
:1050F00002010723000E0823092331C20EF232C237
:105100000FF22B51315D2C5132590AE329512B5D9D
:10511000146E2C512A55156E1450315F1550325BA8
:105120002B510E5D2C510F590AE329512B5D146E42
:105130002C512A55156E14500E5F15500F5B3ED042
:105140000E51311902E10F51321938E024A735D040
:1051500024A932D031510E5D146E0F513255156EA7
:10516000166A176A15AE02D0166817681450065FE3
:105170001550075B1650085B1750095B31510E5DE7
:1051800032510F5914E229512B5D146E2C512A55BE
:10519000156E166A176A15AE02D016681768145095
:1051A000065F1550075B1650085B1750095B31C24C
:1051B0000EF232C20FF24185248924872F51311912
:1051C00002E1305132192FE141B715D0F1ECBDF0B9
:1051D00006C037F207C038F208C039F209C03AF207
:1051E000740E02013727350E3823060E3923000EC0
:1051F0003A23409918D0D9500F0FE96E000EDA20EB
:10520000EA6E0651EE1809E10751EE1806E1085161
:10521000EE1803E10951EE1800E105E12451010BFC
:1052200002E040994197D9500F0FE96E000EDA2045
:10523000EA6EEE50065D166EEE500759176EEE5090
:105240000859186EEE500959196EFC0EDBCFE9FFB4
:10525000FD0EDBCFEAFF0E0EE926000EEA22165005
:10526000EE5C146E1750EE58156E1A0E14C0DBFF6C
:105270001B0E15C0DBFF145115110AE1D9501A0F8E
:10528000E96E000EDA20EA6EEE50ED1001E0418387
:105290001A0EDBCF14F21B0EDBCF15F2080E3F5DAA
:1052A0002DE1D9500F0FE96E000EDA20EA6E06519B
:1052B000EE1809E10751EE1806E10851EE1803E176
:1052C0000951EE1800E119E12451010B16E0F1EC4F
:1052D000BDF006C037F207C038F208C039F209C085
:1052E0003AF2BA0E020137271A0E3823030E392379
:1052F000000E3A234089090E3F6F38D0090E3F5DFA
:105300001BE10E0EDBB017D00F0EDBCF06F2100E36
:10531000DBCF07F2110EDBCF08F2120EDBCF09F262
:10532000E66A140EE66E4DEC1AF0E552E55285EC95
:1053300022F003EF2EF01AD00A0E3F5D17E1D9508C
:105340000F0FE96E000EDA20EA6E0651EE1809E141
:105350000751EE1806E10851EE1803E10951EE1865
:1053600000E102E185EC22F003EF2EF025D006C229
:1053700014F007C215F008C216F009C217F0142A7B
:10538000000E152216221722D9500F0FE96E000EBB
:10539000DA20EA6E1450EE1809E11550EE1806E115
:1053A0001650EE1803E11750EE1800E102E185EC0B
:1053B00022F003EF2EF000D00E0EDBAA02D003EF96
:1053C0002EF00B0E3F5D02E103EF2EF00A0E3F5D63
:1053D00002E103EF2EF00C0E3F5D02E103EF2EF031
:1053E000D950FA0FE96EFF0EDA20EA6EEE50ED109A
:1053F00001E14DD30A0EDBCF14F00B0EDBCF15F01D
:10540000153404E214500008000E155401E25CD17A
:10541000FC0EDBCFE9FFFD0EDBCFEAFF0C0EE92629
:10542000000EEA22EF50F00BE842E842E842E84280
:10543000040DF350166E176A0A0EDB50165C146EDC
:105440000B0EDB501758156E14C0E6FF15C0E6FFB3
:1054500056ECB2F0E552E5520A0EDBCF14F00B0E1B
:10546000DBCF15F0D950FA0FE96EFF0EDA20EA6EA5
:105470001450EE261550ED22FA0EDBCF14F0FB0E81
:10548000DBCF15F00C0EDBCF16F00D0EDBCF17F0D7
:105490001450165C155017580CE20C0EDBCF08F0B8
:1054A0000D0EDBCF09F0FA0E08C0DBFFFB0E09C0C2
:1054B000DBFFFA0EDBCF14F0FB0EDBCF15F00001A3
:1054C000145002010A270001155002010B23000E9F
:1054D0000C230D23FA0EDB5033250001146EFB0E56
:1054E000DB50020134210001156E020114502D5DC4
:1054F00015502E5964E233512D5D146E2E513455E2
:10550000156E010E1426000E1522040E14C0DBFFCA
:10551000050E15C0DBFF040EDBCFE6FF050EDBCF6B
:10552000E6FFE66AE668E66844C2E6FF33C2E6FFE5
:1055300034C2E6FFC1EC2FF0146E080EE15C02E20B
:10554000E16AE552E16E1450FA0EDBCF16F0FB0E65
:10555000DBCF17F0040EDB50165C146E050EDB502B
:105560001758156E14C0E6FF15C0E6FFE66AE66838
:10557000E66844C2E6FF2BC2E6FF2CC2E6FFC1ECA0
:105580002FF0186E080EE15C02E2E16AE552E16E6E
:105590001850FA0EDBCF16F0FB0EDBCF17F0040E1F
:1055A000DB50165C146E050EDB501758156E0201A9
:1055B0002B511424336F2C511520346F24D0FA0E44
:1055C000DBCFE6FFFB0EDBCFE6FFE66AE668E668C8
:1055D00044C2E6FF33C2E6FF34C2E6FFC1EC2FF05F
:1055E000146E080EE15C02E2E16AE552E16E1450CD
:1055F000FA0EDBCF08F0FB0EDBCF09F008500201FA
:10560000332709503423221D01E1231D5CE0FA0EEB
:10561000DBCF08F0FB0EDBCF09F00850225F09500A
:10562000235B16512225146E17512321156E040E8B
:1056300014C0DBFF050E15C0DBFF040EDBCF14F03A
:10564000050EDBCF15F00001800E151404E00201F9
:105650002269236938D00201233504E2225100086F
:10566000000E235530E3040EDBCF14F0050EDBCF24
:1056700015F00001145002010A2700011550020123
:105680000B23000E0C230D23040EDBCF08F0050EB8
:10569000DBCF09F0085033270950342333512D5DF7
:1056A00034512E590EE22B512D5D146E2E512C5576
:1056B000156E010E1426000E15221450335F15507E
:1056C000345B22692369E3D10A0EDBCF14F00B0EA1
:1056D000DBCF15F0153404E214500008000E155409
:1056E00001E3D5D10A0EDBCF16F00B0EDBCF17F09E
:1056F000FA0EDB501624146EFB0EDB501720156ECD
:105700000C0EDBCF18F00D0EDBCF19F01450185C27
:105710001550195814E20C0EDBCF16F00D0EDBCF2E
:1057200017F00A0EDB50165C146E0B0EDB50175888
:10573000156EFA0E14C0DBFFFB0E15C0DBFFFC0E6E
:10574000DBCFE9FFFD0EDBCFEAFF0C0EE926000EF2
:10575000EA22EF50F00BE842E842E842E842040D4A
:10576000F350E66EE66A56ECB2F0E552E5520A0EE8
:10577000DB50020133250001166E0B0EDB500201D7
:1057800034210001176EFA0EDB501624146EFB0E46
:10579000DB501720156E020114502D5D15502E5947
:1057A00001E3A1D033512D5D166E2E513455176E85
:1057B000010E1626000E17220A0EDB50165C146E20
:1057C0000B0EDB501758156E040E14C0DBFF050ED0
:1057D00015C0DBFF040EDBCF14F0050EDBCF15F098
:1057E0000001800E151449E1040EDBCFE6FF050E23
:1057F000DBCFE6FFE66AE668E66844C2E6FF0A0E2B
:10580000DB50020133250001146E0B0EDB50020148
:1058100034210001156E14C0E6FF15C0E6FFB1DBB0
:10582000166E080EE15C02E2E16AE552E16E165086
:10583000FA0EDBCF16F0FB0EDBCF17F0040EDB50B9
:10584000165C146E050EDB501758156E14C0E6FF7B
:1058500015C0E6FFE66AE668E66844C2E6FF2BC2CA
:10586000E6FF2CC2E6FF8DDB186E080EE15C02E25B
:10587000E16AE552E16E185035D0FA0EDBCFE6FF53
:10588000FB0EDBCFE6FFE66AE668E66844C2E6FFA9
:105890000A0EDB50020133250001166E0B0EDB50A1
:1058A000020134210001176E02012B512D5D186E8B
:1058B0002E512C55196E010E1826000E1922185063
:1058C000165C146E19501758156E14C0E6FF15C0FB
:1058D000E6FF57DB1A6E080EE15C02E2E16AE55270
:1058E000E16E1A5023D0FA0EDBCFE6FFFB0EDBCFC2
:1058F000E6FFE66AE668E66844C2E6FF0A0EDB50A9
:1059000033250001146E0B0EDB500201342100011F
:10591000156E14C0E6FF15C0E6FF33DB166E080EE9
:10592000E15C02E2E16AE552E16E16500201221DDD
:1059300001E1231D0DE10A0EDBCF22F20B0EDBCFBE
:1059400023F2FA0EDBCF16F2FB0EDBCF17F29FD05D
:105950000A0EDBCF14F00B0EDBCF15F02251145CD6
:10596000235115584CE2FA0EDBCF16F0FB0EDBCFBD
:1059700017F00A0EDB501624146E0B0EDB501720A6
:10598000156E22511625186E23511721196E1450C9
:10599000185C1550195813E3FA0EDBCF1CF0FB0E00
:1059A000DBCF1DF00A0EDB501C241A6E0B0EDB50F1
:1059B0001D201B6E22511A5C23511B5807E2FA0E60
:1059C000DBCF16F2FB0EDBCF17F212D022511625D9
:1059D000146E23511721156E0A0EDB500001145C62
:1059E0000201166F0B0EDB50000115580201176FF4
:1059F0000A0EDBCF22F20B0EDBCF23F248D0FA0ED9
:105A0000DBCF16F0FB0EDBCF17F00A0EDB501624AF
:105A1000146E0B0EDB501720156E22511625186ED2
:105A200023511721196E1450185C155019582FE284
:105A30000A0EDBCF14F00B0EDBCF15F0225116252A
:105A4000166E23511721176E1450165C15501758F7
:105A50001EE3FA0EDBCF1AF0FB0EDBCF1BF00A0EB3
:105A6000DB501A24186E0B0EDB501B20196E2251CE
:105A7000185C166E23511958176E1651165C146E69
:105A800017511758156E1450162715501723D95053
:105A9000170FE96E000EDA20EA6EEE50ED1023E0EB
:105AA000070E3F5D04E033C235F234C236F240AF38
:105AB0000BD0010EE66E100EE66E4DEC1AF0E552BC
