:020000040000FA
:0600000075EFBFF01200D5
:020006001200E6
:060008002DEFA3F0120031
:02000E008D80E3
:020010001200DC
:040012008D901200BB
:020016001200D6
:06001800D0EFA2F012007F
:02001E000F00D1
:100020007F7F01003E030000010000007E7F010091
:100030003D030000010000007A7F01002B03000057
:1000400004000000787F0100370300000200000078
:10005000777F01003C03000001000000747F010075
:10006000FD00000003000000707F01002703000076
:10007000040000006E7F0100350300000200000054
:100080006A7F01002303000004000000457F010097
:100090003B03000001000000607F0100000300003E
:1000A0000A0000005E7F0100330300000200000030
:1000B0005C7F01003103000002000000587F010056
:1000C0001F03000004000000567F01002F03000002
:0400D000020000002A
:0C00D400D9CFE6FFE1CFD9FFFE0EDB50D4
:1000E0000301315D01E141D0FE0E315D1BE01C0ECC
:1000F000E66EE66AD40EE66E020EE66E31511C0D17
:10010000F3CF14F0F4CF15F0570E1426020E15227B
:1001100014C0E6FF15C0E6FF80ECB4F0166E060EC4
:10012000E15E1650FE0EDBCF31F3DB50FE0801E13D
:100130001CD01C0EE66EE66AFE0EDB501C0DF3CFE3
:1001400014F0F4CF15F0570E1426020E152214C029
:10015000E6FF15C0E6FFD40EE66E020EE66E80ECFA
:10016000B4F0166E060EE15E1650E552E7CFD9FFE9
:10017000120003013151325D01E156D0FE0E325DB5
:1001800035E0270EE66EE66A010EE66EAD0EE66E0F
:10019000020EE66E32511C0DF3CFE9FFF4CFEAFFF9
:1001A000570EE926020EEA221B0EE926000EEA226D
:1001B000EF50E66E32511C0DF3CFE9FFF4CFEAFFAA
:1001C000570EE926020EEA22EECF14F0EFCF15F01B
:1001D000270E145E000E155A14C0E6FF15C0E6FF88
:1001E000E5EC2DF0166E080EE15E165031C332F3C9
:1001F000270EE66EE66AEFC2E6FFD4C214F0D5C25F
:1002000015F0145E000E155A14C0E6FF15C0E6FF87
:10021000010EE66EAD0EE66E020EE66EE5EC2DF01A
:10022000166E080EE15E16501200D9CFE6FFE1CF40
:10023000D9FF0B0EE126FA0EF36E090EF3CFDBFFAA
:100240000E0EF36E0A0EF3CFDBFF0201AB51AC11C1
:100250000FE194EC78F006C0ABF207C0ACF2FF0EF1
:100260000201AB17070EAC17000EAB27040EAC2330
:100270003C0EE66EE66AE66A000EE66E0F0EE66E6D
:10028000CEECB4F0146E050EE15E1450010EDB6A84
:10029000DF6ADF50146E156A030E145C000E1558E9
:1002A00001E33ED1DFCFE6FF15DFE552220E146EEB
:1002B0007F0E156E010E166EDFCF17F0186A196AE1
:1002C000060E0C6E0D6A0E6A17C007F018C008F013
:1002D00019C009F0E5ECBCF004C017F005C018F037
:1002E00006C019F014501724F36E15501820F46E40
:1002F00016501920F86EF4CFF7FFF3CFF6FFF62A69
:10030000000EF722F8220800080EF5CFDBFF220EC0
:10031000146E7F0E156E010E166EDFCF17F0186A81
:10032000196A060E0C6E0D6A0E6A17C007F018C027
:1003300008F019C009F0E5ECBCF004C017F005C0E6
:1003400018F006C019F014501724F36E1550182039
:10035000F46E16501920F86EF4CFF7FFF3CFF6FFC6
:10036000020EF626000EF722F8220900020EF5CF43
:10037000DBFF0A00030EF5CFDBFF220E146E7F0EAB
:10038000156E010E166EDFCF17F0186A196A060E89
:100390000C6E0D6A0E6A17C007F018C008F019C07D
:1003A00009F0E5ECBCF004C017F005C018F006C079
:1003B00019F014501724F36E15501820F46E1650CF
:1003C0001920F86EF4CFF7FFF3CFF6FF040EF626F0
:1003D000000EF722F8220900040EF5CFDBFF0A0019
:1003E000050EF5CFDBFF080EDB5001E098D0090EBB
:1003F000DBCF08F00A0EDBCF09F0060E08C0DBFFEA
:10040000070E09C0DBFF020EDBCF16F0030EDBCFB9
:1004100017F0270E1626000E1722010E1626000EC4
:100420001722040EDB501624146E050EDB50172025
:10043000156E010E1426000E1522D950090FE96E13
:10044000DACFEAFF1450EE261550ED22090EDBCF6D
:1004500014F00A0EDBCF15F0166A176AD880360E34
:1004600014541E0E1554000E1654000E175401E2BB
:10047000EDD7080EDBCFEFF2060EDBCFD4F2070E7E
:10048000DBCFD5F2270E0201D427000ED523020EB2
:10049000DB50D425D66F030EDB50D521D76F010E6C
:1004A000D627000ED723040EDB50D625D86F050EB5
:1004B000DB50D721D96F0D0EEA6FEB975ADE220E73
:1004C000146E7F0E156E010E166EDFCF17F0186AD0
:1004D000196A060E0C6E0D6A0E6A17C007F018C076
:1004E00008F019C009F0E5ECBCF004C017F005C035
:1004F00018F006C019F014501724F36E1550182088
:10050000F46E16501920F86EF4CFF7FFF3CFF6FF14
:100510000800F5CFD3F202EC21F0DF2ABAD6FFD7DC
:100520000B0EE15C02E2E16AE552E16EE552E7CFD3
:10053000D9FF1200D9CFE6FFE1CFD9FFE652DF6A3B
:10054000DF50146E156A030E145C000E155801E39B
:10055000EDD0DFCFE6FFBEDDE5520D0E0201EA5D14
:1005600001E0E2D006DEF70EDB500201D35D01E0D0
:10057000DBD0180ED06F020ED16FFA0EDB5010E1F7
:10058000F80EDBCFBDF2F90EDBCFBEF2EB87040E27
:10059000EA6FF80EDBCFEDF2F90EDBCFEEF2C2D050
:1005A000000EAB5D040EAC5906E3880ED880AB5547
:1005B000130EAC5503E2AB6B040EAC6FABC2BDF2D5
:1005C000ACC2BEF2AB2B000EAC23F80EDBCFBBF2FD
:1005D000F90EDBCFBCF2DDECBAF006C0E2F207C0E8
:1005E000E3F208C0E4F209C0E5F20201EB89FA0E79
:1005F000DB50040A50E0070A1DE0020A03E0030A88
:1006000001E090D0FB0EDBCFC3F2FC0EDBCFC4F2D7
:10061000FD0EDBCFC5F2FE0EDBCFC6F2FA0EDB50CD
:10062000020802E0000E01D0010ECF95E8B0CF85A0
:10063000EA6B78D0FB0EDBCF18F0FC0EDBCF19F0A5
:10064000FD0EDB501824166EFE0EDB501920176EBF
:10065000F80EDB501624146EF90EDB501720156EC1
:100660001450BD19ED6F1550BE19EE6FFB0EDBCFA8
:10067000C3F2FC0EDBCFC4F2FD0EDBCFC5F2FE0EE3
:10068000DBCFC6F2D26B270EAD6FAE6BAF6BB06B2C
:10069000020EEA6F47D0FB0EDBCFE9FFFC0EDBCF8B
:1006A000EAFF020EE926000EEA22EECF18F0EFCFA5
:1006B00019F0FB0EDBCFE9FFFC0EDBCFEAFF185091
:1006C000EE24166E1950EE20176EF80EDB5016242D
:1006D000146EF90EDB501720156E1450BD19ED6F16
:1006E0001550BE19EE6F0A0EE66EE66AFB0EDBCF02
:1006F000E6FFFC0EDBCFE6FFC30EE66E020EE66EF3
:1007000080ECB4F0146E060EE15E14500201050E8A
:10071000EA6F010EE66E020EE66E03EC19F0E5528A
:10072000E55200D0DF5004D0DF2A0AD7FE0E00D0F9
:10073000E552E552E7CFD9FF1200D9CFE6FFE1CF6E
:10074000D9FFFE0EDB50146E156A030E145C000E0A
:10075000155802E3010E0DD0FE0EDBCFE6FFBADC2A
:10076000E5520201ECA903D0EC99010E02D0000E73
:1007700000D0E552E7CFD9FF1200D9CFE6FFE1CF95
:10078000D9FFFE0EDB50146E156A030E145C000ECA
:10079000155802E3000E0DD0FE0EDBCFE6FF9ADC0B
:1007A000E552070E0201EA5D02E0000E01D0010EE3
:1007B00000D0E552E7CFD9FF1200D9CFE6FFE1CF55
:1007C000D9FFFE0EDB50146E156A030E145C000E8A
:1007D000155801E365D0FE0EDBCFE6FF7BDCE5526A
:1007E000DEC2E0F2DFC2E1F20201EA51080A4EE0A5
:1007F000010A4CE0050A4AE0020A45E0050A2DE03C
:100800000D0A15E0010A13E0070A0EE0020A0CE0E7
:10081000010A0AE0060A08E0040A01E037D000EC09
:1008200091F002EC21F03CD002EC21F039D0010E25
:10083000E66E110EE66E03EC19F0E552E552020188
:10084000BF51C01101E106D0B951DA1902E1BA5124
:10085000DB19EDE1080EEA6F23D0010EE66E110EF2
:10086000E66E03EC19F0E552E5520201BF51C011EA
:1008700001E106D0B951DA1902E1BA51DB19EDE113
:100880000C0EEA6F0DD00D0EEA6F0AD0E66A140E58
:10089000E66E03EC19F0E552E55202EC21F000D0CF
:1008A000E552E7CFD9FF1200D9CFE6FFE1CFD9FF5C
:1008B000FE0EDB50146E156A030E145C000E155804
:1008C00001E30DD0FE0EDBCFE6FF6AEC00F0E5524F
:1008D0000201EB97FE0EDBCFE6FF6FDFE552E5523C
:1008E000E7CFD9FF1200D9CFE6FFE1CFD9FFFE0E47
:1008F000DB50146E156A030E145C000E155803E3EA
:10090000F36AF46A25D0FE0EDBCFE6FF6AEC00F056
:10091000E5522FDC0A0EE66EE66AC30EE66E020EA4
:10092000E66EF00EE66E020EE66E80ECB4F0146E2B
:10093000060EE15E1450BBC2FAF2BCC2FBF2F00E2E
:10094000146E020E156E14C0F3FF15C0F4FF00D034
:10095000E552E7CFD9FF1200D9CFE6FFE1CFD9FFAB
:10096000FE0EDB50146E156A030E145C000E155853
:1009700001E317D0FE0EDBCFE6FF6AEC00F0E55294
:10098000B9EC00F00201B951DA1902E1BA51DB19F0
:1009900008E0010EE66E100EE66E03EC19F0E5526B
:1009A000E552E552E7CFD9FF1200D9CFE6FFE1CFFC
:1009B000D9FFE652FE0EDB50146E156A030E145C6E
:1009C000000E155803E3F36AF46A40D0FE0EDBCF45
:1009D000E6FF6AEC00F0E552EAC2DFFF070EDF5CDB
:1009E00006E00B0EDF5C03E0F36AF46A2FD002012D
:1009F000DC51DA5DDD51DB591BE3D451D65D166E57
:100A0000D751D555176E1606000E175ADC51DA5D10
:100A1000186EDB51DD55196E1850165C146E1950A6
:100A20001758156E14C0F3FF15C0F4FF0FD00ED089
:100A3000DA51DC5D146EDD51DB55156E1406000EC7
:100A4000155A14C0F3FF15C0F4FF00D0E552E5526B
:100A5000E7CFD9FF1200D9CFE6FFE1CFD9FF020ED1
:100A6000E126FE0EDB50146E156A030E145C000EB8
:100A7000155802E3000E8DD0FE0EDBCFE6FF6AECC8
:100A800000F0E552FE0EDBCFE6FF8FDFE552F3CF3D
:100A9000DEFFF4CFDDFFD9CFE9FFDACFEAFFEE507A
:100AA000ED1003E1000E75D00ED0D9CFE9FFDACFFB
:100AB000EAFF010EEE1801E1ED5005E1FE0EDBCF7D
:100AC000E6FF4ADFE5520201EC51010B19E1DECFEE
:100AD00014F0DDCF15F0D451D65D166ED751D55533
:100AE000176ED890173216321450165C15501758DE
:100AF00007E3FE0EDBCFE6FF2FDFE5520201EC81BC
:100B0000010EE66EE66AE66ED950FD0FE66EFF0E48
:100B1000DA20E66EEFC2E6FFDAC2E6FFDBC2E6FFEE
:100B2000E5EC2DF0146E080EE15E14500201DA2B94
:100B3000000EDB23D651DA5DD751DB5904E3D4C272
:100B4000DAF2D5C2DBF2D9CFE9FFDACFEAFF010E44
:100B5000EE1801E1ED5006E1FE0EDBCFE6FFFCDE14
:100B6000E55215D0EBBB13D0EB8B04ECBBF006C009
:100B700014F007C015F0166A176A060E1426000E48
:100B800015221622172214C0E6F215C0E7F2010E54
:100B900000D0146E020EE15C02E2E16AE552E16E01
:100BA0001450E552E7CFD9FF1200D9CFE6FFE1CFCD
:100BB000D9FF060EE126040EDB6A050EDB6AFE0E87
:100BC000DB50146E156A030E145C000E155803E317
:100BD000F36AF46A0FD1FE0EDBCFE6FF6AEC00F099
:100BE000E552FE0EDBCFE6FFE0DEE552020EF3CF6C
:100BF000DBFF030EF4CFDBFFD950020FE96EDACF33
:100C0000EAFFEE50ED1008E1FE0EDBCFE6FFA4DEBA
:100C1000E552F36AF46AEED0020EDBCFDEFFDBCFE3
:100C2000DDFFDBCF14F0030EDBCF15F0FA0EDBCFC8
:100C300016F0FB0EDBCF17F01450165C155017584A
:100C400005E2FA0EDBCFDEFFDBCFDDFF0201EC5168
:100C5000010B1BE1020EDBCF14F0030EDBCF15F00E
:100C6000D451D65D166ED751D555176ED890173220
:100C700016321450165C1550175807E3FE0EDBCFE2
:100C8000E6FF6ADEE5520201EC81DE50DA25000162
:100C9000146EDD500201DB210001156E0201D651F8
:100CA000145CD751155848E3DA51D65D146ED7510C
:100CB000DB55156E040E14C0DBFF050E15C0DBFFFF
:100CC000040EDBCFE6FF050EDBCFE6FF010EE66E7E
:100CD000FC0EDBCFE6FFFD0EDBCFE6FFEFC2E6FF4B
:100CE000DAC2E6FFDBC2E6FFE5EC2DF0146E080E7B
:100CF000E15E1450040EDBCF14F0050EDBCF15F0CF
:100D0000D950FC0FE96EFF0EDA20EA6E1450EE2681
:100D10001550ED22040EDBCF14F0050EDBCF15F0DD
:100D2000D9CFE9FFDACFEAFF1450EE5E1550ED5A45
:100D3000D4C2DAF2D5C2DBF2DECFE6FFDDCFE6FFCA
:100D4000010EE66EFC0EDBCFE6FFFD0EDBCFE6FF0D
:100D5000EFC2E6FFDAC2E6FFDBC2E6FFE5EC2DF00C
:100D6000146E080EE15E1450D9CFE9FFDACFEAFF26
:100D7000EE500201DA27EE50DB23020EDBCF14F037
:100D8000030EDBCF15F0FA0EDBCF16F0FB0EDBCF38
:100D900017F01450165C1550175806E3FE0EDBCF03
:100DA000E6FFDADDE55215D0EBBB13D0EB8B04EC9C
:100DB000BBF006C014F007C015F0166A176A060EDD
:100DC0001426000E15221622172214C0E6F215C0B2
:100DD000E7F2040EDBCF16F0050EDBCF17F0DE5086
:100DE0001624146EDD501720156E14C0F3FF15C0C5
:100DF000F4FF00D0060EE15C02E2E16AE552E16E2A
:100E0000E552E7CFD9FF1200D9CFE6FFE1CFD9FFF6
:100E1000060EE126040EDB6A050EDB6AFE0EDB50D1
:100E2000146E156A030E145C000E155803E3F36A82
:100E3000F46A14D1FE0EDBCFE6FF6AEC00F0E55257
:100E4000FE0EDBCFE6FFB1DDE552020EF3CFDBFF96
:100E5000030EF4CFDBFFD950020FE96EDACFEAFFC1
:100E6000EE50ED1008E1FE0EDBCFE6FF75DDE5523A
:100E7000F36AF46AF3D00201EC51010B1BE1020E9C
:100E8000DBCF14F0030EDBCF15F0D451D65D166E18
:100E9000D751D555176ED890173216321450165CAC
:100EA0001550175807E3FE0EDBCFE6FF55DDE55280
:100EB0000201EC81020EDBCFDEFFDBCFDDFFDBCFFB
:100EC00014F0030EDBCF15F0F90EDBCF16F0FA0E9F
:100ED000DBCF17F01450165C1550175805E2F90EC9
:100EE000DBCFDEFFDBCFDDFFDE50DA250001146E45
:100EF000DD500201DB210001156E0201D651145CA8
:100F0000D75115584CE3DA51D65D146ED751DB55E5
:100F1000156E040E14C0DBFF050E15C0DBFF040EBA
:100F2000DBCFE6FF050EDBCFE6FFFB0EDBCFE6FFF8
:100F3000FC0EDBCFE6FFFD0EDBCFE6FFEFC2E6FFE8
:100F4000DAC2E6FFDBC2E6FF8AEC2EF0146E080E72
:100F5000E15E1450040EDBCF14F0050EDBCF15F06C
:100F6000166AD950FB0FE96EFF0EDA20EA6E1450B4
:100F7000EE261550EE221650EE22040EDBCF14F0B2
:100F8000050EDBCF15F0D9CFE9FFDACFEAFF145019
:100F9000EE5E1550ED5AD4C2DAF2D5C2DBF2DECFE6
:100FA000E6FFDDCFE6FFFB0EDBCFE6FFFC0EDBCF7F
:100FB000E6FFFD0EDBCFE6FFEFC2E6FFDAC2E6FF9B
:100FC000DBC2E6FF8AEC2EF0146E080EE15E1450D0
:100FD000D9CFE9FFDACFEAFFEE500201DA27EE506F
:100FE000DB23020EDBCF14F0030EDBCF15F0F90E7E
:100FF000DBCF16F0FA0EDBCF17F01450165C15504D
:10100000175806E3FE0EDBCFE6FFA6DCE55215D04F
:10101000EBBB13D0EB8B04ECBBF006C014F007C0A5
:1010200015F0166A176A060E1426000E15221622EF
:10103000172214C0E6F215C0E7F2040EDBCF16F05B
:10104000050EDBCF17F0DE501624146EDD5017208E
:10105000156E14C0F3FF15C0F4FF00D0060EE15C5E
:1010600002E2E16AE552E16EE552E7CFD9FF1200F4
:10107000D9CFE6FFE1CFD9FFFC0EDBCF16F0FD0E96
:10108000DBCF17F016C0E6FF17C0E6FFFC0EDBCF84
:10109000E6FFFD0EDBCFE6FF58ECB5F0E552E5527A
:1010A000F3CF18F0F4CF19F018C0E6FF19C0E6FF2F
:1010B000FC0EDBCFE6FFFD0EDBCFE6FFFE0EDBCF47
:1010C000E6FF73DD1A6E050EE15E1A50E552E7CFBA
:1010D00017F0E552E7CF16F01650F324146E1750B0
:1010E000F420156E14C0F3FF15C0F4FF00D0E552D4
:1010F000E7CFD9FF1200D9CFE6FFE1CFD9FFFB0E32
:10110000DBCFE6FFFC0EDBCFE6FFFD0EDBCFE6FF1D
:1011100066ECB5F0E552E552E55207C01AF008C09A
:101120001BF01AC0E6FF1BC0E6FFFB0EDBCFE6FF9D
:10113000FC0EDBCFE6FFFD0EDBCFE6FFFE0EDBCFC6
:10114000E6FF62DE1C6E060EE15E1C50F3CF17F068
:10115000F4CF18F0196AD950FB0FE96EFF0EDA20B0
:10116000EA6EEE501724146EEE501820156EEE50F5
:101170001920166E14C007F015C008F016C009F04B
:1011800000D0E552E7CFD9FF1200D9CFE6FFE1CF7B
:10119000D9FF040EE126FE0EDB50146E156A030E15
:1011A000145C000E155803E3F36AF46A31D0FE0EA6
:1011B000DBCFE6FF6AEC00F0E5520201D451D65DC8
:1011C000146ED751D555156E1406000E155A020E21
:1011D00014C0DBFF030E15C0DBFFFE0EDBCFE6FF06
:1011E000D5EC04F0E552F3CFDEFFF4CFDDFF020EC5
:1011F000DBCF16F0030EDBCF17F0DE50165C146E5B
:10120000DD501758156E14C0F3FF15C0F4FF00D061
:10121000040EE15C02E2E16AE552E16EE552E7CFDD
:10122000D9FF1200D9CFE6FFE1CFD9FFFE0EDBCF09
:10123000E6FF1ED8E552F3CF14F0F4CF15F01450AA
:10124000151012E0FE0EDBCFE6FF6AEC00F0E5526F
:10125000DEC2E0F2DFC2E1F2010EE66E100EE66ED3
:1012600003EC19F0E552E552E552E7CFD9FF120041
:10127000D9CFE6FFE1CFD9FFFE0EDB50146E156A21
:10128000030E145C000E155803E3F36AF46A33D0BE
:10129000FE0EDBCFE6FF6AEC00F0E5520201E05102
:1012A000DE5DE151DF590CE3E051DE5D146EDF518C
:1012B000E155156E14C0F3FF15C0F4FF1CD01BD010
:1012C000E051D85D166ED951E155176E010E162604
:1012D000000E1722D651DE5D186EDF51D755196EFC
:1012E00016501824146E17501920156E14C0F3FFF1
:1012F00015C0F4FF00D0E552E7CFD9FF1200D9CFD7
:10130000E6FFE1CFD9FF020EE126FE0EDBCFE6FFBE
:10131000AFDFE552F3CFDEFFF4CFDDFFD9CFE9FF3A
:10132000DACFEAFFEE50ED1002E1000E54D0FE0ECF
:10133000DBCFE6FF6AEC00F0E552D950FC0FE96E16
:10134000FF0EDA20EA6EEE50ED1016E0010EE66EAA
:10135000E66AEFC2E6FFE0C2E6FFE1C2E6FFE66E44
:10136000FC0EDBCFE6FFFD0EDBCFE6FFE5EC2DF05C
:10137000146E080EE15E14500201E02B000EE12312
:10138000E051D85DE151D95904E2D6C2E0F2D7C2AA
:10139000E1F2D9CFE9FFDACFEAFF010EEE1801E161
:1013A000ED5002E1EC8515D0EBBB13D0EB8B04ECD8
:1013B000BBF006C014F007C015F0166A176A1F0EBE
:1013C0001426000E15221622172214C0E6F215C0AC
:1013D000E7F2010E00D0146E020EE15C02E2E16A57
:1013E000E552E16E1450E552E7CFD9FF1200D9CF94
:1013F000E6FFE1CFD9FF040EE126020EDB6A030E01
:10140000DB6AFE0EDBCFE6FF33DFE552F3CFDEFF14
:10141000F4CFDDFFD9CFE9FFDACFEAFFEE50ED10D0
:1014200003E1F36AF46AFFD0FE0EDBCFE6FF6AEC5D
:1014300000F0E552FA0EDBCF14F0FB0EDBCF15F017
:10144000DECF16F0DDCF17F01450165C155017588C
:101450000AE2D9CFE9FFDACFEAFFFA0EEECFDBFFDF
:10146000FB0EEDCFDBFFFA0EDB500201E0250001A1
:10147000146EFB0EDB500201E1210001156E02012A
:101480001450D85D1550D95957E2E051D85D146E0B
:10149000D951E155156E010E1426000E1522020ECB
:1014A00014C0DBFF030E15C0DBFFD950FC0FE96E43
:1014B000FF0EDA20EA6EEE50ED102AE0020EDBCFCE
:1014C000E6FF030EDBCFE6FFEFC2E6FFE0C2E6FF7A
:1014D000E1C2E6FF010EE66EFC0EDBCFE6FFFD0E7D
:1014E000DBCFE6FFE5EC2DF0146E080EE15E145044
:1014F000020EDBCF14F0030EDBCF15F0D950FC0F3A
:10150000E96EFF0EDA20EA6E1450EE261550ED2239
:10151000020EDBCF14F0030EDBCF15F0D950FA0F1B
:10152000E96EFF0EDA20EA6E1450EE5E1550ED5AA9
:10153000D6C2E0F2D7C2E1F2D950FC0FE96EFF0E3D
:10154000DA20EA6EEE50ED101AE0FA0EDBCFE6FF7D
:10155000FB0EDBCFE6FFEFC2E6FFE0C2E6FFE1C233
:10156000E6FF010EE66EFC0EDBCFE6FFFD0EDBCFE5
:10157000E6FFE5EC2DF0146E080EE15E1450FA0E55
:10158000DBCF08F0FB0EDBCF09F008500201E027AB
:101590000950E123020EDBCF14F0030EDBCF15F070
:1015A000D950FA0FE96EFF0EDA20EA6E1450EE26DB
:1015B0001550ED22DECF16F0DDCF17F0FA0EDB501E
:1015C000165C146EFB0EDB501758156EFA0EDBCF4F
:1015D00018F0FB0EDBCF19F01450185C1550195899
:1015E00002E3EC8515D0EBBB13D0EB8B04ECBBF026
:1015F00006C014F007C015F0166A176A1F0E1426ED
:10160000000E15221622172214C0E6F215C0E7F2CA
:10161000FA0EDBCF14F0FB0EDBCF15F014C0F3FF96
:1016200015C0F4FF00D0040EE15C02E2E16AE5526D
:10163000E16EE552E7CFD9FF1200D9CFE6FFE1CF47
:10164000D9FF040EE126FE0EDB50146E156A030E60
:10165000145C000E155803E3F36AF46A2DD0FE0EF5
:10166000DBCFE6FF6AEC00F0E5520201D651D85D0F
:10167000146ED951D755156E020E14C0DBFF030E40
:1016800015C0DBFFFE0EDBCFE6FFF2DDE552F3CF48
:10169000DEFFF4CFDDFF020EDBCF16F0030EDBCF53
:1016A00017F0DE50165C146EDD501758156E14C01E
:1016B000F3FF15C0F4FF00D0040EE15C02E2E16A22
:1016C000E552E16EE552E7CFD9FF1200D9CFE6FF30
:1016D000E1CFD9FF060EE126FE0EDB50146E156A2F
:1016E000030E145C000E155809E2D950FA0FE96E8A
:1016F000FF0EDA20EA6EEE50ED1003E1F36AF46AB1
:10170000FDD0FE0EDBCFE6FF6AEC00F0E552FE0EE8
:10171000DBCFE6FFADDDE552020EF3CFDBFF030EBC
:10172000F4CFDBFFFA0EDBCF16F0FB0EDBCF17F0AA
:10173000F80EDB501624146EF90EDB501720156ED0
:10174000020EDBCF18F0030EDBCF19F01450185C3B
:101750001550195814E2020EDBCF16F0030EDBCF42
:1017600017F0F80EDB50165C146EF90EDB501758AC
:10177000156EFA0E14C0DBFFFB0E15C0DBFFF80E72
:10178000DB500201E0250001146EF90EDB5002016E
:10179000E1210001156E14C0DEFF15C0DDFFDECFB4
:1017A00014F0DDCF15F002011450D85D1550D95951
:1017B00012E2D651D85D146ED951D755156E010E6F
:1017C0001426000E1522D9CFE9FFDACFEAFF145014
:1017D000EE5E1550ED5ADE50D85D146EDD50D959CD
:1017E000156E010E1426000E1522040E14C0DBFF28
:1017F000050E15C0DBFFFA0EDBCF14F0FB0EDBCFBE
:1018000015F0040EDBCF16F0050EDBCF17F01450E9
:10181000165C155017581BE3FA0EDBCFE6FFFB0EE4
:10182000DBCFE6FFEFC2E6FFDECFE6FFDDCFE6FF70
:10183000010EE66EFC0EDBCFE6FFFD0EDBCFE6FF12
:10184000E5EC2DF0146E080EE15E14504CD0040E41
:10185000DBCFE6FF050EDBCFE6FFEFC2E6FFDECF14
:10186000E6FFDDCFE6FF010EE66EFC0EDBCFE6FF06
:10187000FD0EDBCFE6FFE5EC2DF0146E080EE15E09
:101880001450FA0EDBCF16F0FB0EDBCF17F0040E70
:10189000DB50165C146E050EDB501758156E14C025
:1018A000E6FF15C0E6FFEFC2E6FFD6C2E6FFD7C2ED
:1018B000E6FF010EE66E040EDBCF1AF0050EDBCF5D
:1018C0001BF0FC0EDB501A24186EFD0EDB501B20A3
:1018D000196E18C0E6FF19C0E6FFE5EC2DF01C6E8E
:1018E000080EE15E1C50FA0EDBCF14F0FB0EDBCFCE
:1018F00015F014C0F3FF15C0F4FF00D0060EE15C34
:1019000002E2E16AE552E16EE552E7CFD9FF12004B
:10191000D9CFE6FFE1CFD9FFE652FC0EDBCFE6FFE1
:10192000FD0EDBCFE6FF010EE66EE66AD9CFE6FFDD
:10193000DACFE6FFFE0EDBCFE6FFC8DE146E070E41
:10194000E15E1450DF5000D0E552E552E7CFD9FFF9
:101950001200D9CFE6FFE1CFD9FF300EE126FE0E0F
:10196000DB50146E156A030E145C000E155809E264
:10197000D950FA0FE96EFF0EDA20EA6EEE50ED1044
:1019800003E1F36AF46AF2D2FE0EDBCFE6FF6AEC03
:1019900000F0E552FE0EDBCFE6FF6ADCE552F3CF46
:1019A00016F0F4CF17F0F80EDB50165C146EF90E3B
:1019B000DB501758156E020E14C0DBFF030E15C066
:1019C000DBFF020EDBCF14F0030EDBCF15F0FA0EB7
:1019D000DBCF16F0FB0EDBCF17F01650145C175060
:1019E000155803E2F368F468C1D2D950F60FE96ED6
:1019F000FF0EDA20EA6EEE50ED101DE0020EDBCF96
:101A000014F0030EDBCF15F0F60EDBCF16F0F70E59
:101A1000DBCF17F01450165C155017580CE2F60E79
:101A2000DBCF08F0F70EDBCF09F0020E08C0DBFFBA
:101A3000030E09C0DBFFF80EDB500201E0250001B8
:101A4000146EF90EDB500201E1210001156E060E45
:101A500014C0DBFF070E15C0DBFF060EDBCF14F052
:101A6000070EDBCF15F002011450D85D1550D9597F
:101A700013E2D651D85D146ED951D755156E010EAB
:101A80001426000E1522D950060FE96EDACFEAFFB0
:101A90001450EE5E1550ED5A060EDBCFDEFFDBCFA5
:101AA000DDFFDB50D85D0001146E070EDB50020134
:101AB000D9590001156E010E1426000E1522040ED0
:101AC00014C0DBFF050E15C0DBFFF80EDBCF08F0FE
:101AD000F90EDBCF09F0060E08C0DBFF070E09C0C8
:101AE000DBFFFA0EDBCF08F0FB0EDBCF09F0080EB0
:101AF00008C0DBFF090E09C0DBFFFC0EDBCF08F0DE
:101B0000FD0EDBCF09F00A0E08C0DBFF0B0E09C08B
:101B1000DBFFFC0EDBCFE9FFDB2AFD0EDBCFEAFFAC
:101B200001E3DB2A0D0EEFCFDBFF0F0EDB6AF50EB4
:101B3000DB5016E0610EF36E0D0EDBCFF4FFF350B9
:101B4000F45C0EE30D0EDB507A080AE3E00E146E2F
:101B50000D0EDBCFE7FF1450E7260D0EE7CFDBFFBE
:101B6000200EF36E0E0EF3CFDBFFDBCF14F0040E6E
:101B7000DBCF15F0050EDBCF16F01450155C000E10
:101B8000165806E2040EDB50E76E0E0EE7CFDBFFC1
:101B90000E0EDBCF14F0020EDBCF15F0030EDBCF01
:101BA00016F01450155C000E165806E2020EDB50BB
:101BB000E76E0E0EE7CFDBFF0E0EDBCFE6FFE66A29
:101BC000EFC2E6FFDECFE6FFDDCFE6FF010EE66EF9
:101BD000D950100FE66E000EDA20E66EE5EC2DF01F
:101BE000146E080EE15E14500E0EDB50DE26000E61
:101BF000DD220E0EDB50146E156AD950040FE96E0B
:101C0000DACFEAFF1450EE5E1550ED5AD950040FAA
:101C1000E96EDACFEAFFEE50ED1008E1D6C2DEFF42
:101C2000D7C2DDFF040EDB68050EDB68F50EDB5066
:101C300001E1E5D00C0EDB6A0E0EDB50F36E0C0EEC
:101C4000DBCFF4FFF350F45C01E3D8D0D950100F90
:101C5000156EDACF16F00C0EDB500F011524E96E6D
:101C6000000E1620EA6EEFCF14F0610E145C1FE335
:101C7000D950100F176EDACF18F00C0EDB50172466
:101C8000E96E000E1820EA6EEF507A0810E3E00EBD
:101C9000166ED950100F146EDACF15F00C0EDB5003
:101CA0001424E96E000E1520EA6E1650EF26D95066
:101CB000100F146EDACF15F00C0EDB501424E96E01
:101CC000000E1520EA6EEF50F36E0D0EDB50F35C44
:101CD00053E1FA0EDB06DBCF14F0FB0E01E2DB066C
:101CE000DBCF15F0145015101FE1060EDBCF18F0F6
:101CF000070EDBCF19F0080EDB50185C166E090ECC
:101D0000DB501958176E0C0EDB5000011624146EB0
:101D1000000E1720156E010E1426000E152214C099
:101D2000F3FF15C0F4FF22D1FC0EDBCFE9FFDB2A65
:101D3000FD0EDBCFEAFF01E3DB2A0D0EEFCFDBFF69
:101D4000010EF36E0F0EF3CFDBFF610EF36E0D0E7F
:101D5000DBCFF4FFF350F45C0EE30D0EDB507A089A
:101D60000AE3E00E146E0D0EDBCFE7FF1450E726FA
:101D70000D0EE7CFDBFF3FD0080EDBCF08F0090EDA
:101D8000DBCF09F0FA0E08C0DBFFFB0E09C0DBFF5A
:101D90000F0EDB5030E00A0EDBCF08F00B0EDBCF6E
:101DA00009F0FC0E08C0DBFFFD0E09C0DBFFFC0ED6
:101DB000DBCFE9FFDB2AFD0EDBCFEAFF01E3DB2A05
:101DC0000D0EEFCFDBFF610EF36E0D0EDBCFF4FFD8
:101DD000F350F45C0EE30D0EDB507A080AE3E00EDC
:101DE000146E0D0EDBCFE7FF1450E7260D0EE7CF84
:101DF000DBFF0F0EDB6A0C0EDB2A1ED788D00C0E21
:101E0000DB6A0E0EDB50F36E0C0EDBCFF4FFF350EB
:101E1000F45C01E37CD0D950100F146EDACF15F0CA
:101E20000C0EDB500F011424E96E000E1520EA6E33
:101E3000EF50F36E0D0EDB50F35C3DE1FA0EDB0666
:101E4000DBCF14F0FB0E01E2DB06DBCF15F0145004
:101E500015101FE1060EDBCF18F0070EDBCF19F0CF
:101E6000080EDB50185C166E090EDB501958176E01
:101E70000C0EDB5000011624146E000E1720156E98
:101E8000010E1426000E152214C0F3FF15C0F4FF36
:101E90006DD0FC0EDBCFE9FFDB2AFD0EDBCFEAFFC6
:101EA00001E3DB2A0D0EEFCFDBFF010EF36E0F0E09
:101EB000F3CFDBFF29D0080EDBCF08F0090EDBCF14
:101EC00009F0FA0E08C0DBFFFB0E09C0DBFF0F0EA6
:101ED000DB501AE00A0EDBCF08F00B0EDBCF09F067
:101EE000FC0E08C0DBFFFD0E09C0DBFFFC0EDBCFE4
:101EF000E9FFDB2AFD0EDBCFEAFF01E3DB2A0D0E53
:101F0000EFCFDBFF0F0EDB6A0C0EDB2A7AD70E0E4B
:101F1000DB50146E156AD950020FE96EDACFEAFF72
:101F20001450EE5E1550ED5A020EDBCF14F0030E86
:101F3000DBCF15F0FA0EDBCF16F0FB0EDBCF17F080
:101F40001650145C1750155803E2F368F4680ED06D
:101F50000E0EDB50146E156AD950060FE96EDACFFB
:101F6000EAFF1450EE261550ED22FAD5300EE15C52
:101F700002E2E16AE552E16EE552E7CFD9FF1200D5
:101F8000D9CFE6FFE1CFD9FF310EE126FE0EDB50BF
:101F9000146E156A030E145C000E155809E2D95030
:101FA000F90FE96EFF0EDA20EA6EEE50ED1003E154
:101FB000F36AF46A22D3FE0EDBCFE6FF6AEC00F090
:101FC000E552FE0EDBCFE6FF38EC09F0E552F3CF29
:101FD00016F0F4CF17F0F70EDB50165C146EF80E07
:101FE000DB501758156E020E14C0DBFF030E15C030
:101FF000DBFF020EDBCF14F0030EDBCF15F0F90E82
:10200000DBCF16F0FA0EDBCF17F01650145C17502A
:10201000155803E2F368F468F0D2D950F50FE96E71
:10202000FF0EDA20EA6EEE50ED101DE0020EDBCF5F
:1020300014F0030EDBCF15F0F50EDBCF16F0F60E25
:10204000DBCF17F01450165C155017580CE2F50E44
:10205000DBCF08F0F60EDBCF09F0020E08C0DBFF85
:10206000030E09C0DBFFF70EDB500201E025000183
:10207000146EF80EDB500201E1210001156E060E10
:1020800014C0DBFF070E15C0DBFF060EDBCF14F01C
:10209000070EDBCF15F002011450D85D1550D95949
:1020A00013E2D651D85D146ED951D755156E010E75
:1020B0001426000E1522D950060FE96EDACFEAFF7A
:1020C0001450EE5E1550ED5A060EDBCFDEFFDBCF6F
:1020D000DDFFDB50D85D0001146E070EDB500201FE
:1020E000D9590001156E010E1426000E1522040E9A
:1020F00014C0DBFF050E15C0DBFFF70EDBCF08F0C9
:10210000F80EDBCF09F0060E08C0DBFF070E09C092
:10211000DBFFF90EDBCF08F0FA0EDBCF09F0080E7B
:1021200008C0DBFF090E09C0DBFFD950FB0FE96EC9
:10213000FF0EDA20EA6E0A0EEECFDBFF0B0EEECFBB
:10214000DBFF0C0EEECFDBFFD950FB0FE96EFF0E6D
:10215000DA20EA6EEFCFF6FFEE2AEFCFF7FF000EA0
:10216000EE22EFCFF8FFEE2208000E0EF5CFDBFFD8
:10217000100EDB6AF40EDB5016E0610EF36E0E0EED
:10218000DBCFF4FFF350F45C0EE30E0EDB507A0865
:102190000AE3E00E146E0E0EDBCFE7FF1450E726C5
:1021A0000E0EE7CFDBFF200EF36E0F0EF3CFDBFF3B
:1021B000DBCF14F0040EDBCF15F0050EDBCF16F0ED
:1021C0001450155C000E165806E2040EDB50E76E44
:1021D0000F0EE7CFDBFF0F0EDBCF14F0020EDBCFCD
:1021E00015F0030EDBCF16F01450155C000E1658D8
:1021F00006E2020EDB50E76E0F0EE7CFDBFF0F0E9D
:10220000DBCFE6FFE66AEFC2E6FFDECFE6FFDDCF1B
:10221000E6FF010EE66ED950110FE66E000EDA20D1
:10222000E66EE5EC2DF0146E080EE15E14500F0E14
:10223000DB50DE26000EDD220F0EDB50146E156A19
:10224000D950040FE96EDACFEAFF1450EE5E155054
:10225000ED5AD950040FE96EDACFEAFFEE50ED10D7
:1022600008E1D6C2DEFFD7C2DDFF040EDB68050E33
:10227000DB68F40EDB5001E1F7D00D0EDB6A0F0EC8
:10228000DB50F36E0D0EDBCFF4FFF350F45C01E393
:10229000EAD0D950110F156EDACF16F00D0EDB50C3
:1022A0000F011524E96E000E1620EA6EEFCF14F030
:1022B000610E145C1FE3D950110F176EDACF18F0BE
:1022C0000D0EDB501724E96E000E1820EA6EEF5059
:1022D0007A0810E3E00E166ED950110F146EDACFA3
:1022E00015F00D0EDB501424E96E000E1520EA6E79
:1022F0001650EF26D950110F146EDACF15F00D0ECF
:10230000DB501424E96E000E1520EA6EEF50F36ED8
:102310000E0EDB50F35C5BE1F90EDB06DBCF14F055
:10232000FA0E01E2DB06DBCF15F0145015101FE1A9
:10233000060EDBCF18F0070EDBCF19F0080EDB50CE
:10234000185C166E090EDB501958176E0D0EDB5017
:1023500000011624146E000E1720156E010E1426AF
:10236000000E152214C0F3FF15C0F4FF46D1D9505A
:10237000FB0FE96EFF0EDA20EA6EEFCFF6FFEE2AD2
:10238000EFCFF7FF000EEE22EFCFF8FFEE220800AE
:102390000E0EF5CFDBFF010EF36E100EF3CFDBFF59
:1023A000610EF36E0E0EDBCFF4FFF350F45C0EE320
:1023B0000E0EDB507A080AE3E00E146E0E0EDBCF31
:1023C000E7FF1450E7260E0EE7CFDBFF49D0080EDB
:1023D000DBCF08F0090EDBCF09F0F90E08C0DBFFF8
:1023E000FA0E09C0DBFF100EDB503AE0D9500A0F9D
:1023F000E96EDACFEAFFFB0EEECFDBFFFC0EEECF8D
:10240000DBFFFD0EEECFDBFFD950FB0FE96EFF0EB9
:10241000DA20EA6EEFCFF6FFEE2AEFCFF7FF000EDD
:10242000EE22EFCFF8FFEE2208000E0EF5CFDBFF15
:10243000610EF36E0E0EDBCFF4FFF350F45C0EE38F
:102440000E0EDB507A080AE3E00E146E0E0EDBCFA0
:10245000E7FF1450E7260E0EE7CFDBFF100EDB6A16
:102460000D0EDB2A0CD79AD00D0EDB6A0F0EDB5057
:10247000F36E0D0EDBCFF4FFF350F45C01E38ED06E
:10248000D950110F146EDACF15F00D0EDB500F017D
:102490001424E96E000E1520EA6EEF50F36E0E0E56
:1024A000DB50F35C45E1F90EDB06DBCF14F0FA0EEE
:1024B00001E2DB06DBCF15F0145015101FE1060E0C
:1024C000DBCF18F0070EDBCF19F0080EDB50185CDD
:1024D000166E090EDB501958176E0D0EDB500001F9
:1024E0001624146E000E1720156E010E1426000E11
:1024F000152214C0F3FF15C0F4FF7FD0D950FB0F95
:10250000E96EFF0EDA20EA6EEFCFF6FFEE2AEFCF8C
:10251000F7FF000EEE22EFCFF8FFEE2208000E0EBE
:10252000F5CFDBFF010EF36E100EF3CFDBFF33D0E0
:10253000080EDBCF08F0090EDBCF09F0F90E08C05A
:10254000DBFFFA0E09C0DBFF100EDB5024E0D95090
:102550000A0FE96EDACFEAFFFB0EEECFDBFFFC0ECF
:10256000EECFDBFFFD0EEECFDBFFD950FB0FE96EA8
:10257000FF0EDA20EA6EEFCFF6FFEE2AEFCFF7FF7D
:10258000000EEE22EFCFF8FFEE2208000E0EF5CF80
:10259000DBFF100EDB6A0D0EDB2A68D70F0EDB5057
:1025A000146E156AD950020FE96EDACFEAFF1450A3
:1025B000EE5E1550ED5A020EDBCF14F0030EDBCFAA
:1025C00015F0F90EDBCF16F0FA0EDBCF17F0165030
:1025D000145C1750155803E2F368F4680ED00F0E20
:1025E000DB50146E156AD950060FE96EDACFEAFF98
:1025F0001450EE261550ED22D6D5310EE15C02E2E4
:10260000E16AE552E16EE552E7CFD9FF1200D9CF7A
:10261000E6FFE1CFD9FFF80EDBCFE6FFF90EDBCF07
:10262000E6FFFA0EDBCFE6FFFB0EDBCFE6FFFC0E8C
:10263000DBCFE6FF010EE66EE66AD950FD0FE66ECF
:10264000FF0EDA20E66EFE0EDBCFE6FFA9EC0CF003
:10265000146E0A0EE15E145000D0E552E7CFD9FFA8
:102660001200D9CFE6FFE1CFD9FF0A0EE126DF6ADB
:10267000DF50146E156A030E145C000E155801E34A
:10268000F0D3DFCFE6FF6AEC00F0E552030EDB6A21
:10269000010EDB6A020EDB6A0201EC51020B03E160
:1026A000EC51040B12E0BEEC8AF000090EE0100EB3
:1026B000F36E030EF3CFDBFF0201EC51040B01E0DC
:1026C000010EE76E010EE7CFDBFF0201EBAB15D089
:1026D00004ECBBF002010650E65D146E0750E759AA
:1026E000156E153404E214500008000E155405E36D
:1026F000100EF36E030EF3CFDBFFEBAD15D004EC41
:10270000BBF002010650E85D146E0750E959156EE2
:10271000153404E214500008000E155405E3100EA1
:10272000F36E030EF3CFDBFF0B0EEA5D17E104EC53
:10273000BBF002010650E85D146E0750E959156EB2
:10274000153404E214500008000E155407E3110E6E
:10275000F36E030EF3CFDBFF0C0EEA6F040EEA5D9F
:1027600001E02ED1040EDB6A050EDB6A040EDBCF1E
:1027700014F0050EDBCF15F0030E145C000E155897
:1027800001E31ED1040EDBCFE9FF050EDBCFEAFF2C
:10279000140EEA02F3CFEAFFE902F3CFE9FFF450A7
:1027A000EA26000EE9260F0EEA22100EE926000E98
:1027B000EA22EE50ED1001E103D1040EDBCFE9FF78
:1027C000050EDBCFEAFF140EEA02F3CFEAFFE902BF
:1027D000F3CFE9FFF450EA26000EE9260F0EEA22B5
:1027E000100EE926000EEA22EECF14F0EFCF15F01E
:1027F000ED51141802E1EE51151801E0DBD0B9ECEF
:1028000000F00A0EE66EE66A040EDBCFE9FF050E65
:10281000DBCFEAFF140EEA02F3CFEAFFE902F3CFBF
:10282000E9FFF450EA26000EE9260F0EEA22E9CF6E
:1028300014F0EACF15F014C0E6FF15C0E6FFC30E92
:10284000E66E020EE66E80ECB4F0166E060EE15EE9
:102850001650040EDBCFE9FF050EDBCFEAFF140EA6
:10286000EA02F3CFEAFFE902F3CFE9FFF450EA26E8
:10287000000EE9260F0EEA220A0EE926000EEA22D1
:10288000EECFBBF2EDCFBCF2040EDBCFE9FF050EBD
:10289000DBCFEAFF140EEA02F3CFEAFFE902F3CF3F
:1028A000E9FFF450EA26000EE9260F0EEA220C0E8C
:1028B000E926000EEA22EECFB5F2EECFB6F2EECF69
:1028C000B7F2EFCFB8F20201B52BB623B723B82386
:1028D000C551C325166EC651C421176E1650BB25AF
:1028E000146E1750BC21156E1450BD19ED6F1550A4
:1028F000BE19EE6F120EF36E030EF3CFDBFF060E62
:10290000EA6F040EDBCF14F0050EDBCF15F0020EDC
:10291000D8801456000E1556140E1502F3CF15F07C
:102920001402F3CF14F0F450152614C0E6FF15C0BE
:10293000E6FF010EE66EE76E040EDBCF16F0050E25
:10294000DBCF17F0E7501626000E1722140E1702E1
:10295000F3CF17F01602F3CF16F0F4501726000E3F
:1029600016260F0E172216C0E6FF17C0E6FF010E4F
:10297000E66E040EDBCF18F0050EDBCF19F0140E57
:102980001902F3CF19F01802F3CF18F0F4501926FA
:10299000000E18260F0E192218C0E6FF19C0E6FF18
:1029A000E5EC2DF01A6E080EE15E1A500F01386B3F
:1029B000396B06D0040EDB2A050E01E3DB2AD6D6DE
:1029C000030EDB500EE0010EDB5002E0000E01D0E2
:1029D000010EE66E030EDBCFE6FF03EC19F0E552C5
:1029E000E5520201EBB952D0070EEA5D4EE1DDEC93
:1029F000BAF00201E251065C146EE3510758156EFD
:102A0000E4510858166EE5510958176E0001800E02
:102A1000171401E023D20201EB51070B060819E15C
:102A2000EB51080B01E0010EE76E030EE7CFDBFF71
:102A3000DFCFE6FFDDEC03F0E552DFCFE6FFDDECB4
:102A400003F0E552030EDB5003E102010E0EEA6FC4
:102A500005D2B9EC00F0020EE66E100EE66ED3DB86
:102A6000E552E552DDECBAF006C0E2F207C0E3F24F
:102A700008C0E4F209C0E5F2740E0201E227350E47
:102A8000E323060EE423000EE523E8D1DDECBAF0E3
:102A90000201E251065C146EE3510758156EE451D1
:102AA0000858166EE5510958176E0001800E17146C
:102AB00001E0D4D1B9EC00F00201EA510C0A01E1C5
:102AC00056D1060A01E13CD1030A01E12ED1010AE7
:102AD00001E114D10F0A01E1FDD00C0A01E1FAD0A5
:102AE0000D0A01E1D8D0030A01E1C0D0060A01E1D4
:102AF00088D0010A74E0030A25E0010A01E04ED102
:102B0000F7EC90F000091DE00201010EEA6FCFA57D
:102B10000ED0E66EC3C2E6FFC4C2E6FFC5C2E6FF42
:102B200043EC91F0E552E552E552E5520AD0E66EEB
:102B3000C3C2E6FFC4C2E6FF14EC91F0E552E552D1
:102B4000E5522CD1D950060FE66E000EDA20E66E63
:102B500077EC91F0E552E552000940E000EC91F08D
:102B6000000928E0060EDBCFC3F2070EDBCFC4F26C
:102B7000080EDBCFC5F2090EDBCFC6F20201020E52
:102B8000EA6FC551C325166EC651C421176E165083
:102B9000BB25146E1750BC21156E1450BD19ED6F76
:102BA0001550BE19EE6FD26B270EAD6FAE6BAF6BCB
:102BB000B06B14D0DDECBAF006C0E2F207C0E3F26D
:102BC00008C0E4F209C0E5F2740E0201E227350EF6
:102BD000E323060EE423000EE523EA6BDFD004ECCA
:102BE000BBF006C0E6F207C0E7F2C30EE66E020EC7
:102BF000E66ECFECA8F0E552E5520201030EEA6F53
:102C0000CDD0C70EE66E020EE66EC30EE66E020E65
:102C1000E66E3CECA9F0E552E552E552E5520009BA
:102C20001AE104ECBBF00201E651065C146EE751B8
:102C30000758156E1450AD5D1550AE590BE2060ED7
:102C4000D25D06E2D22BD890AD37AE37AF37B03772
:102C5000020EEA6FA3D0020EF36E030EF3CFDBFF7A
:102C6000010EDB6A0201050EEA6F98D0020EF36EC8
:102C7000030EF3CFDBFFDE52010EDD6E040ED25DDC
:102C800009E3040ED26F200EAD6FEF0EAE6F090E8A
:102C9000AF6FB06B83D0020ED25D09E2120EF36EFD
:102CA000030EF3CFDBFFDE52010EDD6E12D0EBA779
:102CB0000BD0140EF36E030EF3CFDBFF010EF36E99
:102CC000020EF3CFDBFF05D0020EF36E030EF3CF3F
:102CD000DBFF64D0050ED25D09E2100EF36E030E29
:102CE000F3CFDBFFDE52010EDD6E07D0080EEA6F78
:102CF000110EF36E030EF3CFDBFF50D0050ED25D45
:102D000009E2110EF36E030EF3CFDBFFDE52010E6C
:102D1000DD6E0AD0140EF36E030EF3CFDBFF010E4F
:102D2000F36E020EF3CFDBFF39D0140EF36E030EF9
:102D3000F3CFDBFF010EF36E020EF3CFDBFF2ED0DD
:102D4000050ED25D09E2100EF36E030EF3CFDBFF2A
:102D5000DE52010EDD6E0AD0140EF36E030EF3CFB9
:102D6000DBFF010EF36E020EF3CFDBFF17D0050E73
:102D7000D25D09E2110EF36E030EF3CFDBFFDE52DC
:102D8000010EDD6E0AD0140EF36E030EF3CFDBFFDF
:102D9000010EF36E020EF3CFDBFF00D0030EDB500B
:102DA00058E0010EDB504DE00201D22BD890AD3738
:102DB000AE37AF37B037DC51B95D146EBA51DD555F
:102DC000156E040E14C0DBFF050E15C0DBFFDC51D1
:102DD000B95DDD51BA590FE2D451D65D146ED751A9
:102DE000D555156ED950040FE96EDACFEAFF1450AD
:102DF000EE261550ED22040EDBCF14F0050EDBCFCE
:102E000015F0166A176A1450B15F1550B25B165070
:102E1000B35B1750B45B040EDBCF08F0050EDBCFBD
:102E200009F00850BF270950C023DCC2B9F2DDC247
:102E3000BAF2E66A030EDBCFE6FFE5D9E552E552CA
:102E400008D0010EE66E030EDBCFE6FFDCD9E552BB
:102E5000E552020EDB5002E002EC21F0DF2A38EFEF
:102E600013F0040EDB6A050EDB6A040EDBCF14F0F0
:102E7000050EDBCF15F0030E145C000E155801E3B0
:102E8000B1D0040EDBCFE9FF050EDBCFEAFF140E55
:102E9000EA02F3CFEAFFE902F3CFE9FFF450EA26B2
:102EA000000EE9260F0EEA22100EE926000EEA2295
:102EB000EE50ED1001E196D0040EDBCFE9FF050ED8
:102EC000DBCFEAFF140EEA02F3CFEAFFE902F3CF09
:102ED000E9FFF450EA26000EE9260F0EEA22120E50
:102EE000E926000EEA22EECF16F0EFCF17F016C05B
:102EF000E6FF17C0E6FF04ECBBF0E552E7CF17F0A2
:102F0000E552E7CF16F01650065C146E17500758BE
:102F1000156EDC0ED8801454010E15545DE2040EBB
:102F2000DBCF14F0050EDBCF15F0020ED88014565F
:102F3000000E1556140E1502F3CF15F01402F3CF40
:102F400014F0F450152614C0E6FF15C0E6FF010E7C
:102F5000E66EE76E040EDBCF16F0050EDBCF17F042
:102F6000E7501626000E1722140E1702F3CF17F0A3
:102F70001602F3CF16F0F4501726000E16260F0E89
:102F8000172216C0E6FF17C0E6FF010EE66E040E1C
:102F9000DBCF18F0050EDBCF19F0140E1902F3CFBA
:102FA00019F01802F3CF18F0F4501926000E182665
:102FB0000F0E192218C0E6FF19C0E6FFE5EC2DF050
:102FC0001A6E080EE15E1A500F01386B396B040E51
:102FD000DB06050E01E2DB06040EDB2A050E01E32B
:102FE000DB2A43D70A0EE15C02E2E16AE552E16EB8
:102FF000E552E7CFD9FF1200D9CFE6FFE1CFD9FFE5
:10300000250EE126FD0EDBCFE9FFFE0EDBCFEAFF4A
:10301000140EEECFDBFF150EEECFDBFF160EEECF5C
:10302000DBFF170EEECFDBFFFB0EDBCFE9FFFC0E65
:10303000DBCFEAFF180EEECFDBFF190EEECFDBFF82
:103040001A0EEECFDBFF1B0EEECFDBFF1C0EDB6A92
:10305000060EF36E1D0EF3CFDBFFF90EDBCF08F08B
:10306000FA0EDBCF09F01E0E08C0DBFF1F0E09C0F1
:10307000DBFF1E0EDBCFE6FF1F0EDBCFE6FFDDEC36
:103080007EF0E552E5521E0EF3CFDBFF1F0EF4CFAC
:10309000DBFF0C0EE66EE66AD950140FE66E000EEA
:1030A000DA20E66E5AEC7FF0E552E552E552E55241
:1030B000F3CF14F0F4CF15F0141E151E200E14C01B
:1030C000DBFF210E15C0DBFFF90EDBCFE6FFFA0EAA
:1030D000DBCFE6FFAAEC8DF0E552E552220EF3CFEE
:1030E000DBFF230EF4CFDBFF200EDBCF14F0210E2D
:1030F000DBCF15F0220EDB50141803E1230EDB505A
:10310000151804E0DBEC8AF0010E71D0000EE66EBB
:10311000E66AD7ECB1F0E552E552140EE66EE66AC7
:10312000D9CFE6FFDACFE6FFEEEC8FF0E552E552BD
:10313000E552E552D9CFE6FFDACFE6FFEAEC1FF021
:10314000E552E552D9500C0FE96EDACFEAFFEF50A5
:10315000F00BE842E842E842E842040DF350146EF6
:10316000156A140E145E000E155A240E14C0DBFFEF
:10317000DB50166E176AF90EDBCF08F0FA0EDBCFC4
:1031800009F01650085C146E17500958156E140E8D
:10319000145E000E155AF90E14C0DBFFFA0E15C0AE
:1031A000DBFFFD0EDBCFE6FFFE0EDBCFE6FFD9CF68
:1031B000E6FFDACFE6FFDBEC1CF0E552E552E55224
:1031C000E552000910E0F90EDBCFE6FFFA0EDBCF87
:1031D000E6FFD9CFE6FFDACFE6FFFFEC21F0E552BC
:1031E000E552E552E552DBEC8AF0010E00D0146E98
:1031F000250EE15C02E2E16AE552E16E1450E5520F
:10320000E7CFD9FF1200D9CFE6FFE1CFD9FF280ED3
:10321000E126B9EC00F0FE0EDBA004D00201EC8741
:10322000FE0EDB900201EB9BEB9DEB9FEC93EC958C
:10323000EC91BEEC8AF0000901E1FBD7FE0EDB50F9
:10324000060B05E0260EDB6A270EDB6A57D102016A
:10325000B951DA1902E1BA51DB1905E1260EDB6A30
:10326000270EDB6A2FD1DA51B95DDB51BA5952E230
:10327000B951DA5D146EDB51BA55156E260E14C0C5
:10328000DBFF270E15C0DBFF260EDBCF14F0270E69
:10329000DBCF15F01450BF5D1550C05906E2260E65
:1032A000BFC2DBFF270EC0C2DBFF260EDBCF14F050
:1032B000270EDBCF15F01450D05D1550D15907E221
:1032C000260ED0C2DBFF270ED1C2DBFFEC85260E17
:1032D000DBCFE6FF270EDBCFE6FFEFC2E6FFB9C28A
:1032E000E6FFBAC2E6FFE66A3F0EE66E090EE66E3C
:1032F000E5EC2DF0146E080EE15E1450260EDBCFC7
:1033000008F0270EDBCF09F008500201B927095059
:10331000BA23D8D0B951D65D146ED751BA55156EAF
:10332000240E14C0DBFF250E15C0DBFF240EDB507E
:10333000DA250001166E250EDB500201DB210001AB
:10334000176E0201D451165C146ED5511758156EC4
:10335000260E14C0DBFF270E15C0DBFF260EDBCFC9
:1033600014F0270EDBCF15F01450BF5D1550C05977
:1033700006E2260EBFC2DBFF270EC0C2DBFF260E11
:10338000DBCF14F0270EDBCF15F01450D05D1550B5
:10339000D15907E2260ED0C2DBFF270ED1C2DBFFD8
:1033A000EC85240EDBCF14F0250EDBCF15F0260EB6
:1033B000DBCF16F0270EDBCF17F01450165C15503C
:1033C00017580CE2260EDBCF08F0270EDBCF09F0F2
:1033D000240E08C0DBFF250E09C0DBFF240EDBCF67
:1033E000E6FF250EDBCFE6FFEFC2E6FFB9C2E6FF40
:1033F000BAC2E6FFE66A3F0EE66E090EE66EE5EC3F
:103400002DF0146E080EE15E1450260EDBCF16F080
:10341000270EDBCF17F0240EDB50165C146E250E42
:10342000DB501758156E240E14C0DBFF250E15C097
:10343000DBFFD950240FE96EDACFEAFFEE50ED1032
:1034400027E0240EDBCFE6FF250EDBCFE6FFEFC241
:10345000E6FFD4C2E6FFD5C2E6FFE66A0201B95133
:10346000D65D146ED751BA55156E166A176A3F0E9F
:103470001426090E1522000E1622172214C0E6FF8C
:1034800015C0E6FFE5EC2DF0186E080EE15E185051
:10349000260EDBCF08F0270EDBCF09F00850020123
:1034A000B9270950BA23D651B95DD751BA590AE3A1
:1034B000D451D65D146ED751D555156E1450B95FE1
:1034C0001550BA5BECA71AD0260EDBCF14F0270EEE
:1034D000DBCF15F0BF51141802E1C05115180EE0F2
:1034E000260EDBCF16F0270EDBCF17F0D0511618C3
:1034F00002E1D151171802E0FE0EDB80D950260FF1
:10350000E96EDACFEAFFEE50ED1004E1FE0EDB507B
:10351000030B30E0260EDBCF08F0270EDBCF09F0DF
:1035200008500201BF5F0950C05BD950260FE96EF9
:10353000DACFEAFFEE50ED1002E0FE0EDB86FD0E64
:10354000DBA007D0D26BF20EAD6F9E0EAE6FAF6BED
:10355000B06BDDECBAF006500201AD25E26F07500A
:10356000AE21E36F0850AF21E46F0950B021E56F41
:10357000EB893ED0FD0EDBA21FD0EB0EE96E020EF2
:10358000EA6EEF50070BE82AF36EF350070BF36E69
:10359000F46EF80EEF14F310EF6EF4500201B10761
:1035A000000EB25BB35BB45B010EF36E260EF3CF7D
:1035B000DBFF270EDB6A1CD00201EBA919D0DBB0C0
:1035C00008D0D25106E0D207D890B033AF33AE3333
:1035D000AD33DDECBAF006500201AD25E26F0750C5
:1035E000AE21E36F0850AF21E46F0950B021E56FC1
:1035F000020EBDC2DBFF030EBEC2DBFF040EBBC268
:10360000DBFF050EBCC2DBFF060EB1C2DBFF070EFF
:10361000B2C2DBFF080EB3C2DBFF090EB4C2DBFF90
:103620000A0EB5C2DBFF0B0EB6C2DBFF0C0EB7C233
:10363000DBFF0D0EB8C2DBFF0F0EDB9CDB9E0E0E18
:10364000DB90DB92DB94DB96FE0EDB50E76E0F0E19
:10365000E7CFDBFF140EDB6A150EDB6A260EDBCF2D
:1036600014F0270EDBCF15F0000114500201B12732
:10367000000115500201B223000EB323B423FE0E45
:10368000DBA21DD0DBB808D00A0EDB6A0B0EDB6AAA
:103690000C0EDB6A0D0EDB6ACFA30BD0D950060FE0
:1036A000E96EDACFEAFFEE06000EEE5AEE5AEE5A57
:1036B00006D0B12B000EB223B323B423CF83FE0E6A
:1036C000DBB0CF81E051DE5DE151DF5919E3D65126
:1036D000D85D166ED951D755176EE051DE5D186E64
:1036E000DF51E155196E1850165C146E19501758B9
:1036F000156E100E14C0DBFF110E15C0DBFF0FD0CE
:10370000DE51E05D146EE151DF55156E1406000EBA
:10371000155A100E14C0DBFF110E15C0DBFF23EC91
:103720008BF0F3CFDEFFF4CFDDFFDECF14F0DDCF83
:1037300015F0400E145C000E155803E2DE6ADD6AD7
:1037400008D0D9CFE9FFDACFEAFF400EEE5E000ED7
:10375000ED5A100EDBCF14F0110EDBCF15F0DECFDB
:1037600016F0DDCF17F01450165C155017580AE20A
:10377000D9CFE9FFDACFEAFF100EEECFDBFF110E53
:10378000EDCFDBFFD950020FE66E000EDA20E66EB9
:10379000EAEC1FF0E552E552D950260FE96EDACF78
:1037A000EAFF140EEE26000EED220E0EDB88DB9AE9
:1037B000DB8CDB9EFE0EDBA236D0D950260FE96EE5
:1037C000DACFEAFF040EEE26000EED22020EF36EB3
:1037D000160EF3CFDBFF040EF36E170EF3CFDBFFF5
:1037E000020EF36E180EF3CFDBFFF36E190EF3CF5C
:1037F000DBFF010E146ED9500E0FE96EDACFEAFF2F
:10380000EF50F00BE842E842E842E84214240F0B84
:10381000F36EF46EF346F346F346F3460F0EEF14E1
:10382000F310EF6EF4501A0E00CEDBFF1B0E01CE2C
:10383000DBFF1C0E02CEDBFF1D0E03CEDBFF1E0ED8
:10384000C3C2DBFF1F0EC4C2DBFF200EC5C2DBFFFD
:10385000210EC6C2DBFF220EDB6A060EF36E230EBC
:10386000F3CFDBFF260EDBCF08F0270EDBCF09F00E
:10387000240E08C0DBFF250E09C0DBFF240EDBCFC2
:10388000E6FF250EDBCFE6FFDDEC7EF0E552E552EC
:10389000240EF3CFDBFF250EF4CFDBFF0C0EE66E1C
:1038A000E66AD9501A0FE66E000EDA20E66E5AEC80
:1038B0007FF0E552E552E552E552F3CF14F0F4CF34
:1038C00015F0141E151E120E14C0DBFF130E15C0CA
:1038D000DBFF170EE66E090EE66E03EC8DF0E55287
:1038E000E552260EDBCFE6FF270EDBCFE6FF060E06
:1038F000E66EC30EE66E020EE66E25ECB1F0146EB7
:10390000050EE15E1450140EE66EE66AD950020F01
:10391000E66E000EDA20E66E4BEC90F0E552E552D2
:10392000E552E552FE0EDBA20FD0040EE66EE66A0B
:10393000D950160FE66E000EDA20E66E4BEC90F0D2
:10394000E552E552E552E5522B0EE66E090EE66EA3
:1039500026EC8DF0E552E552260EDBCFE6FF270E72
:10396000DBCFE6FFAAEC8DF0E552E552F3CFDEFFA8
:10397000F4CFDDFF3B0EE66E090EE66E03EC8DF034
:10398000E552E552020EE66EE66AD9CFE6FFDACFDF
:10399000E6FF4BEC90F0E552E552E552E552A8EC1B
:1039A0008CF0280EE15C02E2E16AE552E16EE5523C
:1039B000E7CFD9FF1200D9CFE6FFE1CFD9FF060E3E
:1039C000E126FD0EDBCFE9FFFE0EDBCFEAFF020EA4
:1039D000E926000EEA22EE50ED1002E1000EEED2D2
:1039E000DE52FE0EDD6EFB0EDBCFE9FFFC0EDBCF01
:1039F000EAFF020EE926000EEA22EECF1AF0EFCF20
:103A00001BF0FB0EDBCFE9FFFC0EDBCFEAFF1A5009
:103A1000EE24186E1B50EE20196EFD0EDBCFE9FF71
:103A2000FE0EDBCFEAFF1850EE24166E1950EE2082
:103A3000176EFD0EDBCFE9FFFE0EDBCFEAFF020EB5
:103A4000E926000EEA221650EE18146E1750EE18F2
:103A5000156E020E14C0DBFF030E15C0DBFFDF6A1C
:103A6000DF50146E156A030E145C000E155872E2D6
:103A7000DFCFE6FF6AEC00F0E5520D0E0201EA5DD1
:103A800002E166D029D0040EEA5D19E1FD0EDBCF1C
:103A9000E9FFFE0EDBCFEAFF020EE926000EEA2266
:103AA000EECF14F0EFCF15F01450ED1902E11550E0
:103AB000EE1903E1010EDFCFDBFF4AD00DD0EDC2DE
:103AC00014F0EEC215F0020EDB50141803E1030EE1
:103AD000DB50151801E03CD0B9EC00F0FD0EDBCF57
:103AE000E9FFFE0EDBCFEAFF020EE926000EEA2216
:103AF000EECF14F0EFCF15F00201BD51141802E122
:103B0000BE51151825E1FD0EDBCFE9FFFE0EDBCF20
:103B1000EAFFEECF16F0EFCF17F0BB51161802E117
:103B2000BC51171815E1FB0EDBCFE9FFFC0EDBCF14
:103B3000EAFFEE50C31909E1EE50C41906E1EE5058
:103B4000C51903E1EE50C61900E102E1010E36D2BB
:103B5000DF2A86D7010EDB50FE0843E0010EDBCFE3
:103B6000E6FF6AEC00F0E552B9EC00F0010EDB5024
:103B7000FE0837E0020EDBCFEDF2030EDBCFEEF2F4
:103B80000A0EE66EE66AFB0EDBCFE6FFFC0EDBCF2D
:103B9000E6FFC30EE66E020EE66E80ECB4F0146E25
:103BA000060EE15E1450FD0EDBCFE9FFFE0EDBCF0B
:103BB000EAFFEECFBBF2EDCFBCF2FD0EDBCFE9FFAB
:103BC000FE0EDBCFEAFF020EE926000EEA22EECF60
:103BD000BDF2EDCFBEF2D4C2B9F2D5C2BAF2010E37
:103BE000EDD1FD0EDBCFE9FFFE0EDBCFEAFF0D0EC0
:103BF000E926000EEA22EF50020B02E1000EDED1B0
:103C00000F013851391102E0000ED8D1040EDB6AE1
:103C1000050EDB6A040EDBCF14F0050EDBCF15F0CA
:103C2000030E145C000E155801E3CFD0040EDBCF59
:103C3000E9FF050EDBCFEAFF140EEA02F3CFEAFF3D
:103C4000E902F3CFE9FFF450EA26000EE9260F0E51
:103C5000EA22100EE926000EEA22EE50ED1001E1F4
:103C6000B4D0040EDBCFE9FF050EDBCFEAFF140E64
:103C7000EA02F3CFEAFFE902F3CFE9FFF450EA26C4
:103C8000000EE9260F0EEA22100EE926000EEA22A7
:103C9000EECF14F0EFCF15F0FD0EDBCFE9FFFE0EF7
:103CA000DBCFEAFF020EE926000EEA22EECF16F085
:103CB000EFCF17F01650141802E11750151801E055
:103CC0007ED0040EDBCFE9FF050EDBCFEAFF140E3A
:103CD000EA02F3CFEAFFE902F3CFE9FFF450EA2664
:103CE000000EE9260F0EEA220A0EE926000EEA224D
:103CF000EECF14F0EFCF15F0FD0EDBCFE9FFFE0E97
:103D0000DBCFEAFFEECF16F0EFCF17F01650141806
:103D100002E11750151801E052D0FB0EDBCFE9FF8E
:103D2000FC0EDBCFEAFFEECF14F0EECF15F0EECFB6
:103D300016F0EFCF17F0040EDBCFE9FF050EDBCF57
:103D4000EAFF140EEA02F3CFEAFFE902F3CFE9FF3C
:103D5000F450EA26000EE9260F0EEA22EE5000018A
:103D6000141809E1EE50151806E1EE50161803E19B
:103D7000EE50171800E101E022D004ECBBF006C0C1
:103D800014F007C015F0040EDBCFE9FF050EDBCF02
:103D9000EAFF140EEA02F3CFEAFFE902F3CFE9FFEC
:103DA000F450EA26000EE9260F0EEA22120EE9264A
:103DB000000EEA2214C0EEFF15C0EDFFFFD0040E86
:103DC000DB2A050E01E3DB2A25D7DF6ADF50146EFC
:103DD000156A030E145C000E155801E3EDD0DFCF19
:103DE000E6FF6AEC00F0E5520201EBA7E3D0B9EC84
:103DF00000F0FD0EDBCFE9FFFE0EDBCFEAFF020E87
:103E0000E926000EEA22EECF14F0EFCF15F01450A1
:103E10000201BD1902E11550BE1901E0CBD00A0E16
:103E2000E66EE66AFB0EDBCFE6FFFC0EDBCFE6FFBD
:103E3000040EDBCFE9FF050EDBCFEAFF140EEA022A
:103E4000F3CFEAFFE902F3CFE9FFF450EA26000ED0
:103E5000E9260F0EEA22E9CF14F0EACF15F014C0DC
:103E6000E6FF15C0E6FF80ECB4F0166E060EE15ECC
:103E70001650FD0EDBCFE9FFFE0EDBCFEAFFEECFE3
:103E800014F0EFCF15F0040EDBCFE9FF050EDBCF0A
:103E9000EAFF140EEA02F3CFEAFFE902F3CFE9FFEB
:103EA000F450EA26000EE9260F0EEA220A0EE92651
:103EB000000EEA2214C0EEFF15C0EDFFFD0EDBCFB1
:103EC000E9FFFE0EDBCFEAFF040EE926000EEA2230
:103ED000EECF14F0EECF15F0EECF16F0EFCF17F0D7
:103EE000040EDBCFE9FF050EDBCFEAFF140EEA027A
:103EF000F3CFEAFFE902F3CFE9FFF450EA26000E20
:103F0000E9260F0EEA220C0EE926000EEA2214C062
:103F1000EEFF15C0EEFF16C0EEFF17C0EEFFFD0E60
:103F2000DBCFE9FFFE0EDBCFEAFF020EE926000E33
:103F3000EA22EECF14F0EFCF15F0040EDBCFE9FF4D
:103F4000050EDBCFEAFF140EEA02F3CFEAFFE90227
:103F5000F3CFE9FFF450EA26000EE9260F0EEA221D
:103F6000100EE926000EEA2214C0EEFF15C0EDFF88
:103F700004ECBBF006C014F007C015F0040EDBCF54
:103F8000E9FF050EDBCFEAFF140EEA02F3CFEAFFEA
:103F9000E902F3CFE9FFF450EA26000EE9260F0EFE
:103FA000EA22120EE926000EEA2214C0EEFF15C026
:103FB000EDFF04D0DF2A0AD7000E00D0146E060EE3
:103FC000E15C02E2E16AE552E16E1450E552E7CFAE
:103FD000D9FF1200D9CFE6FFE1CFD9FFFD0EDBCF2D
:103FE000E9FFFE0EDBCFEAFFEECFE6FFEFCFE6FF05
:103FF000DDEC7EF0E552E552F3CF14F0F4CF15F08E
:10400000FD0EDBCFE9FFFE0EDBCFEAFF14C0EEFFB3
:1040100015C0EDFFFD0EDBCFE9FFFE0EDBCFEAFFA3
:10402000020EE926000EEA22EECFE6FFEFCFE6FF12
:10403000DDEC7EF0E552E552F3CF14F0F4CF15F04D
:10404000FD0EDBCFE9FFFE0EDBCFEAFF020EE92615
:10405000000EEA2214C0EEFF15C0EDFFFD0EDBCF0F
:10406000E9FFFE0EDBCFEAFF040EE926000EEA228E
:10407000EECFE6FFEECFE6FFEECFE6FFEFCFE6FFB7
:1040800007EC7FF0E552E552E552E55206C014F028
:1040900007C015F008C016F009C017F0FD0EDBCF01
:1040A000E9FFFE0EDBCFEAFF040EE926000EEA224E
:1040B00014C0EEFF15C0EEFF16C0EEFF17C0EEFFF6
:1040C000FD0EDBCFE9FFFE0EDBCFEAFF080EE9268F
:1040D000000EEA22EECFE6FFEECFE6FFEECFE6FFE0
:1040E000EFCFE6FF07EC7FF0E552E552E552E552EF
:1040F00006C014F007C015F008C016F009C017F08C
:10410000FD0EDBCFE9FFFE0EDBCFEAFF080EE9264E
:10411000000EEA2214C0EEFF15C0EEFF16C0EEFF3F
:1041200017C0EEFFFD0EDBCFE9FFFE0EDBCFEAFF8F
:104130000E0EE926000EEA22EECFE6FFEFCFE6FFF5
:10414000DDEC7EF0E552E552F3CF14F0F4CF15F03C
:10415000FD0EDBCFE9FFFE0EDBCFEAFF0E0EE926F8
:10416000000EEA2214C0EEFF15C0EDFFFD0EDBCFFE
:10417000E9FFFE0EDBCFEAFF100EE926000EEA2271
:10418000EECFE6FFEFCFE6FFDDEC7EF0E552E55245
:10419000F3CF14F0F4CF15F0FD0EDBCFE9FFFE0EE8
:1041A000DBCFEAFF100EE926000EEA2214C0EEFF74
:1041B00015C0EDFFFD0EDBCFE9FFFE0EDBCFEAFF02
:1041C000120EE926000EEA22EECFE6FFEFCFE6FF61
:1041D000DDEC7EF0E552E552F3CF14F0F4CF15F0AC
:1041E000FD0EDBCFE9FFFE0EDBCFEAFF120EE92664
:1041F000000EEA2214C0EEFF15C0EDFFE552E7CF36
:10420000D9FF1200B9EC00F0BDC2EDF2BEC2EEF271
:10421000D4C2DAF2D5C2DBF2D4C2DCF2D5C2DDF20E
:10422000D6C2DEF2D7C2DFF2D6C2E0F2D7C2E1F2E6
:104230000201EB51080B02E0040E01D00D0EEA6FF3
:10424000EB91EB93EB95EB99EB9BEB9DEB9FEC915B
:10425000EC93EC95EC97EC89CF91CF93CF97CF99D6
:10426000D4C2B9F2D5C2BAF24AEC78F0F3CFB1F2C7
:10427000F4CFB2F24AEC78F0F3CFB3F2F4CFB4F269
:104280000201CD69CE69010EBF6FC06B1200D9CF9C
:10429000E6FFE1CFD9FF040EE1260C0EE66EE66ADA
:1042A000D7ECB1F0E552E552EBEC8FF0DF6EF00E9B
:1042B000DF14E840E8403F0B146E156A140E145EDC
:1042C000000E155A1450DF6EDF5005E1180EF36E24
:1042D000020EF46E8AD0070EE66EE66A000EE66EF7
:1042E000E66AEEEC8FF0E552E552E552E552DF501A
:1042F000DF06000975E0EBEC8FF0E76E010EE7CF0B
:10430000DBFFDB5001E16CD0010EDB0401E1EFD7F4
:10431000010EDB50020845E1030EDF5C01E260D0D4
:10432000020EDB6A030EDB6AEBEC8FF0E76E010E28
:10433000E7CFDBFFDB5004080CE1EBEC8FF0E76E1E
:10434000030EE7CFDBFFEBEC8FF0E76E020EE7CF5B
:10435000DBFF020EDBCF14F0030EDBCF15F0180EDF
:10436000145C020E155801E23BD0D950020FE96EE1
:10437000DACFEAFFB40ED880EE54050EED5406E213
:10438000B40EF36E050EF46E30D029D0020EDBCFE2
:1043900014F0030EDBCF15F014C0F3FF15C0F4FFCB
:1043A00024D0020EDF5C01E21BD0EBEC8FF0E76E55
:1043B000010EE7CFDBFFDB50DF5C01E211D0010E25
:1043C000DBCFE6FFE66A000EE66EE66AEEEC8FF003
:1043D000E552E552E552E552010EDB50DF5E87D72C
:1043E000180EF36E020EF46E00D0040EE15C02E2D1
:1043F000E16AE552E16EE552E7CFD9FF1200D9CF6D
:10440000E6FFE1CFD9FF1C0EE126FD0EDBCFE9FF71
:10441000FE0EDBCFEAFF0D0EE926000EEA220E0E9D
:10442000EFCFDBFFFD0EDBCFE9FFFE0EDBCFEAFFB8
:10443000080EE926000EEA220F0EEECFDBFF100E6B
:10444000EECFDBFF110EEECFDBFF120EEECFDBFF68
:10445000FD0EDBCFE9FFFE0EDBCFEAFF040EE926FF
:10446000000EEA22130EEECFDBFF140EEECFDBFFC1
:10447000150EEECFDBFF160EEECFDBFF0201EB9148
:10448000EB93EB95EBB913D0DDECBAF006C0E2F29A
:1044900007C0E3F208C0E4F209C0E5F2740E0201BD
:1044A000E227350EE323060EE423000EE523EA514E
:1044B000050A5CE0010A15E0FB0EDBCF08F0FC0EFC
:1044C000DBCF09F0170E08C0DBFF180E09C0DBFFB9
:1044D0000E0EDBA0EAD0170EDB2A180E01E2E5D0A3
:1044E000E3D00E0EDBA403D08DDE3BEF2CF0DBA877
:1044F00016D00F0EDBCFB1F2100EDBCFB2F2110EE1
:10450000DBCFB3F2120EDBCFB4F2E66A040EE66E36
:1045100003EC19F0E552E55275DE3BEF2CF0DBA21F
:1045200022D0130EDBCFB5F2140EDBCFB6F2150E90
:10453000DBCFB7F2160EDBCFB8F2B52B000EB623E9
:10454000B723B823A4DEF3CFD0F2F4CFD1F2010E1B
:10455000E66E120EE66E03EC19F0E552E55202012A
:10456000060EEA6F01D04EDE3BEF2CF00E0EDBA400
:1045700002D03BEF2CF0DBA840D0D9500F0FE96EF2
:10458000DACFEAFFEE50B11909E1EE50B21906E1B7
:10459000EE50B31903E1EE50B41900E12EE0130E12
:1045A000B1C2DBFF140EB2C2DBFF150EB3C2DBFFDC
:1045B000160EB4C2DBFF0F0EDBCFB1F2100EDBCF55
:1045C000B2F2110EDBCFB3F2120EDBCFB4F2010E5A
:1045D000E66E040EE66E03EC19F0E552E552130E9A
:1045E000DBCFB1F2140EDBCFB2F2150EDBCFB3F29C
:1045F000160EDBCFB4F23BEF2CF00E0EDBA252D046
:10460000130EDBCFB5F2140EDBCFB6F2150EDBCFF7
:10461000B7F2160EDBCFB8F2B52B000EB623B723D8
:10462000B823FD0EDBCFE9FFFE0EDBCFEAFF0E0E57
:10463000E926000EEA22EECFBFF2EDCFC0F227DE70
:10464000F3CFD0F2F4CFD1F20E0EDBA820D0010EC2
:10465000E66E100EE66E03EC19F0E552E55202012B
:10466000070EEA6FDDECBAF006C0E2F207C0E3F233
:1046700008C0E4F209C0E5F2740E0201E227350E2B
:10468000E323060EE423000EE523EB990BD0010E85
:10469000E66E120EE66E03EC19F0E552E5520201E9
:1046A000060EEA6F3BEF2CF0DB2A0E0EDBA205D0E4
:1046B000170EDB2A180E01E3DB2AE051DE5DE15123
:1046C000DF5919E3D651D85D166ED951D755176EFB
:1046D000E051DE5D186EDF51E155196E1850165C21
:1046E000146E19501758156E0C0E14C0DBFF0D0E0A
:1046F00015C0DBFF0FD0DE51E05D146EE151DF55D8
:10470000156E1406000E155A0C0E14C0DBFF0D0EAC
:1047100015C0DBFFD950130FE96EDACFEAFFB551B0
:10472000EE5C146EB651EE58156EB751EE58166E1B
:10473000B851EE58176E060E14C0DBFF070E15C0F9
:10474000DBFF080E16C0DBFF090E17C0DBFF060EED
:10475000DBCF08F0070EDBCF09F00A0E08C0DBFF45
:104760000B0E09C0DBFF190EDB6AD950170FE96E7B
:10477000DACFEAFFEE50ED1001E1C3D0D9500C0FB3
:10478000E96EDACFEAFFEE50ED1001E1B9D0D95071
:10479000060FE96EDACFEAFFD890030EEB50000A5D
:1047A00008E6000EEE5C000EEE58000EEE58000E0D
:1047B000EE581CE30C0EDBCF14F00D0EDBCF15F022
:1047C000166A176AD950060FE96EDACFEAFF14505D
:1047D000EE5C1550EE581650EE581750EE5806E2A3
:1047E000010EF36E190EF3CFDBFF53D0170EDBCFA4
:1047F00014F0180EDBCF15F0166A176AD950060FA1
:10480000E96EDACFEAFFEE501426EE501522EE5094
:104810001622EE5017221734000E171809E6D8801A
:10482000000E1454000E1554000E1654000E1754AA
:1048300030E20C0EDBCF1CF00D0EDBCF1DF0170E9F
:10484000DB501C5C186E180EDB501D58196E1A6A6E
:104850001B6A19AE02D01A681B68D950060FE96EA0
:10486000DACFEAFF030EEBCFF3FF1B50F318E8AEED
:1048700002D0F33408D0EE50185CEE501958EE50C8
:104880001A58EE501B5805E3010EF36E190EF3CFC4
:10489000DBFF0C0EDBCF14F00D0EDBCF15F0166A2C
:1048A000176AD950060FE96EDACFEAFF030EEB5014
:1048B0001718E8AE02D0173408D01450EE5C15502B
:1048C000EE581650EE581750EE581AE2170EDBCF7E
:1048D0001AF0180EDBCF1BF00A0EDB501A24186EEC
:1048E0000B0EDB501B20196E193404E2185000081F
:1048F000000E195405E2010EF36E190EF3CFDBFF23
:1049000045D0060EDBCF14F0070EDBCF15F0080EF6
:10491000DBCF16F0090EDBCF17F014501510161070
:10492000171006E1010EF36E190EF3CFDBFF2ED048
:10493000D950060FE96EDACFEAFFD890030EEB509C
:10494000000A08E6000EEE5C000EEE58000EEE586F
:10495000000EEE581BE30C0EDBCF14F00D0EDBCF78
:1049600015F0166A176AD950060FE96EDACFEAFF1A
:104970001450EE5C1550EE581650EE581750EE5885
:1049800005E2010EF36E190EF3CFDBFF190EDB50BB
:104990000DE10E0EDBB408D0010EE66E100EE66ED1
:1049A00003EC19F0E552E5523BEF2CF00E0EDB5014
:1049B000060B03E027DC3BEF2CF00E0EDBB802D039
:1049C0003BEF2CF0EA510C0A01E129D30B0A4DE030
:1049D0000F0A4BE0010A49E0020A47E0010A45E0FC
:1049E0000C0A01E03FD3D9500F0FE96EDACFEAFF8E
:1049F000EE50B11909E1EE50B21906E1EE50B319CB
:104A000003E1EE50B41900E12EE0130EB1C2DBFF5A
:104A1000140EB2C2DBFF150EB3C2DBFF160EB4C21A
:104A2000DBFF0F0EDBCFB1F2100EDBCFB2F2110EB7
:104A3000DBCFB3F2120EDBCFB4F2010EE66E040E42
:104A4000E66E03EC19F0E552E552130EDBCFB1F23E
:104A5000140EDBCFB2F2150EDBCFB3F2160EDBCFA6
:104A6000B4F23BEF2CF0070EEA6FB951DA5D146E29
:104A7000DB51BA55156E040E14C0DBFF050E15C0D0
:104A8000DBFF040EDBCF14F0050EDBCF15F00001C9
:104A9000800E151410E00201D451D65D146ED7516A
:104AA000D555156ED950040FE96EDACFEAFF1450D0
:104AB000EE261550ED22040EDBCF14F0050EDBCFF1
:104AC00015F0166A176AB10EE96E020EEA6EEE5024
:104AD0001426EE501522EE501622EE50172214C066
:104AE000DFFF010E15C0DBFF020E16C0DBFF030E59
:104AF00017C0DBFF0F0EDBCF18F0100EDBCF19F065
:104B0000110EDBCF1AF0120EDBCF1BF0D9CFE9FF6D
:104B1000DACFEAFFEE50185C146EEE501958156E9D
:104B2000EE501A58166EEE501B58176E14C0DFFF69
:104B3000010E15C0DBFF020E16C0DBFF030E17C00F
:104B4000DBFFDECF07F0DECF08F0DECF09F0DDCFF0
:104B50000AF0DD52DD520A34000E0A1809E6D88048
:104B6000000E0754000E0854000E0954000E0A549B
:104B700025E20201CF51010B0DE0D9CFE9FFDACFD9
:104B8000EAFF010EEE1805E1EE5003E1EE5001E1FF
:104B9000EE500AE0E66A100EE66E03EC19F0E552FC
:104BA000E5523BEF2CF00AD0D9500F0FE96EDACF67
:104BB000EAFFEE06000EEE5AEE5AEE5A0201DC5102
:104BC000B95D186EBA51DD55196E1A6A1B6A19AEB5
:104BD00002D01A681B681850B15D146E1950B25992
:104BE000156E1A50B359166E1B50B459176E14C077
:104BF000DFFF010E15C0DBFF020E16C0DBFF030E48
:104C000017C0DBFFDC51B95DDD51BA5914E2D45154
:104C1000D65D146ED751D555156E166A176AD9CF61
:104C2000E9FFDACFEAFF1450EE5E1550EE5A165047
:104C3000EE5A1750EE5A0F0EDBCF18F0100EDBCFE6
:104C400019F0110EDBCF1AF0120EDBCF1BF0D9CF0B
:104C5000E9FFDACFEAFFEE50185C146EEE501958F7
:104C6000156EEE501A58166EEE501B58176E14C083
:104C7000DFFF010E15C0DBFF020E16C0DBFF030EC7
:104C800017C0DBFFDECF07F0DECF08F0DECF09F084
:104C9000DDCF0AF0DD52DD520A34000E0A1809E6B3
:104CA000D880000E0754000E0854000E0954000E60
:104CB0000A5401E3A2D0D451D65D146ED751D55514
:104CC000156E166A176AD9CFE9FFDACFEAFFEE5000
:104CD000145CEE501558EE501658EE50175801E27D
:104CE0008CD0CF97CF99EC91040EDCC2DBFF050E80
:104CF000DDC2DBFFD9CFE9FFDACFEAFFEE50DC27D8
:104D0000EE50DD23040EDBCF14F0050EDBCF15F0E3
:104D10001450B95D1550BA591BE3DC51B95DDD5132
:104D2000BA5915E2B951DC5D146EDD51BA55156EF4
:104D3000000114500201B127000115500201B223F5
:104D4000000EB323B423DCC2B9F2DDC2BAF236D00E
:104D5000D451D65D166ED751D555176EB95116245C
:104D6000146EBA511720156E040E14C0DBFF050E29
:104D700015C0DBFF040EDBCF14F0050EDBCF15F002
:104D8000DC51145CDD51155819E2040EDB50DC5D7A
:104D90000001146E050EDB500201DD590001156E95
:104DA00014500201B127000115500201B223000E78
:104DB000B323B423DCC2B9F2DDC2BAF2D651DC5D52
:104DC000D751DD590AE3D451D65D146ED751D5556C
:104DD000156E1450DC5F1550DD5BD651B95DD751AF
:104DE000BA590AE3D451D65D146ED751D555156E14
:104DF0001450B95F1550BA5B3ED0B951DC1902E1CD
:104E0000BA51DD1938E0CFA735D0CFA932D0DC5167
:104E1000B95D146EBA51DD55156E166A176A15AE76
:104E200002D0166817681450B15F1550B25B165067
:104E3000B35B1750B45BDC51B95DDD51BA5914E274
:104E4000D451D65D146ED751D555156E166A176AB2
:104E500015AE02D0166817681450B15F1550B25BDA
:104E60001650B35B1750B45BDCC2B9F2DDC2BAF2C4
:104E7000EC85CF89CF87DA51DC1902E1DB51DD19EE
:104E80002EE1ECB715D0DDECBAF006C0E2F207C0B7
:104E9000E3F208C0E4F209C0E5F2740E0201E22771
:104EA000350EE323060EE423000EE523EB9917D01D
:104EB000D9500F0FE96EDACFEAFFB151EE1809E1D0
:104EC000B251EE1806E1B351EE1803E1B451EE18F9
:104ED00000E105E1CF51010B02E0EB99EC97D950CD
:104EE0000F0FE96EDACFEAFFEE50B15D166EEE50AD
:104EF000B259176EEE50B359186EEE50B459196E80
:104F0000FD0EDBCFE9FFFE0EDBCFEAFF0E0EE9263A
:104F1000000EEA221650EE5C146E1750EE58156E15
:104F20001A0E14C0DBFF1B0E15C0DBFFBF51C011F2
:104F300009E1D9501A0FE96EDACFEAFFEE50ED1011
:104F400001E0EC831A0EDBCFBFF21B0EDBCFC0F209
:104F5000080EEA5D2CE1D9500F0FE96EDACFEAFFB7
:104F6000B151EE1809E1B251EE1806E1B351EE1855
:104F700003E1B451EE1800E119E1CF51010B16E045
:104F8000DDECBAF006C0E2F207C0E3F208C0E4F2DA
:104F900009C0E5F2BA0E0201E2271A0EE323030E5E
:104FA000E423000EE523EB89090EEA6F37D0090EE2
:104FB000EA5D1BE10E0EDBB017D00F0EDBCFB1F2B6
:104FC000100EDBCFB2F2110EDBCFB3F2120EDBCF3D
:104FD000B4F2E66A140EE66E03EC19F0E552E552FF
:104FE00002EC21F03BEF2CF019D00A0EEA5D16E13D
:104FF000D9500F0FE96EDACFEAFFB151EE1809E18F
:10500000B251EE1806E1B351EE1803E1B451EE18B7
:1050100000E102E102EC21F03BEF2CF024D0B1C220
:1050200014F0B2C215F0B3C216F0B4C217F0142ACD
:10503000000E152216221722D9500F0FE96EDACF73
:10504000EAFF1450EE1809E11550EE1806E116506B
:10505000EE1803E11750EE1800E102E102EC21F036
:105060003BEF2CF000D00E0EDBAA02D03BEF2CF071
:105070000B0EEA5D02E13BEF2CF00A0EEA5D02E165
:105080003BEF2CF00C0EEA5D02E13BEF2CF0D95027
:10509000FB0FE96EFF0EDA20EA6EEE50ED1001E133
:1050A00031D30A0EDBCF14F00B0EDBCF15F0153425
:1050B00004E214500008000E155401E250D1FD0E18
:1050C000DBCFE9FFFE0EDBCFEAFF0C0EE926000E78
:1050D000EA22EF50F00BE842E842E842E842040DD1
:1050E000F350166E176A0A0EDB50165C146E0B0E28
:1050F000DB501758156E14C0E6FF15C0E6FFD7EC5D
:10510000B1F0E552E5520A0EDBCF14F00B0EDBCF07
:1051100015F0D950FB0FE96EFF0EDA20EA6E14503D
:10512000EE261550ED22FB0EDBCF14F0FC0EDBCF8C
:1051300015F00C0EDBCF16F00D0EDBCF17F0145070
:10514000165C155017580CE20C0EDBCF08F00D0E54
:10515000DBCF09F0FB0E08C0DBFFFC0E09C0DBFF54
:10516000FB0EDBCF14F0FC0EDBCF15F0000114506A
:105170000201B527000115500201B623000EB72326
:10518000B823FB0EDB50DE250001146EFC0EDB5055
:105190000201DF210001156E02011450D85D155087
:1051A000D9595CE2DE51D85D146ED951DF55156EC8
:1051B000010E1426000E1522040E14C0DBFF050E8E
:1051C00015C0DBFF040EDBCFE6FF050EDBCFE6FFED
:1051D000E66AE668E668EFC2E6FFDEC2E6FFDFC227
:1051E000E6FFE5EC2DF0146E080EE15E1450FB0EA8
:1051F000DBCF16F0FC0EDBCF17F0040EDB50165C95
:10520000146E050EDB501758156E14C0E6FF15C05E
:10521000E6FFE66AE668E668EFC2E6FFD6C2E6FFAA
:10522000D7C2E6FFE5EC2DF0186E080EE15E1850CF
:10523000FB0EDBCF16F0FC0EDBCF17F0040EDB50BD
:10524000165C146E050EDB501758156E0201D65110
:105250001424DE6FD7511520DF6F20D0FB0EDBCF7B
:10526000E6FFFC0EDBCFE6FFE66AE668E668EFC223
:10527000E6FFDEC2E6FFDFC2E6FFE5EC2DF0146ECE
:10528000080EE15E1450FB0EDBCF08F0FC0EDBCF06
:1052900009F008500201DE270950DF23CD1D01E18E
:1052A000CE1D5CE0FB0EDBCF08F0FC0EDBCF09F07F
:1052B0000850CD5F0950CE5BC151CD25146EC2514F
:1052C000CE21156E040E14C0DBFF050E15C0DBFFEA
:1052D000040EDBCF14F0050EDBCF15F00001800EBD
:1052E000151404E00201CD69CE6938D00201CE3533
:1052F00004E2CD510008000ECE5530E3040EDBCFA2
:1053000014F0050EDBCF15F0000114500201B52793
:10531000000115500201B623000EB723B823040E76
:10532000DBCF08F0050EDBCF09F00850DE2709506F
:10533000DF23DE51D85DDF51D9590EE2D651D85D59
:10534000146ED951D755156E010E1426000E152274
:105350001450DE5F1550DF5BCD69CE69D3D10A0EE4
:10536000DBCF14F00B0EDBCF15F0153404E2145034
:105370000008000E155401E3C5D10A0EDBCF16F06C
:105380000B0EDBCF17F0FB0EDB501624146EFC0E59
:10539000DB501720156E0C0EDBCF18F00D0EDBCF97
:1053A00019F01450185C1550195814E20C0EDBCF8C
:1053B00016F00D0EDBCF17F00A0EDB50165C146EE4
:1053C0000B0EDB501758156EFB0E14C0DBFFFC0EE6
:1053D00015C0DBFFFD0EDBCFE9FFFE0EDBCFEAFFE2
:1053E0000C0EE926000EEA22EF50F00BE842E842EC
:1053F000E842E842040DF350E66EE66AD7ECB1F0FD
:10540000E552E5520A0EDB500201DE250001166E60
:105410000B0EDB500201DF210001176EFB0EDB508B
:105420001624146EFC0EDB501720156E020114506A
:10543000D85D1550D95901E395D0DE51D85D166E6F
:10544000D951DF55176E010E1626000E17220A0ECF
:10545000DB50165C146E0B0EDB501758156E040EE5
:1054600014C0DBFF050E15C0DBFF040EDBCF14F00C
:10547000050EDBCF15F00001800E151441E1040E7E
:10548000DBCFE6FF050EDBCFE6FFE66AE668E668FF
:10549000EFC2E6FF0A0EDB500201DE250001146EAA
:1054A0000B0EDB500201DF210001156E14C0E6FF78
:1054B00015C0E6FF8ADB166E080EE15E1650FB0E85
:1054C000DBCF16F0FC0EDBCF17F0040EDB50165CC2
:1054D000146E050EDB501758156E14C0E6FF15C08C
:1054E000E6FFE66AE668E668EFC2E6FFD6C2E6FFD8
:1054F000D7C2E6FF6ADB186E080EE15E185031D0A5
:10550000FB0EDBCFE6FFFC0EDBCFE6FFE66AE668CC
:10551000E668EFC2E6FF0A0EDB500201DE2500015D
:10552000166E0B0EDB500201DF210001176E020127
:10553000D651D85D186ED951D755196E010E18265F
:10554000000E19221850165C146E19501758156E5B
:1055500014C0E6FF15C0E6FF38DB1A6E080EE15EE8
:105560001A501FD0FB0EDBCFE6FFFC0EDBCFE6FFB1
:10557000E66AE668E668EFC2E6FF0A0EDB50DE2563
:105580000001146E0B0EDB500201DF210001156ECD
:1055900014C0E6FF15C0E6FF18DB166E080EE15ECC
:1055A00016500201CD1D01E1CE1D0DE10A0EDBCF2B
:1055B000CDF20B0EDBCFCEF2FB0EDBCFC1F2FC0E39
:1055C000DBCFC2F29FD00A0EDBCF14F00B0EDBCF85
:1055D00015F0CD51145CCE5115584CE2FB0EDBCFCB
:1055E00016F0FC0EDBCF17F00A0EDB501624146EFB
:1055F0000B0EDB501720156ECD51C125186ECE5104
:10560000C221196E1450185C1550195813E3FB0E83
:10561000DBCF1CF0FC0EDBCF1DF00A0EDB501C2490
:105620001A6E0B0EDB501D201B6ECD511A5CCE5135
:105630001B5807E2FB0EDBCFC1F2FC0EDBCFC2F240
:1056400012D0CD51C125146ECE51C221156E0A0E55
:10565000DB500001145C0201C16F0B0EDB50000136
:1056600015580201C26F0A0EDBCFCDF20B0EDBCF55
:10567000CEF248D0FB0EDBCF16F0FC0EDBCF17F0DE
:105680000A0EDB501624146E0B0EDB501720156E1D
:10569000CD51C125186ECE51C221196E1450185C1F
:1056A000155019582FE20A0EDBCF14F00B0EDBCF8A
:1056B00015F0CD51C125166ECE51C221176E145072
:1056C000165C155017581EE3FB0EDBCF1AF0FC0ECC
:1056D000DBCF1BF00A0EDB501A24186E0B0EDB50CA
:1056E0001B20196ECD51185C166ECE511958176ECD
:1056F000C151165C146EC2511758156E1450C12753
:105700001550C223D950170FE96EDACFEAFFEE50D9
:10571000ED1023E0070EEA5D04E0DEC2E0F2DFC236
:10572000E1F2EBAF0BD0010EE66E100EE66E03EC6D
:1057300019F0E552E552B9EC00F00FD0EB8FEBBD5C
:105740000CD0EB8D04ECBBF006C0E8F207C0E9F228
:105750000F0E0201E827000EE9230E0EDBA08BD00E
:10576000B5C214F0B6C215F0B7C216F0B8C217F041
:10577000142A000E152216221722170EDBCF18F05E
:10578000180EDBCF19F01A6A1B6AD950130FE96E95
:10579000DACFEAFFEE501826EE501922EE501A2208
:1057A000EE501B221450181809E11550191806E183
:1057B00016501A1803E117501B1800E15CE10201B2
:1057C000B52B000EB623B723B823EA51090A40E0EF
:1057D000010A1EE00F0A0EE0010A01E043D00C0EA0
:1057E000EA6F010EE66E110EE66E03EC19F0E5525B
:1057F000E55241D00B0EEA6F04ECBBF006C0E8F2B4
:1058000007C0E9F21F0E0201E827000EE9232BD0A2
:10581000D9500F0FE96EDACFEAFFB151EE1809E166
:10582000B251EE1806E1B351EE1803E1B451EE188F
:1058300000E10BE1E66A100EE66E03EC19F0E552AA
:10584000E55202EC21F017D002D00A0EEA6F0BD01D
:10585000E66A100EE66E03EC19F0E552E55202EC32
:1058600021F009D000D0010EE66E100EE66E03ECBA
:1058700019F0E552E5521C0EE15C02E2E16AE552E4
:10588000E16EE552E7CFD9FF1200D9CFE6FFE1CFB5
:10589000D9FF060EE126FE0EDB50146E156A030ECC
:1058A000145C000E155802E3000E83D1FE0EDBCF10
:1058B000E6FF6AEC00F0E552D950FC0FE96EFF0EEE
:1058C000DA20EA6EEE50ED1007E1010EF36EFC0EE9
:1058D000F3CFDBFFFD0EDB6A0201D451D85D146EFD
:1058E000D951D555156E1406000E155A14C0DEFF99
:1058F00015C0DDFFFA0EDBCF16F0FB0EDBCF17F085
:10590000FC0EDB501624146EFD0EDB501720156EB6
:10591000DECF18F0DDCF19F01450185C155019586F
:1059200002E2000E46D1B9EC00F0F90EDB50030B99
:1059300003E1F90EDB80DB82FA0EDBCF08F0FB0E11
:10594000DBCF09F0040E08C0DBFF050E09C0DBFF4A
:10595000FA0EDBCF16F0FB0EDBCF17F0FC0EDB50A0
:105960001624146EFD0EDB501720156ED9CFE9FFFB
:10597000DACFEAFF1450EE5E1550ED5AF90EDBA2B5
:1059800020D0DBA011D0DECF14F0DDCF15F0D89001
:1059900015321432D950040FE96EDACFEAFF1450F1
:1059A000EE261550ED220DD0DECF14F0DDCF15F030
:1059B000D950040FE96EDACFEAFF1450EE261550E5
:1059C000ED22040EDB500201D4250001146E050EF9
:1059D000DB500201D5210001156E010E1426000EC8
:1059E000152214C0DEFF15C0DDFF020EDEC2DBFF94
:1059F000030EDFC2DBFF0201CD1D01E1CE1D2DE054
:105A0000CD51C125146ECE51C221156ED950020F51
:105A1000E96EDACFEAFF1450EE261550ED22020EA1
:105A2000DBCF14F0030EDBCF15F01450D85D15500A
:105A3000D95913E2D651D85D146ED951D755156E88
:105A4000010E1426000E1522D950020FE96EDACF8E
:105A5000EAFF1450EE5E1550ED5A020EDBCF14F043
:105A6000030EDBCF15F01450E05D1550E15918E23C
:105A7000DECF14F0DDCF15F01450E05D1550E15984
:105A80000EE2F90EDBA403D0000E93D008D0DECFD7
:105A9000E0F2DDCFE1F2DECFDEF2DDCFDFF22BD0C0
:105AA000020EDBCF14F0030EDBCF15F0E051145CD7
:105AB000E151155818E2DECF14F0DDCF15F0145087
