:020000040000FA
:0600000071EFDFF01200B9
:020006001200E6
:06000800F1EFBFF0120051
:02000E008D80E3
:020010001200DC
:040012008D901200BB
:020016000100E7
:060018009AEFBFF0120098
:02001E000E00D2
:10002000B3BF0100020300000100000095170100AA
:100030000103000001000000B1BF0100FD0200004B
:1000400002000000A9BF0100D50200000800000066
:10005000A6BF0100F2020000030000003ABF010049
:10006000000E00006C00000038BF0100FB02000021
:100070000200000034BF0100EE0200000400000096
:100080002D99010000030000010000002BBF0100BA
:10009000CC0200000900000029BF0100F9020000A5
:1000A0000200000025BF0100EA0200000400000079
:1000B00023BF0100F702000002000000160000004C
:0800C000F5020000020000003F
:0800C8000201F951FA5D01E1AA
:1000D00078D0FE0EFA5D39E0250EE66EE66A010E76
:1000E000E66E820EE66E020EE66EFA511C0DF3CF3E
:1000F000E9FFF4CFEAFF000EE9260F0EEA221B0EFD
:10010000E926000EEA22EF50E66EFA511C0DF3CFFD
:10011000E9FFF4CFEAFF000EE9260F0EEA22EECF48
:1001200014F0EFCF15F0250E145E000E155A14C012
:10013000E6FF15C0E6FF92EC45F0166E080EE15C96
:1001400002E2E16AE552E16E1650F9C2FAF2250EBA
:10015000E66EE66A0201F9511C0DF3CFE9FFF4CF18
:10016000EAFF000EE9260F0EEA221B0EE926000E1A
:10017000EA22EF50E66EF9511C0DF3CFE9FFF4CF00
:10018000EAFF000EE9260F0EEA22EECF14F0EFCFC1
:1001900015F0250E145E000E155A14C0E6FF15C0AA
:1001A000E6FF010EE66E820EE66E020EE66E92EC41
:1001B00045F0166E080EE15C02E2E16AE552E16E7E
:1001C00016501200D9CFE6FFDACFE6FFE1CFD9FF14
:1001D000E2CFDAFF0B0EE12402E3E168E652E16EC2
:1001E000E40EF36E090EF3CFDBFF140EF36E0A0E6E
:1001F000F3CFDBFF0201805181110FE18EEC99F00A
:1002000006C080F207C081F2FF0E02018017070EC0
:100210008117000E8027040E81233C0EE66EE66AED
:10022000E66A440EE66E020EE66E6DECD9F0146ED0
:10023000050EE15C02E2E16AE552E16E1450010E46
:10024000DB6ADF6ADF50146E156A030E145C000E61
:10025000155801E3BBD1DFCFF9F2FE0E146EBE0ECE
:10026000156E010E166EDFCF17F0186A196A060EAA
:100270000C6E0D6A0E6A17C007F018C008F019C09E
:1002800009F0A5ECDDF004C017F005C018F006C0B9
:1002900019F014501724F36E15501820F46E1650F0
:1002A0001920F86EF4CFF7FFF3CFF6FFF62A000E11
:1002B000F722F8220800080EF5CFDBFFFE0E146EC1
:1002C000BE0E156E010E166EDFCF17F0186A196A92
:1002D000060E0C6E0D6A0E6A17C007F018C008F003
:1002E00019C009F0A5ECDDF004C017F005C018F046
:1002F00006C019F014501724F36E15501820F46E30
:1003000016501920F86EF4CFF7FFF3CFF6FF020E68
:10031000F626000EF722F8220900020EF5CFDBFFC9
:100320000A00030EF5CFDBFFFE0E146EBE0E156E37
:10033000010E166EDFCF17F0186A196A060E0C6EE2
:100340000D6A0E6A17C007F018C008F019C009F04E
:10035000A5ECDDF004C017F005C018F006C019F0D8
:1003600014501724F36E15501820F46E16501920EF
:10037000F86EF4CFF7FFF3CFF6FF040EF626000E6B
:10038000F722F8220900040EF5CFDBFF0A00050E64
:10039000F5CFDBFF080EDB5001E017D1090EDBCFF4
:1003A00008F00A0EDBCF09F0060E08C0DBFF070ECF
:1003B00009C0DBFF020EDBCF16F0030EDBCF17F018
:1003C000250E1626000E1722010E1626000E1722E5
:1003D000040EDB501624146E050EDB501720156E2C
:1003E000010E1426000E1522D950090FE96E000ED9
:1003F000DA20EA6E1450EE261550ED22090EDBCFFE
:1004000014F00A0EDBCF15F0166A176AD880FE0EBC
:1004100014541E0E1554000E1654000E175401E20B
:10042000EDD70201F9511C0DF3CFE9FFF4CFEAFF3C
:10043000000EE9260F0EEA221B0EE926000EEA2224
:10044000080EDBCFEFFF250EE76E060EDBCF14F0B4
:10045000070EDBCF15F0E7501426000E1522F951D8
:100460001C0DF3CFE9FFF4CFEAFF000EE9260F0ED3
:10047000EA2214C0EEFF15C0EDFF020EDBCF16F02E
:10048000030EDBCF17F0F9511C0DF3CFE9FFF4CFCA
:10049000EAFF000EE9260F0EEA221650EE24146E33
:1004A0001750EE20156E010E1426000E1522F9517C
:1004B0001C0DF3CFE9FFF4CFEAFF000EE9260F0E83
:1004C000EA22020EE926000EEA2214C0EEFF15C051
:1004D000EDFF040EDBCF16F0050EDBCF17F0F95160
:1004E0001C0DF3CFE9FFF4CFEAFF000EE9260F0E53
:1004F000EA22020EE926000EEA221650EE24146EBD
:100500001750EE20156EF9511C0DF3CFE9FFF4CF13
:10051000EAFF000EE9260F0EEA22040EE926000E7D
:10052000EA2214C0EEFF15C0EDFFF9511C0DF3CF08
:10053000E9FFF4CFEAFF000EE9260F0EEA22160EBD
:10054000E926000EEA220D0EEF6EF9511C0DF3CFD5
:10055000E9FFF4CFEAFF000EE9260F0EEA22170E9C
:10056000E926000EEA22EF96AFDDFE0E146EBE0EF7
:10057000156E010E166EDFCF17F0186A196A060E97
:100580000C6E0D6A0E6A17C007F018C008F019C08B
:1005900009F0A5ECDDF004C017F005C018F006C0A6
:1005A00019F014501724F36E15501820F46E1650DD
:1005B0001920F86EF4CFF7FFF3CFF6FF0800F5CF60
:1005C000A6F251EC2FF0DF2A3DD6FFD70B0EE15CEF
:1005D00002E2E16AE552E16EE552E5CFDAFFE7CFEC
:1005E000D9FF1200D9CFE6FFDACFE6FFE1CFD9FF7E
:1005F000E2CFDAFFE652DF6ADF50146E156A030EAF
:10060000145C000E155801E39FD1DFCFF9F202010F
:10061000F9511C0DF3CFE9FFF4CFEAFF000EE926F4
:100620000F0EEA22160EE926000EEA22EF500D0800
:1006300001E088D149DDF60EDB500201A65D01E044
:1006400081D1F90EDB503BE1F70EDBCF92F2F80ED1
:10065000DBCF93F20201F9511C0DF3CFE9FFF4CF88
:10066000EAFF000EE9260F0EEA22170EE926000E19
:10067000EA22EF86F9511C0DF3CFE9FFF4CFEAFF30
:10068000000EE9260F0EEA22160EE926000EEA22D7
:10069000040EEF6EF9511C0DF3CFE9FFF4CFEAFF22
:1006A000000EE9260F0EEA22190EE926000EEA22B4
:1006B000F70EDBCFEEFFF80EDBCFEDFF41D1000EE2
:1006C000805D040E815906E3880ED8808055130E94
:1006D000815503E2806B040E816F80C292F281C269
:1006E00093F2802B000E8123F70EDBCF90F2F80EF1
:1006F000DBCF91F238ECDCF006C014F007C015F047
:1007000008C016F009C017F00201F9511C0DF3CF13
:10071000E9FFF4CFEAFF000EE9260F0EEA220E0EE3
:10072000E926000EEA2214C0EEFF15C0EEFF16C047
:10073000EEFF17C0EEFFF9511C0DF3CFE9FFF4CF28
:10074000EAFF000EE9260F0EEA22170EE926000E38
:10075000EA22EF88F90EDB50040A01E184D0070A8F
:100760002DE0020A03E0030A01E0EAD0FA0EDBCF33
:1007700098F2FB0EDBCF99F2FC0EDBCF9AF2FD0E66
:10078000DBCF9BF2F90EDB50020802E0000E01D035
:10079000010E0201A495E8B0A4850201F9511C0DD7
:1007A000F3CFE9FFF4CFEAFF000EE9260F0EEA22AD
:1007B000160EE926000EEA22EF6AC2D0FA0EDBCF4F
:1007C0001AF0FB0EDBCF1BF0FC0EDB501A24186E68
:1007D000FD0EDB501B20196EF70EDB501824166E31
:1007E000F80EDB501920176E165002019219146E84
:1007F00017509319156E0201F9511C0DF3CFE9FF43
:10080000F4CFEAFF000EE9260F0EEA22190EE926C0
:10081000000EEA2214C0EEFF15C0EDFFFA0EDBCF8A
:1008200098F2FB0EDBCF99F2FC0EDBCF9AF2FD0EB5
:10083000DBCF9BF20201A56B270E826F836B846B6B
:10084000856B0201F9511C0DF3CFE9FFF4CFEAFFEC
:10085000000EE9260F0EEA22160EE926000EEA2205
:10086000020EEF6E6DD0FA0EDBCFE9FFFB0EDBCF91
:10087000EAFF020EE926000EEA22EECF1AF0EFCFD1
:100880001BF0FA0EDBCFE9FFFB0EDBCFEAFF1A50BD
:10089000EE24186E1B50EE20196EF70EDB50182454
:1008A000166EF80EDB501920176E165002019219C1
:1008B000146E17509319156E0201F9511C0DF3CFE8
:1008C000E9FFF4CFEAFF000EE9260F0EEA22190E27
:1008D000E926000EEA2214C0EEFF15C0EDFF0A0E55
:1008E000E66EE66AFA0EDBCFE6FFFB0EDBCFE6FF35
:1008F000980EE66E020EE66E1FECD9F0146E060E30
:10090000E15C02E2E16AE552E16E14500201F95144
:100910001C0DF3CFE9FFF4CFEAFF000EE9260F0E1E
:10092000EA22160EE926000EEA22050EEF6E010EEF
:10093000E66E020EE66EECEC22F0E552E55200D0D7
:10094000DF5004D0DF2A58D6FE0E00D0E552E55223
:10095000E5CFDAFFE7CFD9FF1200D9CFE6FFDACF34
:10096000E6FFE1CFD9FFE2CFDAFFFD0EDBCFF9F2F0
:100970000201F9511C0DF3CFE9FFF4CFEAFF000E9D
:10098000E9260F0EEA22170EE926000EEA22EE52A1
:10099000EF50100B12E0F9511C0DF3CFE9FFF4CF2B
:1009A000EAFF000EE9260F0EEA22170EE926000ED6
:1009B000EA22EE52EF98010E02D0000E00D0E5526E
:1009C000E5CFDAFFE7CFD9FF1200D9CFE6FFDACFC4
:1009D000E6FFE1CFD9FFE2CFDAFFFD0EDBCFF9F280
:1009E0000201F9511C0DF3CFE9FFF4CFEAFF000E2D
:1009F000E9260F0EEA22160EE926000EEA22EF5033
:100A0000070802E0000E01D0010E00D0E552E5CF4C
:100A1000DAFFE7CFD9FF1200D9CFE6FFDACFE6FF42
:100A2000E1CFD9FFE2CFDAFFFD0EDBCFF9F2020111
:100A3000F9511C0DF3CFE9FFF4CFEAFF000EE926D0
:100A40000F0EEA220A0EE926000EEA22EECF14F07B
:100A5000EFCF15F0F9511C0DF3CFE9FFF4CFEAFF0A
:100A6000000EE9260F0EEA220C0EE926000EEA22FD
:100A700014C0EEFF15C0EDFFF9511C0DF3CFE9FFD7
:100A8000F4CFEAFF000EE9260F0EEA22160EE92641
:100A9000000EEA22EF50080A64E0010A62E0050A4B
:100AA00060E0020A4DE0050A31E00D0A15E0010A96
:100AB00013E0070A0EE0020A0CE0010A0AE0060A47
:100AC00008E0040A01E04DD0F8ECB1F051EC2FF051
:100AD00052D051EC2FF04FD0010EE66E110EE66EA3
:100AE000ECEC22F0E552E5520201F9511C0DF3CF76
:100AF000E9FFF4CFEAFF000EE9260F0EEA22160EF8
:100B0000E926000EEA22080EEF6E35D0010EE66EE1
:100B1000110EE66EECEC22F0E552E5520201F951BD
:100B20001C0DF3CFE9FFF4CFEAFF000EE9260F0E0C
:100B3000EA22160EE926000EEA220C0EEF6E1BD0FA
:100B4000F9511C0DF3CFE9FFF4CFEAFF000EE926BF
:100B50000F0EEA22160EE926000EEA220D0EEF6EA7
:100B60000AD0E66A140EE66EECEC22F0E552E5528D
:100B700051EC2FF000D0E552E5CFDAFFE7CFD9FFF7
:100B80001200D9CFE6FFDACFE6FFE1CFD9FFE2CFFF
:100B9000DAFFFD0EDBCFF9F264EC00F00A0EE66E30
:100BA000E66A980EE66E020EE66EA70EE66E020E7E
:100BB000E66E1FECD9F0146E060EE15C02E2E16A0B
:100BC000E552E16E145090C2B1F291C2B2F2A70E9A
:100BD000146E020E156E14C0F3FF15C0F4FF00D0A2
:100BE000E552E5CFDAFFE7CFD9FF1200D9CFE6FF14
:100BF000DACFE6FFE1CFD9FFE2CFDAFFFD0EDBCFA0
:100C0000F9F264EC00F00201F9511C0DF3CFE9FF99
:100C1000F4CFEAFF000EE9260F0EEA22060EE926BF
:100C2000000EEA22EECF14F0EFCF15F002018E5144
:100C3000141802E18F51151808E0010EE66E100E2F
:100C4000E66EECEC22F0E552E552E552E5CFDAFF34
:100C5000E7CFD9FF1200D9CFE6FFDACFE6FFE1CF29
:100C6000D9FFE2CFDAFFE652FD0EDBCFF9F2020147
:100C7000F9511C0DF3CFE9FFF4CFEAFF000EE9268E
:100C80000F0EEA22160EE926000EEA22EFCFDFFF52
:100C9000070EDF5C06E00B0EDF5C03E0F36AF46A2C
:100CA000AED0F9511C0DF3CFE9FFF4CFEAFF000EEF
:100CB000E9260F0EEA22060EE926000EEA22EECF02
:100CC00014F0EFCF15F0F9511C0DF3CFE9FFF4CF7D
:100CD000EAFF000EE9260F0EEA22080EE926000EB2
:100CE000EA22EECF16F0EFCF17F01650145C175033
:100CF000155857E3F9511C0DF3CFE9FFF4CFEAFF84
:100D0000000EE9260F0EEA22020EE926000EEA2264
:100D1000EECF18F0EFCF19F0F9511C0DF3CFE9FF2A
:100D2000F4CFEAFF000EE9260F0EEA22EE50185C1F
:100D3000166EEE501958176E1606000E175AF95116
:100D40001C0DF3CFE9FFF4CFEAFF000EE9260F0EEA
:100D5000EA22060EE926000EEA22EECF1CF0EFCFC3
:100D60001DF0F9511C0DF3CFE9FFF4CFEAFF000E9F
:100D7000E9260F0EEA22080EE926000EEA22EE50BE
:100D80001C5C1A6EEE501D581B6E1A50165C146EC9
:100D90001B501758156E14C0F3FF15C0F4FF2FD069
:100DA0002ED0F9511C0DF3CFE9FFF4CFEAFF000E6E
:100DB000E9260F0EEA22080EE926000EEA22EECFFF
:100DC00016F0EFCF17F0F9511C0DF3CFE9FFF4CF78
:100DD000EAFF000EE9260F0EEA22060EE926000EB3
:100DE000EA22EE50165C146EEE501758156E14067B
:100DF000000E155A14C0F3FF15C0F4FF00D0E552E1
:100E0000E552E5CFDAFFE7CFD9FF1200D9CFE6FFF1
:100E1000DACFE6FFE1CFD9FFE2CFDAFFE652E652C2
:100E2000FD0EDBCFF9F2FD0EDBCFE6FF14DFE5525E
:100E3000F3CFDEFFF4CFDDFFD9CFE9FFDACFEAFF52
:100E4000EE50ED1003E1000E3AD10ED0D9CFE9FFFC
:100E5000DACFEAFF010EEE1801E1ED5005E1FD0EDB
:100E6000DBCFE6FFC3DEE5520201F9511C0DF3CFE3
:100E7000E9FFF4CFEAFF000EE9260F0EEA22170E73
:100E8000E926000EEA22EE52EF50010B44E1DECFDC
:100E900014F0DDCF15F0F9511C0DF3CFE9FFF4CFBD
:100EA000EAFF000EE9260F0EEA22020EE926000EE6
:100EB000EA22EECF18F0EFCF19F0F9511C0DF3CF65
:100EC000E9FFF4CFEAFF000EE9260F0EEA22EE500A
:100ED000185C166EEE501958176ED89017321632ED
:100EE0001450165C1550175816E3FD0EDBCFE6FFC5
:100EF0007DDEE5520201F9511C0DF3CFE9FFF4CF7D
:100F0000EAFF000EE9260F0EEA22170EE926000E70
:100F1000EA22EE52EF80010EE66EE66AE66ED950E6
:100F2000FC0FE66EFF0EDA20E66EF9511C0DF3CFD2
:100F3000E9FFF4CFEAFF000EE9260F0EEA221B0EAE
:100F4000E926000EEA22EF50E66EF9511C0DF3CFB0
:100F5000E9FFF4CFEAFF000EE9260F0EEA22060EA3
:100F6000E926000EEA22EECFE6FFEFCFE6FF92EC95
:100F700045F0146E080EE15C02E2E16AE552E16EB2
:100F800014500201F9511C0DF3CFE9FFF4CFEAFF31
:100F9000000EE9260F0EEA22060EE926000EEA22CE
:100FA000EE2AED22EECF14F0EDCF15F0F9511C0D25
:100FB000F3CFE9FFF4CFEAFF000EE9260F0EEA2295
:100FC000020EE926000EEA22EECF16F0EFCF17F060
:100FD0001650145C1750155820E3F9511C0DF3CF2F
:100FE000E9FFF4CFEAFF000EE9260F0EEA22EECF6A
:100FF00014F0EFCF15F0F9511C0DF3CFE9FFF4CF4A
:10100000EAFF000EE9260F0EEA22060EE926000E80
:10101000EA2214C0EEFF15C0EDFFD9CFE9FFDACF09
:10102000EAFF010EEE1801E1ED5006E1FD0EDBCF07
:10103000E6FFDCDDE55241D0F9511C0DF3CFE9FFAD
:10104000F4CFEAFF000EE9260F0EEA22170EE9267A
:10105000000EEA22EF50200B30E1F9511C0DF3CFC6
:10106000E9FFF4CFEAFF000EE9260F0EEA22170E81
:10107000E926000EEA22EF8A43ECDCF006C014F009
:1010800007C015F0166A176A060E1426000E152200
:10109000162217220201F9511C0DF3CFE9FFF4CFFC
:1010A000EAFF000EE9260F0EEA22120EE926000ED4
:1010B000EA2214C0EEFF15C0EDFF010E00D0E5528C
:1010C000E552E552E5CFDAFFE7CFD9FF1200D9CFDD
:1010D000E6FFDACFE6FFE1CFD9FFE2CFDAFF060E77
:1010E000E12402E3E168E652E16E040EDB6A050EDC
:1010F000DB6AFD0EDBCFF9F2FD0EDBCFE6FFABDDE9
:10110000E552020EF3CFDBFF030EF4CFDBFFD95025
:10111000020FE96E000EDA20EA6EEE50ED1008E1E3
:10112000FD0EDBCFE6FF62DDE552F36AF46A01D221
:10113000020EDBCFDEFFDBCFDDFFDBCF14F0030ED3
:10114000DBCF15F0F90EDBCF16F0FA0EDBCF17F080
:101150001450165C1550175805E2F90EDBCFDEFF70
:10116000DBCFDDFF0201F9511C0DF3CFE9FFF4CF16
:10117000EAFF000EE9260F0EEA22170EE926000EFE
:10118000EA22EE52EF50010B46E1020EDBCF14F0E3
:10119000030EDBCF15F0F9511C0DF3CFE9FFF4CFAF
:1011A000EAFF000EE9260F0EEA22020EE926000EE3
:1011B000EA22EECF18F0EFCF19F0F9511C0DF3CF62
:1011C000E9FFF4CFEAFF000EE9260F0EEA22EE5007
:1011D000185C166EEE501958176ED89017321632EA
:1011E0001450165C1550175816E3FD0EDBCFE6FFC2
:1011F000FDDCE5520201F9511C0DF3CFE9FFF4CFFC
:10120000EAFF000EE9260F0EEA22170EE926000E6D
:10121000EA22EE52EF80DECF16F0DDCF17F0F95163
:101220001C0DF3CFE9FFF4CFEAFF000EE9260F0E05
:10123000EA22060EE926000EEA221650EE24146E6B
:101240001750EE20156EF9511C0DF3CFE9FFF4CFC6
:10125000EAFF000EE9260F0EEA22020EE926000E32
:10126000EA22EECF18F0EFCF19F01850145C1950A5
:10127000155801E2A5D0F9511C0DF3CFE9FFF4CFC9
:10128000EAFF000EE9260F0EEA22020EE926000E02
:10129000EA22EECF16F0EFCF17F0F9511C0DF3CF85
:1012A000E9FFF4CFEAFF000EE9260F0EEA22060E50
:1012B000E926000EEA22EE50165C146EEE50175826
:1012C000156E040E14C0DBFF050E15C0DBFF040E07
:1012D000DBCFE6FF050EDBCFE6FF010EE66EFB0E71
:1012E000DBCFE6FFFC0EDBCFE6FFF9511C0DF3CFA1
:1012F000E9FFF4CFEAFF000EE9260F0EEA221B0EEB
:10130000E926000EEA22EF50E66EF9511C0DF3CFEC
:10131000E9FFF4CFEAFF000EE9260F0EEA22060EDF
:10132000E926000EEA22EECFE6FFEFCFE6FF92ECD1
:1013300045F0146E080EE15C02E2E16AE552E16EEE
:101340001450040EDBCF14F0050EDBCF15F0D9508E
:10135000FB0FE96EFF0EDA20EA6E1450EE261550F0
:10136000ED22040EDBCF14F0050EDBCF15F0D9CF44
:10137000E9FFDACFEAFF1450EE5E1550ED5A020194
:10138000F9511C0DF3CFE9FFF4CFEAFF000EE92677
:101390000F0EEA22EECF14F0EFCF15F0F9511C0D2D
:1013A000F3CFE9FFF4CFEAFF000EE9260F0EEA22A1
:1013B000060EE926000EEA2214C0EEFF15C0EDFF6E
:1013C000DECFE6FFDDCFE6FF010EE66EFB0EDBCFE4
:1013D000E6FFFC0EDBCFE6FFF9511C0DF3CFE9FF72
:1013E000F4CFEAFF000EE9260F0EEA221B0EE926D3
:1013F000000EEA22EF50E66EF9511C0DF3CFE9FF23
:10140000F4CFEAFF000EE9260F0EEA22060EE926C7
:10141000000EEA22EECFE6FFEFCFE6FF92EC45F0BA
:10142000146E080EE15C02E2E16AE552E16E1450CE
:10143000DECF14F0DDCF15F00201F9511C0DF3CF12
:10144000E9FFF4CFEAFF000EE9260F0EEA22060EAE
:10145000E926000EEA221450EE261550ED22020E67
:10146000DBCF14F0030EDBCF15F0F90EDBCF16F057
:10147000FA0EDBCF17F01450165C1550175807E31F
:10148000FD0EDBCFE6FFF6EC05F0E55241D0F95159
:101490001C0DF3CFE9FFF4CFEAFF000EE9260F0E93
:1014A000EA22170EE926000EEA22EF50200B30E167
:1014B000F9511C0DF3CFE9FFF4CFEAFF000EE92646
:1014C0000F0EEA22170EE926000EEA22EF8A43ECFD
:1014D000DCF006C014F007C015F0166A176A060E95
:1014E0001426000E1522162217220201F9511C0D96
:1014F000F3CFE9FFF4CFEAFF000EE9260F0EEA2250
:10150000120EE926000EEA2214C0EEFF15C0EDFF10
:10151000040EDBCF16F0050EDBCF17F0DE501624DD
:10152000146EDD501720156E14C0F3FF15C0F4FFC4
:1015300000D0060EE15C02E2E16AE552E16EE5529E
:10154000E5CFDAFFE7CFD9FF1200D9CFE6FFDACF38
:10155000E6FFE1CFD9FFE2CFDAFF060EE12402E396
:10156000E168E652E16E040EDB6A050EDB6AFD0EF1
:10157000DBCFF9F2FD0EDBCFE6FF2BEC06F0E552F8
:10158000020EF3CFDBFF030EF4CFDBFFD950020FC7
:10159000E96E000EDA20EA6EEE50ED1009E1FD0E64
:1015A000DBCFE6FFF6EC05F0E552F36AF46A07D20A
:1015B0000201F9511C0DF3CFE9FFF4CFEAFF000E51
:1015C000E9260F0EEA22170EE926000EEA22EE5255
:1015D000EF50010B47E1020EDBCF14F0030EDBCF1F
:1015E00015F0F9511C0DF3CFE9FFF4CFEAFF000E1F
:1015F000E9260F0EEA22020EE926000EEA22EECFBD
:1016000018F0EFCF19F0F9511C0DF3CFE9FFF4CF2B
:10161000EAFF000EE9260F0EEA22EE50185C166E65
:10162000EE501958176ED890173216321450165CB7
:101630001550175817E3FD0EDBCFE6FFF6EC05F06B
:10164000E5520201F9511C0DF3CFE9FFF4CFEAFF97
:10165000000EE9260F0EEA22170EE926000EEA22F6
:10166000EE52EF80020EDBCFDEFFDBCFDDFFDBCF04
:1016700014F0030EDBCF15F0F80EDBCF16F0F90EE9
:10168000DBCF17F01450165C1550175805E2F80E12
:10169000DBCFDEFFDBCFDDFFDECF16F0DDCF17F0D7
:1016A000F9511C0DF3CFE9FFF4CFEAFF000EE92654
:1016B0000F0EEA22060EE926000EEA221650EE244C
:1016C000146E1750EE20156EF9511C0DF3CFE9FF83
:1016D000F4CFEAFF000EE9260F0EEA22020EE926F9
:1016E000000EEA22EECF18F0EFCF19F01850145C7C
:1016F0001950155801E2A9D0F9511C0DF3CFE9FF9B
:10170000F4CFEAFF000EE9260F0EEA22020EE926C8
:10171000000EEA22EECF16F0EFCF17F0F9511C0DB4
:10172000F3CFE9FFF4CFEAFF000EE9260F0EEA221D
:10173000060EE926000EEA22EE50165C146EEE50FC
:101740001758156E040E14C0DBFF050E15C0DBFF25
:10175000040EDBCFE6FF050EDBCFE6FFFA0EDBCF94
:10176000E6FFFB0EDBCFE6FFFC0EDBCFE6FFF95119
:101770001C0DF3CFE9FFF4CFEAFF000EE9260F0EB0
:10178000EA221B0EE926000EEA22EF50E66EF9511E
:101790001C0DF3CFE9FFF4CFEAFF000EE9260F0E90
:1017A000EA22060EE926000EEA22EECFE6FFEFCF90
:1017B000E6FF41EC46F0146E080EE15C02E2E16ADD
:1017C000E552E16E1450040EDBCF14F0050EDBCFB2
:1017D00015F0166AD950FA0FE96EFF0EDA20EA6E9C
:1017E0001450EE261550EE221650EE22040EDBCFDA
:1017F00014F0050EDBCF15F0D9CFE9FFDACFEAFF01
:101800001450EE5E1550ED5A0201F9511C0DF3CF44
:10181000E9FFF4CFEAFF000EE9260F0EEA22EECF31
:1018200014F0EFCF15F0F9511C0DF3CFE9FFF4CF11
:10183000EAFF000EE9260F0EEA22060EE926000E48
:10184000EA2214C0EEFF15C0EDFFDECFE6FFDDCFCC
:10185000E6FFFA0EDBCFE6FFFB0EDBCFE6FFFC0E6A
:10186000DBCFE6FFF9511C0DF3CFE9FFF4CFEAFF20
:10187000000EE9260F0EEA221B0EE926000EEA22D0
:10188000EF50E66EF9511C0DF3CFE9FFF4CFEAFFFC
:10189000000EE9260F0EEA22060EE926000EEA22C5
:1018A000EECFE6FFEFCFE6FF41EC46F0146E080EF8
:1018B000E15C02E2E16AE552E16E1450DECF14F021
:1018C000DDCF15F00201F9511C0DF3CFE9FFF4CF84
:1018D000EAFF000EE9260F0EEA22060EE926000EA8
:1018E000EA221450EE261550ED22020EDBCF14F042
:1018F000030EDBCF15F0F80EDBCF16F0F90EDBCFC1
:1019000017F01450165C1550175807E3FD0EDBCF87
:10191000E6FFF6EC05F0E55241D0F9511C0DF3CF8E
:10192000E9FFF4CFEAFF000EE9260F0EEA22170EB8
:10193000E926000EEA22EF50200B30E1F9511C0D90
:10194000F3CFE9FFF4CFEAFF000EE9260F0EEA22FB
:10195000170EE926000EEA22EF8A43ECDCF006C0FF
:1019600014F007C015F0166A176A060E1426000E4A
:101970001522162217220201F9511C0DF3CFE9FF9F
:10198000F4CFEAFF000EE9260F0EEA22120EE92636
:10199000000EEA2214C0EEFF15C0EDFF040EDBCFEF
:1019A00016F0050EDBCF17F0DE501624146EDD5056
:1019B0001720156E14C0F3FF15C0F4FF00D0060EFB
:1019C000E15C02E2E16AE552E16EE552E5CFDAFF61
:1019D000E7CFD9FF1200D9CFE6FFDACFE6FFE1CF9C
:1019E000D9FFE2CFDAFFFB0EDBCF16F0FC0EDBCF28
:1019F00017F016C0E6FF17C0E6FFFB0EDBCFE6FFD1
:101A0000FC0EDBCFE6FFF7ECD9F0E552E552F3CF61
:101A100018F0F4CF19F018C0E6FF19C0E6FFFB0E6E
:101A2000DBCFE6FFFC0EDBCFE6FFFD0EDBCFE6FFF4
:101A300067EC08F01A6E050EE15C02E2E16AE5521D
:101A4000E16E1A50E552E7CF17F0E552E7CF16F0F6
:101A50001650F324146E1750F420156E14C0F3FFC3
:101A600015C0F4FF00D0E552E5CFDAFFE7CFD9FF8C
:101A70001200D9CFE6FFDACFE6FFE1CFD9FFE2CF00
:101A8000DAFFFA0EDBCFE6FFFB0EDBCFE6FFFC0E44
:101A9000DBCFE6FF05ECDAF0E552E552E55207C090
:101AA0001AF008C01BF01AC0E6FF1BC0E6FFFA0ED2
:101AB000DBCFE6FFFB0EDBCFE6FFFC0EDBCFE6FF66
:101AC000FD0EDBCFE6FF41DD1C6E060EE15C02E29F
:101AD000E16AE552E16E1C50F3CF17F0F4CF18F035
:101AE000196AD950FA0FE96EFF0EDA20EA6EEE504D
:101AF0001724146EEE501820156EEE501920166E35
:101B000014C007F015C008F016C009F000D0E55267
:101B1000E5CFDAFFE7CFD9FF1200D9CFE6FFDACF62
:101B2000E6FFE1CFD9FFE2CFDAFFE652E652E65216
:101B3000E652FD0EDBCFF9F20201F9511C0DF3CF95
:101B4000E9FFF4CFEAFF000EE9260F0EEA22020EAB
:101B5000E926000EEA22EECF16F0EFCF17F0F9518A
:101B60001C0DF3CFE9FFF4CFEAFF000EE9260F0EBC
:101B7000EA22EE50165C146EEE501758156E1406DD
:101B8000000E155A020E14C0DBFF030E15C0DBFF5A
:101B9000FD0EDBCFE6FF2BEC06F0E552F3CFDEFFC8
:101BA000F4CFDDFF020EDBCF16F0030EDBCF17F014
:101BB000DE50165C146EDD501758156E14C0F3FF1E
:101BC00015C0F4FF040EE15C03E200D0E16AE552C7
:101BD000E16EE552E5CFDAFFE7CFD9FF1200D9CFAA
:101BE000E6FFDACFE6FFE1CFD9FFE2CFDAFFFD0E65
:101BF000DBCFE6FF3ED8E552F3CF14F0F4CF15F07B
:101C00001450151030E0FD0EDBCFF9F20201F9514E
:101C10001C0DF3CFE9FFF4CFEAFF000EE9260F0E0B
:101C2000EA220A0EE926000EEA22EECF14F0EFCFE8
:101C300015F0F9511C0DF3CFE9FFF4CFEAFF000EC8
:101C4000E9260F0EEA220C0EE926000EEA2214C045
:101C5000EEFF15C0EDFF010EE66E100EE66EECEC29
:101C600022F0E552E552E552E5CFDAFFE7CFD9FFA2
:101C70001200D9CFE6FFDACFE6FFE1CFD9FFE2CFFE
:101C8000DAFFFD0EDBCFF9F20201F9511C0DF3CFA3
:101C9000E9FFF4CFEAFF000EE9260F0EEA220A0E52
:101CA000E926000EEA22EECF14F0EFCF15F0F9513D
:101CB0001C0DF3CFE9FFF4CFEAFF000EE9260F0E6B
:101CC000EA220C0EE926000EEA22EECF16F0EFCF44
:101CD00017F01650145C175015582CE3F9511C0DD1
:101CE000F3CFE9FFF4CFEAFF000EE9260F0EEA2258
:101CF0000A0EE926000EEA22EECF16F0EFCF17F01B
:101D0000F9511C0DF3CFE9FFF4CFEAFF000EE926ED
:101D10000F0EEA220C0EE926000EEA22EE50165CA7
:101D2000146EEE501758156E14C0F3FF15C0F4FF73
:101D30005CD05BD0F9511C0DF3CFE9FFF4CFEAFF83
:101D4000000EE9260F0EEA22040EE926000EEA2212
:101D5000EECF18F0EFCF19F0F9511C0DF3CFE9FFDA
:101D6000F4CFEAFF000EE9260F0EEA220C0EE92658
:101D7000000EEA22EE50185C166EEE501958176EDF
:101D8000010E1626000E1722F9511C0DF3CFE9FFA4
:101D9000F4CFEAFF000EE9260F0EEA220A0EE9262A
:101DA000000EEA22EECF1CF0EFCF1DF0F9511C0D12
:101DB000F3CFE9FFF4CFEAFF000EE9260F0EEA2287
:101DC000020EE926000EEA22EE501C5C1A6EEE505E
:101DD0001D581B6E16501A24146E17501B20156EBA
:101DE00014C0F3FF15C0F4FF00D0E552E5CFDAFFD1
:101DF000E7CFD9FF1200D9CFE6FFDACFE6FFE1CF78
:101E0000D9FFE2CFDAFFE652E652FD0EDBCFE6FF66
:101E100030DFE552F3CFDEFFF4CFDDFFD9CFE9FFAE
:101E2000DACFEAFFEE50ED1002E1000EF1D0FD0E28
:101E3000DBCFF9F2D950FB0FE96EFF0EDA20EA6E24
:101E4000EE50ED1038E0010EE66EE66A0201F9513F
:101E50001C0DF3CFE9FFF4CFEAFF000EE9260F0EC9
:101E6000EA221B0EE926000EEA22EF50E66EF95137
:101E70001C0DF3CFE9FFF4CFEAFF000EE9260F0EA9
:101E8000EA220C0EE926000EEA22EECFE6FFEFCFA3
:101E9000E6FF010EE66EFB0EDBCFE6FFFC0EDBCFAE
:101EA000E6FF92EC45F0146E080EE15C02E2E16A96
:101EB000E552E16E14500201F9511C0DF3CFE9FF18
:101EC000F4CFEAFF000EE9260F0EEA220C0EE926F7
:101ED000000EEA22EE2AED22EECF14F0EDCF15F03F
:101EE000F9511C0DF3CFE9FFF4CFEAFF000EE9260C
:101EF0000F0EEA22040EE926000EEA22EECF16F0BB
:101F0000EFCF17F01450165C1550175824E2F95112
:101F10001C0DF3CFE9FFF4CFEAFF000EE9260F0E08
:101F2000EA22020EE926000EEA22EECF14F0EFCFED
:101F300015F0F9511C0DF3CFE9FFF4CFEAFF000EC5
:101F4000E9260F0EEA220C0EE926000EEA2214C042
:101F5000EEFF15C0EDFFD9CFE9FFDACFEAFF010EA2
:101F6000EE1801E1ED5011E1F9511C0DF3CFE9FF3D
:101F7000F4CFEAFF000EE9260F0EEA22170EE9263B
:101F8000000EEA22EE52EF8441D0F9511C0DF3CF3E
:101F9000E9FFF4CFEAFF000EE9260F0EEA22170E42
:101FA000E926000EEA22EF50200B30E1F9511C0D1A
:101FB000F3CFE9FFF4CFEAFF000EE9260F0EEA2285
:101FC000170EE926000EEA22EF8A43ECDCF006C089
:101FD00014F007C015F0166A176A060E1426000ED4
:101FE0001522162217220201F9511C0DF3CFE9FF29
:101FF000F4CFEAFF000EE9260F0EEA22120EE926C0
:10200000000EEA2214C0EEFF15C0EDFF010E00D055
:10201000E552E552E552E5CFDAFFE7CFD9FF1200EE
:10202000D9CFE6FFDACFE6FFE1CFD9FFE2CFDAFF83
:10203000E652E652E652E652020EDB6A030EDB6A15
:10204000FD0EDBCFE6FF15DEE552F3CFDEFFF4CF6A
:10205000DDFFD9CFE9FFDACFEAFFEE50ED1003E163
:10206000F36AF46AE7D1FD0EDBCFF9F2F90EDBCFAC
:1020700014F0FA0EDBCF15F0DECF16F0DDCF17F03F
:102080001450165C155017580AE2D9CFE9FFDACF81
:10209000EAFFF90EEECFDBFFFA0EEDCFDBFFF90E14
:1020A000DBCF16F0FA0EDBCF17F00201F9511C0D51
:1020B000F3CFE9FFF4CFEAFF000EE9260F0EEA2284
:1020C0000C0EE926000EEA221650EE24146E17506C
:1020D000EE20156EF9511C0DF3CFE9FFF4CFEAFFA6
:1020E000000EE9260F0EEA22040EE926000EEA226F
:1020F000EECF18F0EFCF19F01450185C15501958A6
:1021000001E3B8D0F9511C0DF3CFE9FFF4CFEAFF9A
:10211000000EE9260F0EEA22040EE926000EEA223E
:10212000EECF16F0EFCF17F0F9511C0DF3CFE9FF0A
:10213000F4CFEAFF000EE9260F0EEA220C0EE92684
:10214000000EEA22EE50165C146EEE501758156E13
:10215000010E1426000E1522020E14C0DBFF030E22
:1021600015C0DBFFD950FB0FE96EFF0EDA20EA6ED7
:10217000EE50ED104AE0020EDBCFE6FF030EDBCFA0
:10218000E6FFF9511C0DF3CFE9FFF4CFEAFF000E93
:10219000E9260F0EEA221B0EE926000EEA22EF5076
:1021A000E66EF9511C0DF3CFE9FFF4CFEAFF000E04
:1021B000E9260F0EEA220C0EE926000EEA22EECFE7
:1021C000E6FFEFCFE6FF010EE66EFB0EDBCFE6FF8C
:1021D000FC0EDBCFE6FF92EC45F0146E080EE15CDE
:1021E00002E2E16AE552E16E1450020EDBCF14F018
:1021F000030EDBCF15F0D950FB0FE96EFF0EDA208E
:10220000EA6E1450EE261550ED22020EDBCF14F0CC
:10221000030EDBCF15F0D950F90FE96EFF0EDA206F
:10222000EA6E1450EE5E1550ED5A0201F9511C0D84
:10223000F3CFE9FFF4CFEAFF000EE9260F0EEA2202
:10224000020EE926000EEA22EECF14F0EFCF15F0D1
:10225000F9511C0DF3CFE9FFF4CFEAFF000EE92698
:102260000F0EEA220C0EE926000EEA2214C0EEFF41
:1022700015C0EDFFD950FB0FE96EFF0EDA20EA6EB4
:10228000EE50ED103AE0F90EDBCFE6FFFA0EDBCFB1
:10229000E6FFF9511C0DF3CFE9FFF4CFEAFF000E82
:1022A000E9260F0EEA221B0EE926000EEA22EF5065
:1022B000E66EF9511C0DF3CFE9FFF4CFEAFF000EF3
:1022C000E9260F0EEA220C0EE926000EEA22EECFD6
:1022D000E6FFEFCFE6FF010EE66EFB0EDBCFE6FF7B
:1022E000FC0EDBCFE6FF92EC45F0146E080EE15CCD
:1022F00002E2E16AE552E16E1450F90EDBCF14F010
:10230000FA0EDBCF15F00201F9511C0DF3CFE9FFF6
:10231000F4CFEAFF000EE9260F0EEA220C0EE926A2
:10232000000EEA221450EE261550ED22020EDBCFED
:1023300014F0030EDBCF15F0D950F90FE96EFF0E44
:10234000DA20EA6E1450EE261550ED22DECF16F09C
:10235000DDCF17F0F90EDB50165C146EFA0EDB5071
:102360001758156EF90EDBCF18F0FA0EDBCF19F007
:102370001450185C1550195811E3F9511C0DF3CF86
:10238000E9FFF4CFEAFF000EE9260F0EEA22170E4E
:10239000E926000EEA22EE52EF8441D0F9511C0DDD
:1023A000F3CFE9FFF4CFEAFF000EE9260F0EEA2291
:1023B000170EE926000EEA22EF50200B30E1F9510A
:1023C0001C0DF3CFE9FFF4CFEAFF000EE9260F0E54
:1023D000EA22170EE926000EEA22EF8A43ECDCF02F
:1023E00006C014F007C015F0166A176A060E142608
:1023F000000E1522162217220201F9511C0DF3CFEF
:10240000E9FFF4CFEAFF000EE9260F0EEA22120ED2
:10241000E926000EEA2214C0EEFF15C0EDFFF90E0A
:10242000DBCF14F0FA0EDBCF15F014C0F3FF15C0AC
:10243000F4FF00D0040EE15C02E2E16AE552E16ED5
:10244000E552E5CFDAFFE7CFD9FF1200D9CFE6FF9B
:10245000DACFE6FFE1CFD9FFE2CFDAFFE652E6526C
:10246000E652E652FD0EDBCFF9F20201F9511C0DE6
:10247000F3CFE9FFF4CFEAFF000EE9260F0EEA22C0
:10248000040EE926000EEA22EECF16F0EFCF17F089
:10249000F9511C0DF3CFE9FFF4CFEAFF000EE92656
:1024A0000F0EEA22020EE926000EEA22EE50165C1A
:1024B000146EEE501758156E020E14C0DBFF030E9B
:1024C00015C0DBFFFD0EDBCFE6FF39EC0EF0E55269
:1024D000F3CFDEFFF4CFDDFF020EDBCF16F0030EED
:1024E000DBCF17F0DE50165C146EDD501758156EFA
:1024F00014C0F3FF15C0F4FF040EE15C03E200D04A
:10250000E16AE552E16EE552E5CFDAFFE7CFD9FFA8
:102510001200D9CFE6FFDACFE6FFE1CFD9FFE2CF55
:10252000DAFF300EE12402E3E168E652E16ED950B1
:10253000F90FE96EFF0EDA20EA6EEE50ED1003E1BE
:10254000F36AF46A6CD3FD0EDBCFF9F2FD0EDBCF3C
:10255000E6FF39EC0EF0E552F3CF16F0F4CF17F0AA
:10256000F70EDB50165C146EF80EDB501758156E24
:10257000020E14C0DBFF030E15C0DBFF020EDBCF23
:1025800014F0030EDBCF15F0F90EDBCF16F0FA0EC8
:10259000DBCF17F01650145C1750155803E2F368A0
:1025A000F4683DD3D950F50FE96EFF0EDA20EA6EDC
:1025B000EE50ED101DE0020EDBCF14F0030EDBCF6A
:1025C00015F0F50EDBCF16F0F60EDBCF17F014503A
:1025D000165C155017580CE2F50EDBCF08F0F60E1E
:1025E000DBCF09F0020E08C0DBFF030E09C0DBFFE2
:1025F000F70EDBCF16F0F80EDBCF17F00201F95122
:102600001C0DF3CFE9FFF4CFEAFF000EE9260F0E11
:10261000EA220C0EE926000EEA221650EE24146E71
:102620001750EE20156E060E14C0DBFF070E15C006
:10263000DBFF060EDBCF14F0070EDBCF15F0F951F0
:102640001C0DF3CFE9FFF4CFEAFF000EE9260F0ED1
:10265000EA22040EE926000EEA22EECF16F0EFCFB2
:1026600017F01450165C1550175834E2F9511C0D30
:10267000F3CFE9FFF4CFEAFF000EE9260F0EEA22BE
:10268000040EE926000EEA22EECF16F0EFCF17F087
:10269000F9511C0DF3CFE9FFF4CFEAFF000EE92654
:1026A0000F0EEA22020EE926000EEA22EE50165C18
:1026B000146EEE501758156E010E1426000E1522DA
:1026C000D950060FE96E000EDA20EA6E1450EE5E65
:1026D0001550ED5A060EDBCFDEFFDBCFDDFFF951E3
:1026E0001C0DF3CFE9FFF4CFEAFF000EE9260F0E31
:1026F000EA22040EE926000EEA22EECF16F0EFCF12
:1027000017F0060EDB50165C146E070EDB501758E0
:10271000156E010E1426000E1522040E14C0DBFFE8
:10272000050E15C0DBFFF70EDBCF08F0F80EDBCF90
:1027300009F0060E08C0DBFF070E09C0DBFFF90E2B
:10274000DBCF08F0FA0EDBCF09F0080E08C0DBFF84
:10275000090E09C0DBFFFB0EDBCF08F0FC0EDBCF60
:1027600009F00A0E08C0DBFF0B0E09C0DBFFFB0EF1
:10277000DBCFE9FFDB2AFC0EDBCFEAFF01E3DB2A3C
:102780000D0EEFCFDBFF0F0EDB6AF40EDB5016E011
:10279000610EF36E0D0EDBCFF4FFF350F45C0EE32D
:1027A0000D0EDB507A080AE3E00E146E0D0EDBCF3F
:1027B000E7FF1450E7260D0EE7CFDBFF200EF36E88
:1027C0000E0EF3CFDBFFDBCF14F0040EDBCF15F0E2
:1027D000050EDBCF16F01450155C000E165806E2FD
:1027E000040EDB50E76E0E0EE7CFDBFF0E0EDBCFE5
:1027F00014F0020EDBCF15F0030EDBCF16F01450F1
:10280000155C000E165806E2020EDB50E76E0E0E47
:10281000E7CFDBFF0E0EDBCFE6FFE66A0201F951E0
:102820001C0DF3CFE9FFF4CFEAFF000EE9260F0EEF
:10283000EA221B0EE926000EEA22EF50E66EDECFFA
:10284000E6FFDDCFE6FF010EE66ED950100FE66E13
:10285000000EDA20E66E92EC45F0146E080EE15C94
:1028600002E2E16AE552E16E14500E0EDB50DE2604
:10287000000EDD220E0EDB50146E156AD950040FC7
:10288000E96E000EDA20EA6E1450EE5E1550ED5A35
:10289000D950040FE96E000EDA20EA6EEE50ED100A
:1028A00017E10201F9511C0DF3CFE9FFF4CFEAFF64
:1028B000000EE9260F0EEA22020EE926000EEA2299
:1028C000EECFDEFFEDCFDDFF040EDB68050EDB682B
:1028D000F40EDB5001E1E9D00C0EDB6A0E0EDB508A
:1028E000F36E0C0EDBCFF4FFF350F45C01E3DCD0AD
:1028F000D950100F156E000EDA20166E0C0EDB503C
:102900000F011524E96E000E1620EA6EEFCF14F0C9
:10291000610E145C21E3D950100F176E000EDA20FF
:10292000186E0C0EDB501724E96E000E1820EA6EAC
:10293000EF507A0811E3E00E166ED950100F146EA6
:10294000000EDA20156E0C0EDB501424E96E000E1A
:102950001520EA6E1650EF26D950100F146E000E97
:10296000DA20156E0C0EDB501424E96E000E1520D3
:10297000EA6EEF50F36E0D0EDB50F35C53E1F90E8F
:10298000DB06DBCF14F0FA0E01E2DB06DBCF15F03D
:10299000145015101FE1060EDBCF18F0070EDBCF29
:1029A00019F0080EDB50185C166E090EDB50195832
:1029B000176E0C0EDB5000011624146E000E17204B
:1029C000156E010E1426000E152214C0F3FF15C05B
:1029D000F4FF25D1FB0EDBCFE9FFDB2AFC0EDBCFBA
:1029E000EAFF01E3DB2A0D0EEFCFDBFF010EF36EF2
:1029F0000F0EF3CFDBFF610EF36E0D0EDBCFF4FF96
:102A0000F350F45C0EE30D0EDB507A080AE3E00E9F
:102A1000146E0D0EDBCFE7FF1450E7260D0EE7CF47
:102A2000DBFF3FD0080EDBCF08F0090EDBCF09F04B
:102A3000F90E08C0DBFFFA0E09C0DBFF0F0EDB50FA
:102A400030E00A0EDBCF08F00B0EDBCF09F0FB0EF7
:102A500008C0DBFFFC0E09C0DBFFFB0EDBCFE9FF8C
:102A6000DB2AFC0EDBCFEAFF01E3DB2A0D0EEFCF02
:102A7000DBFF610EF36E0D0EDBCFF4FFF350F45C61
:102A80000EE30D0EDB507A080AE3E00E146E0D0E15
:102A9000DBCFE7FF1450E7260D0EE7CFDBFF0F0E6D
:102AA000DB6A0C0EDB2A1AD789D00C0EDB6A0E0EFD
:102AB000DB50F36E0C0EDBCFF4FFF350F45C01E35C
:102AC0007DD0D950100F146E000EDA20156E0C0E4A
:102AD000DB500F011424E96E000E1520EA6EEF5052
:102AE000F36E0D0EDB50F35C3DE1F90EDB06DBCF40
:102AF00014F0FA0E01E2DB06DBCF15F014501510CE
:102B00001FE1060EDBCF18F0070EDBCF19F0080E21
:102B1000DB50185C166E090EDB501958176E0C0E40
:102B2000DB5000011624146E000E1720156E010EE6
:102B30001426000E152214C0F3FF15C0F4FF6FD049
:102B4000FB0EDBCFE9FFDB2AFC0EDBCFEAFF01E364
:102B5000DB2A0D0EEFCFDBFF010EF36E0F0EF3CF6E
:102B6000DBFF29D0080EDBCF08F0090EDBCF09F020
:102B7000F90E08C0DBFFFA0E09C0DBFF0F0EDB50B9
:102B80001AE00A0EDBCF08F00B0EDBCF09F0FB0ECC
:102B900008C0DBFFFC0E09C0DBFFFB0EDBCFE9FF4B
:102BA000DB2AFC0EDBCFEAFF01E3DB2A0D0EEFCFC1
:102BB000DBFF0F0EDB6A0C0EDB2A79D70E0EDB5023
:102BC000146E156AD950020FE96E000EDA20EA6E13
:102BD0001450EE5E1550ED5A020EDBCF14F0030ECA
:102BE000DBCF15F0F90EDBCF16F0FA0EDBCF17F0C6
:102BF0001650145C1750155803E2F368F4680FD0B0
:102C00000E0EDB50146E156AD950060FE96E000ED9
:102C1000DA20EA6E1450EE261550ED22CFD5300E94
:102C2000E15C02E2E16AE552E16EE552E5CFDAFFEE
:102C3000E7CFD9FF1200D9CFE6FFDACFE6FFE1CF29
:102C4000D9FFE2CFDAFF310EE12402E3E168E65278
:102C5000E16ED950F80FE96EFF0EDA20EA6EEE5001
:102C6000ED1003E1F36AF46A9DD3FD0EDBCFF9F2B8
:102C7000FD0EDBCFE6FF39EC0EF0E552F3CF16F098
:102C8000F4CF17F0F60EDB50165C146EF70EDB5027
:102C90001758156E020E14C0DBFF030E15C0DBFFC4
:102CA000020EDBCF14F0030EDBCF15F0F80EDBCFF6
:102CB00016F0F90EDBCF17F01650145C17501558AC
:102CC00003E2F368F4686ED3D950F40FE96EFF0E97
:102CD000DA20EA6EEE50ED101DE0020EDBCF14F0AC
:102CE000030EDBCF15F0F40EDBCF16F0F50EDBCFC5
:102CF00017F01450165C155017580CE2F40EDBCF89
:102D000008F0F50EDBCF09F0020E08C0DBFF030E62
:102D100009C0DBFFF60EDBCF16F0F70EDBCF17F0A6
:102D20000201F9511C0DF3CFE9FFF4CFEAFF000EC9
:102D3000E9260F0EEA220C0EE926000EEA221650B2
:102D4000EE24146E1750EE20156E060E14C0DBFF35
:102D5000070E15C0DBFF060EDBCF14F0070EDBCF2E
:102D600015F0F9511C0DF3CFE9FFF4CFEAFF000E87
:102D7000E9260F0EEA22040EE926000EEA22EECF23
:102D800016F0EFCF17F01450165C1550175834E2B8
:102D9000F9511C0DF3CFE9FFF4CFEAFF000EE9264D
:102DA0000F0EEA22040EE926000EEA22EECF16F0FC
:102DB000EFCF17F0F9511C0DF3CFE9FFF4CFEAFF85
:102DC000000EE9260F0EEA22020EE926000EEA2284
:102DD000EE50165C146EEE501758156E010E142648
:102DE000000E1522D950060FE96E000EDA20EA6EA9
:102DF0001450EE5E1550ED5A060EDBCFDEFFDBCF32
:102E0000DDFFF9511C0DF3CFE9FFF4CFEAFF000E0F
:102E1000E9260F0EEA22040EE926000EEA22EECF82
:102E200016F0EFCF17F0060EDB50165C146E070E8F
:102E3000DB501758156E010E1426000E1522040ED5
:102E400014C0DBFF050E15C0DBFFF60EDBCF08F06C
:102E5000F70EDBCF09F0060E08C0DBFF070E09C036
:102E6000DBFFF80EDBCF08F0F90EDBCF09F0080E20
:102E700008C0DBFF090E09C0DBFFD950FA0FE96E6D
:102E8000FF0EDA20EA6E0A0EEECFDBFF0B0EEECF5E
:102E9000DBFF0C0EEECFDBFFD950FA0FE96EFF0E11
:102EA000DA20EA6EEFCFF6FFEE2AEFCFF7FF000E43
:102EB000EE22EFCFF8FFEE2208000E0EF5CFDBFF7B
:102EC000100EDB6AF30EDB5016E0610EF36E0E0E91
:102ED000DBCFF4FFF350F45C0EE30E0EDB507A0808
:102EE0000AE3E00E146E0E0EDBCFE7FF1450E72668
:102EF0000E0EE7CFDBFF200EF36E0F0EF3CFDBFFDE
:102F0000DBCF14F0040EDBCF15F0050EDBCF16F08F
:102F10001450155C000E165806E2040EDB50E76EE6
:102F20000F0EE7CFDBFF0F0EDBCF14F0020EDBCF6F
:102F300015F0030EDBCF16F01450155C000E16587A
:102F400006E2020EDB50E76E0F0EE7CFDBFF0F0E3F
:102F5000DBCFE6FFE66A0201F9511C0DF3CFE9FF72
:102F6000F4CFEAFF000EE9260F0EEA221B0EE92637
:102F7000000EEA22EF50E66EDECFE6FFDDCFE6FF81
:102F8000010EE66ED950110FE66E000EDA20E66EE5
:102F900092EC45F0146E080EE15C02E2E16AE55243
:102FA000E16E14500F0EDB50DE26000EDD220F0EF8
:102FB000DB50146E156AD950040FE96E000EDA204A
:102FC000EA6E1450EE5E1550ED5AD950040FE96EBA
:102FD000000EDA20EA6EEE50ED1017E10201F95111
:102FE0001C0DF3CFE9FFF4CFEAFF000EE9260F0E28
:102FF000EA22020EE926000EEA22EECFDEFFEDCF36
:10300000DDFF040EDB68050EDB68F30EDB5001E12B
:10301000FCD00D0EDB6A0F0EDB50F36E0D0EDBCF16
:10302000F4FFF350F45C01E3EFD0D950110F156EAB
:10303000000EDA20166E0D0EDB500F011524E96E1E
:10304000000E1620EA6EEFCF14F0610E145C21E33F
:10305000D950110F176E000EDA20186E0D0EDB50CE
:103060001724E96E000E1820EA6EEF507A0811E37B
:10307000E00E166ED950110F146E000EDA20156E88
:103080000D0EDB501424E96E000E1520EA6E16506A
:10309000EF26D950110F146E000EDA20156E0D0EAA
:1030A000DB501424E96E000E1520EA6EEF50F36E2B
:1030B0000E0EDB50F35C5BE1F80EDB06DBCF14F0A9
:1030C000F90E01E2DB06DBCF15F0145015101FE1FD
:1030D000060EDBCF18F0070EDBCF19F0080EDB5021
:1030E000185C166E090EDB501958176E0D0EDB506A
:1030F00000011624146E000E1720156E010E142602
:10310000000E152214C0F3FF15C0F4FF4BD1D950A7
:10311000FA0FE96EFF0EDA20EA6EEFCFF6FFEE2A25
:10312000EFCFF7FF000EEE22EFCFF8FFEE22080000
:103130000E0EF5CFDBFF010EF36E100EF3CFDBFFAB
:10314000610EF36E0E0EDBCFF4FFF350F45C0EE372
:103150000E0EDB507A080AE3E00E146E0E0EDBCF83
:10316000E7FF1450E7260E0EE7CFDBFF4AD0080E2C
:10317000DBCF08F0090EDBCF09F0F80E08C0DBFF4B
:10318000F90E09C0DBFF100EDB503BE0D9500A0FEF
:10319000E96E000EDA20EA6EFA0EEECFDBFFFB0ED0
:1031A000EECFDBFFFC0EEECFDBFFD950FA0FE96E5E
:1031B000FF0EDA20EA6EEFCFF6FFEE2AEFCFF7FF31
:1031C000000EEE22EFCFF8FFEE2208000E0EF5CF34
:1031D000DBFF610EF36E0E0EDBCFF4FFF350F45CF9
:1031E0000EE30E0EDB507A080AE3E00E146E0E0EAC
:1031F000DBCFE7FF1450E7260E0EE7CFDBFF100E04
:10320000DB6A0D0EDB2A07D79CD00D0EDB6A0F0E92
:10321000DB50F36E0D0EDBCFF4FFF350F45C01E3F3
:1032200090D0D950110F146E000EDA20156E0D0ECD
:10323000DB500F011424E96E000E1520EA6EEF50EA
:10324000F36E0E0EDB50F35C45E1F80EDB06DBCFD0
:1032500014F0F90E01E2DB06DBCF15F01450151067
:103260001FE1060EDBCF18F0070EDBCF19F0080EBA
:10327000DB50185C166E090EDB501958176E0D0ED8
:10328000DB5000011624146E000E1720156E010E7F
:103290001426000E152214C0F3FF15C0F4FF82D0CF
:1032A000D950FA0FE96EFF0EDA20EA6EEFCFF6FF83
:1032B000EE2AEFCFF7FF000EEE22EFCFF8FFEE225F
:1032C00008000E0EF5CFDBFF010EF36E100EF3CFEC
:1032D000DBFF34D0080EDBCF08F0090EDBCF09F09E
:1032E000F80E08C0DBFFF90E09C0DBFF100EDB5043
:1032F00025E0D9500A0FE96E000EDA20EA6EFA0EC8
:10330000EECFDBFFFB0EEECFDBFFFC0EEECFDBFFE5
:10331000D950FA0FE96EFF0EDA20EA6EEFCFF6FF12
:10332000EE2AEFCFF7FF000EEE22EFCFF8FFEE22EE
:1033300008000E0EF5CFDBFF100EDB6A0D0EDB2A48
:1033400066D70F0EDB50146E156AD950020FE96E66
:10335000000EDA20EA6E1450EE5E1550ED5A020EA1
:10336000DBCF14F0030EDBCF15F0F80EDBCF16F039
:10337000F90EDBCF17F01650145C1750155803E206
:10338000F368F4680FD00F0EDB50146E156AD95035
:10339000060FE96E000EDA20EA6E1450EE26155084
:1033A000ED22A9D5310EE15C02E2E16AE552E16E5F
:1033B000E552E5CFDAFFE7CFD9FF1200D9CFE6FF1C
:1033C000DACFE6FFE1CFD9FFE2CFDAFFF70EDBCFAE
:1033D000E6FFF80EDBCFE6FFF90EDBCFE6FFFA0ED5
:1033E000DBCFE6FFFB0EDBCFE6FF010EE66EE66A03
:1033F000D950FC0FE66EFF0EDA20E66EFD0EDBCF35
:10340000E6FF89EC12F0146E0A0EE15C02E2E16A5A
:10341000E552E16E145000D0E552E5CFDAFFE7CF78
:10342000D9FF1200D9CFE6FFDACFE6FFE1CFD9FF0F
:10343000E2CFDAFF0A0EE12402E3E168E652E16E30
:10344000DF6ADF50146E156A030E145C000E155807
:1034500002E309EF21F0DFCFF9F2030EDB6A010E80
:10346000DB6A020EDB6A0201F9511C0DF3CFE9FFA2
:10347000F4CFEAFF000EE9260F0EEA22170EE92626
:10348000000EEA22EE52EF50020B12E1F9511C0D30
:10349000F3CFE9FFF4CFEAFF000EE9260F0EEA2290
:1034A000170EE926000EEA22EE52EF50040B21E03F
:1034B00048ECABF000091DE0100EF36E030EF3CFE5
:1034C000DBFF0201F9511C0DF3CFE9FFF4CFEAFF56
:1034D000000EE9260F0EEA22170EE926000EEA2258
:1034E000EE52EF50040B01E0010EE76E010EE7CF44
:1034F000DBFF0201F9511C0DF3CFE9FFF4CFEAFF26
:10350000000EE9260F0EEA22170EE926000EEA2227
:10351000EF50200B30E0F9511C0DF3CFE9FFF4CF51
:10352000EAFF000EE9260F0EEA22120EE926000E2F
:10353000EA22EECF16F0EFCF17F016C0E6FF17C065
:10354000E6FF43ECDCF0E552E7CF17F0E552E7CFBA
:1035500016F00650165C146E07501758156E153489
:1035600004E214500008000E155405E3100EF36E2B
:10357000030EF3CFDBFF0201F9511C0DF3CFE9FF7E
:10358000F4CFEAFF000EE9260F0EEA22170EE92615
:10359000000EEA22EF50400B31E0F9511C0DF3CF41
:1035A000E9FFF4CFEAFF000EE9260F0EEA22140E1F
:1035B000E926000EEA22EECF16F0EFCF17F016C084
:1035C000E6FF17C0E6FF43ECDCF0E552E7CF17F06B
:1035D000E552E7CF16F000010650165C146E075056
:1035E0001758156E153404E214500008000E1554D7
:1035F00005E3100EF36E030EF3CFDBFF0201F9516A
:103600001C0DF3CFE9FFF4CFEAFF000EE9260F0E01
:10361000EA22160EE926000EEA22EF500B0842E1DC
:10362000F9511C0DF3CFE9FFF4CFEAFF000EE926B4
:103630000F0EEA22140EE926000EEA22EECF16F053
:10364000EFCF17F016C0E6FF17C0E6FF43ECDCF043
:10365000E552E7CF17F0E552E7CF16F0000106502C
:10366000165C146E07501758156E153404E214508A
:103670000008000E155416E3110EF36E030EF3CF7F
:10368000DBFF0201F9511C0DF3CFE9FFF4CFEAFF94
:10369000000EE9260F0EEA22160EE926000EEA2297
:1036A0000C0EEF6E0201F9511C0DF3CFE9FFF4CFC0
:1036B000EAFF000EE9260F0EEA22160EE926000E9A
:1036C000EA22EF50040801E06BD1040EDB6A050E1C
:1036D000DB6A040EDBCF14F0050EDBCF15F0030E12
:1036E000145C000E155801E35BD1040EDBCFE9FF3B
:1036F000050EDBCFEAFF140EEA02F3CFEAFFE90280
:10370000F3CFE9FFF450EA26440EE926020EEA223E
:10371000100EE926000EEA22EE50ED1001E140D134
:10372000040EDBCFE9FF050EDBCFEAFF140EEA0241
:10373000F3CFEAFFE902F3CFE9FFF450EA26440EA3
:10374000E926020EEA22100EE926000EEA22EECF4A
:1037500014F0EFCF15F00201F9511C0DF3CFE9FF82
:10376000F4CFEAFF000EE9260F0EEA22190EE92631
:10377000000EEA22EECF16F0EFCF17F00001165040
:10378000141802E11750151801E004D164EC00F0A0
:103790000A0EE66EE66A040EDBCFE9FF050EDBCF0C
:1037A000EAFF140EEA02F3CFEAFFE902F3CFE9FFE2
:1037B000F450EA26440EE926020EEA22E9CF14F07C
:1037C000EACF15F014C0E6FF15C0E6FF980EE66ECE
:1037D000020EE66E1FECD9F0166E060EE15C02E2F8
:1037E000E16AE552E16E1650040EDBCFE9FF050EEB
:1037F000DBCFEAFF140EEA02F3CFEAFFE902F3CFD0
:10380000E9FFF450EA26440EE926020EEA220A0EE7
:10381000E926000EEA22EECF90F2EDCF91F2040EEF
:10382000DBCFE9FF050EDBCFEAFF140EEA02F3CF90
:10383000EAFFE902F3CFE9FFF450EA26440EE92655
:10384000020EEA220C0EE926000EEA22EECF8AF2E0
:10385000EECF8BF2EECF8CF2EFCF8DF202018A2BFE
:103860008B238C238D239A519825186E9B51992177
:10387000196E18509025166E19509121176E16501A
:103880009219146E17509319156E0201F9511C0DFF
:10389000F3CFE9FFF4CFEAFF000EE9260F0EEA228C
:1038A000190EE926000EEA2214C0EEFF15C0EDFF46
:1038B000120EF36E030EF3CFDBFFF9511C0DF3CFA5
:1038C000E9FFF4CFEAFF000EE9260F0EEA22160EFA
:1038D000E926000EEA22060EEF6E040EDBCF14F08E
:1038E000050EDBCF15F0020ED8801456000E1556CB
:1038F000140E1502F3CF15F01402F3CF14F0F450A8
:10390000152614C0E6FF15C0E6FF010EE66EE76E51
:10391000040EDBCF16F0050EDBCF17F0E7501626AE
:10392000000E1722140E1702F3CF17F01602F3CF72
:1039300016F0F4501726440E1626020E172216C053
:10394000E6FF17C0E6FF010EE66E040EDBCF18F0AF
:10395000050EDBCF19F0140E1902F3CF19F018027F
:10396000F3CF18F0F4501926440E1826020E19222F
:1039700018C0E6FF19C0E6FF92EC45F01A6E080E7B
:10398000E15C02E2E16AE552E16E1A5002017C6BF1
:103990007D6B06D0040EDB2A050E01E3DB2A99D6E7
:1039A000030EDB500EE0010EDB5002E0000E01D0F2
:1039B000010EE66E030EDBCFE6FFECEC22F0E552E3
:1039C000E5520201F9511C0DF3CFE9FFF4CFEAFFF4
:1039D000000EE9260F0EEA22170EE926000EEA2253
:1039E000EF50100B01E0CBD0F9511C0DF3CFE9FFE4
:1039F000F4CFEAFF000EE9260F0EEA22160EE926A2
:103A0000000EEA22EF50070801E0B8D0F9511C0D72
:103A1000F3CFE9FFF4CFEAFF000EE9260F0EEA220A
:103A20000E0EE926000EEA22EECF18F0EECF19F0C6
:103A3000EECF1AF0EFCF1BF018C0E6FF19C0E6FF7B
:103A40001AC0E6FF1BC0E6FF38ECDCF0E552E7CF1A
:103A50001BF0E552E7CF1AF0E552E7CF19F0E55237
:103A6000E7CF18F000011850065C146E1950075883
:103A7000156E1A500858166E1B500958176E800E96
:103A8000171401E0C3D30201F9511C0DF3CFE9FF74
:103A9000F4CFEAFF000EE9260F0EEA22170EE92600
:103AA000000EEA22EF50070B060835E1F9511C0D14
:103AB000F3CFE9FFF4CFEAFF000EE9260F0EEA226A
:103AC000170EE926000EEA22EF50080B01E0010E66
:103AD000E76E030EE7CFDBFFDFCFE6FF0CEC05F070
:103AE000E552DFCFE6FF0CEC05F0E552030EDB50AC
:103AF00011E10201F9511C0DF3CFE9FFF4CFEAFF08
:103B0000000EE9260F0EEA22160EE926000EEA2222
:103B10000E0EEF6E7BD364EC00F0020EE66E100E1C
:103B2000E66EECEC22F0E552E55238ECDCF006C033
:103B300014F007C015F008C016F009C017F0740E95
:103B40001426350E1522060E1622000E172202012B
:103B5000F9511C0DF3CFE9FFF4CFEAFF000EE9267F
:103B60000F0EEA220E0EE926000EEA2214C0EEFF26
:103B700015C0EEFF16C0EEFF17C0EEFF47D3F95198
:103B80001C0DF3CFE9FFF4CFEAFF000EE9260F0E7C
:103B9000EA220E0EE926000EEA22EECF18F0EECF52
:103BA00019F0EECF1AF0EFCF1BF018C0E6FF19C0E6
:103BB000E6FF1AC0E6FF1BC0E6FF38ECDCF0E5527A
:103BC000E7CF1BF0E552E7CF1AF0E552E7CF19F047
:103BD000E552E7CF18F000011850065C146E19503A
:103BE0000758156E1A500858166E1B500958176E54
:103BF000800E171401E00AD364EC00F00201F951C1
:103C00001C0DF3CFE9FFF4CFEAFF000EE9260F0EFB
:103C1000EA22160EE926000EEA22EF500C0A01E114
:103C200037D2060A01E11CD2030A01E10ED2010AD1
:103C300001E1F3D10F0A01E1CCD10C0A01E1C9D1B4
:103C40000D0A01E196D1030A01E18AD1060A01E1D8
:103C500001D1010A01E1CBD0030A34E0010A01E0FD
:103C60002FD2EFECB1F000092CE00201F9511C0D4C
:103C7000F3CFE9FFF4CFEAFF000EE9260F0EEA22A8
:103C8000160EE926000EEA22010EEF6E0201A4A52F
:103C90000ED0E66E98C2E6FF99C2E6FF9AC2E6FF32
:103CA00041ECB2F0E552E552E552E5520AD0E66E3B
:103CB00098C2E6FF99C2E6FF0CECB2F0E552E5527D
:103CC000E552FED1D950060FE66E000EDA20E66E00
:103CD0007FECB2F0E552E552000901E187D0F8EC43
:103CE000B1F000094BE0060EDBCF98F2070EDBCFF8
:103CF00099F2080EDBCF9AF2090EDBCF9BF202019C
:103D0000F9511C0DF3CFE9FFF4CFEAFF000EE926CD
:103D10000F0EEA22160EE926000EEA22020EEF6EC0
:103D200002019A519825186E9B519921196E1850CD
:103D30009025166E19509121176E16509219146E17
:103D400017509319156E0201F9511C0DF3CFE9FFBD
:103D5000F4CFEAFF000EE9260F0EEA22190EE9263B
:103D6000000EEA2214C0EEFF15C0EDFF0201A56BA4
:103D7000270E826F836B846B856B38D038ECDCF058
:103D800006C014F007C015F008C016F009C017F0FF
:103D9000740E1426350E1522060E1622000E17225A
:103DA0000201F9511C0DF3CFE9FFF4CFEAFF000E39
:103DB000E9260F0EEA220E0EE926000EEA2214C0B2
:103DC000EEFF15C0EEFF16C0EEFF17C0EEFFF95173
:103DD0001C0DF3CFE9FFF4CFEAFF000EE9260F0E2A
:103DE000EA22160EE926000EEA22EF6A69D143ECB8
:103DF000DCF006C014F007C015F00201F9511C0DEB
:103E0000F3CFE9FFF4CFEAFF000EE9260F0EEA2216
:103E1000120EE926000EEA2214C0EEFF15C0EDFFD7
:103E2000980EE66E020EE66E99ECC5F0E552E5528C
:103E30000201F9511C0DF3CFE9FFF4CFEAFF000EA8
:103E4000E9260F0EEA22160EE926000EEA22030EDC
:103E5000EF6E36D19C0EE66E020EE66E980EE66EA2
:103E6000020EE66E10ECC6F0E552E552E552E55260
:103E700000095DE10201F9511C0DF3CFE9FFF4CF18
:103E8000EAFF000EE9260F0EEA22120EE926000EC6
:103E9000EA22EECF18F0EFCF19F01A6A1B6A18C0A9
:103EA000E6FF19C0E6FF1AC0E6FF1BC0E6FF43ECC1
:103EB000DCF0E552E7CF1BF0E552E7CF1AF0E55210
:103EC000E7CF19F0E552E7CF18F000011850065C73
:103ED000146E19500758156E1A500858166E1B505C
:103EE0000958176E14500201825D155083591650FF
:103EF0008459175085591AE2060EA55D06E2A52BD6
:103F0000D89082378337843785370201F9511C0DE9
:103F1000F3CFE9FFF4CFEAFF000EE9260F0EEA2205
:103F2000160EE926000EEA22020EEF6EC9D0020E2E
:103F3000F36E030EF3CFDBFF010EDB6A0201F951D2
:103F40001C0DF3CFE9FFF4CFEAFF000EE9260F0EB8
:103F5000EA22160EE926000EEA22050EEF6EB0D018
:103F6000020EF36E030EF3CFDBFFDE52010EDD6EA9
:103F7000A7D0020E0201A55D09E2120EF36E030E38
:103F8000F3CFDBFFDE52010EDD6E22D00201F951CC
:103F90001C0DF3CFE9FFF4CFEAFF000EE9260F0E68
:103FA000EA22170EE926000EEA22EF50080B0BE07A
:103FB000140EF36E030EF3CFDBFF010EF36E020E51
:103FC000F3CFDBFF05D0020EF36E030EF3CFDBFF62
:103FD00077D0050E0201A55D09E2100EF36E030E07
:103FE000F3CFDBFFDE52010EDD6E16D00201F95178
:103FF0001C0DF3CFE9FFF4CFEAFF000EE9260F0E08
:10400000EA22160EE926000EEA22080EEF6E110EC5
:10401000F36E030EF3CFDBFF53D0050E0201A55D57
:1040200009E2110EF36E030EF3CFDBFFDE52010E39
:10403000DD6E0AD0140EF36E030EF3CFDBFF010E1C
:10404000F36E020EF3CFDBFF3BD0140EF36E030EC4
:10405000F3CFDBFF010EF36E020EF3CFDBFF30D0A8
:10406000050E0201A55D09E2100EF36E030EF3CFFB
:10407000DBFFDE52010EDD6E0AD0140EF36E030E6E
:10408000F3CFDBFF010EF36E020EF3CFDBFF18D090
:10409000050E0201A55D09E2110EF36E030EF3CFCA
:1040A000DBFFDE52010EDD6E0AD0140EF36E030E3E
:1040B000F3CFDBFF010EF36E020EF3CFDBFF00D078
:1040C000030EDB5001E19DD0010EDB5001E191D0E8
:1040D0000201A52BD89082378337843785370201B8
:1040E000F9511C0DF3CFE9FFF4CFEAFF000EE926EA
:1040F0000F0EEA22080EE926000EEA220201EE5017
:104100008E5D146EEE508F59156E166A176A15AED5
:1041100002D0166817681450865F1550875B1650DA
:10412000885B1750895B0201F9511C0DF3CFE9FF41
:10413000F4CFEAFF000EE9260F0EEA22080EE92668
:10414000000EEA22EECF14F0EFCF15F0020114506A
:104150008E5D15508F5932E20201F9511C0DF3CFDB
:10416000E9FFF4CFEAFF000EE9260F0EEA22020E65
:10417000E926000EEA22EECF18F0EFCF19F0F95140
:104180001C0DF3CFE9FFF4CFEAFF000EE9260F0E76
:10419000EA22EE50185C146EEE501958156E166A2D
:1041A000176A15AE02D01668176814500201865FB0
:1041B0001550875B1650885B1750895B0201F951D7
:1041C0001C0DF3CFE9FFF4CFEAFF000EE9260F0E36
:1041D000EA22080EE926000EEA22EECF8EF2EDCF9B
:1041E0008FF2E66A030EDBCFE6FFF6D9E552E55221
:1041F00008D0010EE66E030EDBCFE6FFEDD9E552E7
:10420000E552020EDB5002E051EC2FF0DF2A21EFE5
:104210001AF0040EDB6A050EDB6A040EDBCF14F025
:10422000050EDBCF15F0030E145C000E155801E3EC
:10423000B5D0040EDBCFE9FF050EDBCFEAFF140E8D
:10424000EA02F3CFEAFFE902F3CFE9FFF450EA26EE
:10425000440EE926020EEA22100EE926000EEA229A
:10426000EE50ED1001E19AD0040EDBCFE9FF050E10
:10427000DBCFEAFF140EEA02F3CFEAFFE902F3CF45
:10428000E9FFF450EA26440EE926020EEA22120E55
:10429000E926000EEA22EECF16F0EFCF17F016C097
:1042A000E6FF17C0E6FF43ECDCF0E552E7CF17F07E
:1042B000E552E7CF16F01650065C146E17500758FB
:1042C000156EDC0ED8801454010E155461E2040EF4
:1042D000DBCF14F0050EDBCF15F0020ED88014569C
:1042E000000E1556140E1502F3CF15F01402F3CF7D
:1042F00014F0F450152614C0E6FF15C0E6FF010EB9
:10430000E66EE76E040EDBCF16F0050EDBCF17F07E
:10431000E7501626000E1722140E1702F3CF17F0DF
:104320001602F3CF16F0F4501726440E1626020E8E
:10433000172216C0E6FF17C0E6FF010EE66E040E58
:10434000DBCF18F0050EDBCF19F0140E1902F3CFF6
:1043500019F01802F3CF18F0F4501926440E18265D
:10436000020E192218C0E6FF19C0E6FF92EC45F0D4
:104370001A6E080EE15C02E2E16AE552E16E1A5043
:1043800002017C6B7D6B040EDB06050E01E2DB0691
:10439000040EDB2A050E01E3DB2A3FD70A0EE15C9F
:1043A00002E2E16AE552E16EE552E5CFDAFFE7CFDE
:1043B000D9FF1200D9CFE6FFDACFE6FFE1CFD9FF70
:1043C000E2CFDAFF250EE12402E3E168E652E16E76
:1043D000FC0EDBCFE9FFFD0EDBCFEAFF140EEECFC4
:1043E000DBFF150EEECFDBFF160EEECFDBFF170E59
:1043F000EECFDBFFFA0EDBCFE9FFFB0EDBCFEAFFF0
:10440000180EEECFDBFF190EEECFDBFF1A0EEECF4C
:10441000DBFF1B0EEECFDBFF1C0EDB6A060EF36E1E
:104420001D0EF3CFDBFFF80EDBCF08F0F90EDBCF6C
:1044300009F01E0E08C0DBFF1F0E09C0DBFF1E0EB9
:10444000DBCFE6FF1F0EDBCFE6FFA5ECA0F0E552C9
:10445000E5521E0EF3CFDBFF1F0EF4CFDBFF0C0E79
:10446000E66EE66AD950140FE66E000EDA20E66EAC
:104470002CECA1F0E552E552E552E552F3CF14F0F1
:10448000F4CF15F0141E151E200E14C0DBFF210EF4
:1044900015C0DBFFF80EDBCFE6FFF90EDBCFE6FF42
:1044A0006CECAEF0E552E552220EF3CFDBFF230EAB
:1044B000F4CFDBFF200EDBCF14F0210EDBCF15F0A5
:1044C000220EDB50141803E1230EDB50151804E014
:1044D00065ECABF0010E72D0000EE66EE66A52ECAF
:1044E000D0F0E552E552140EE66EE66AD9CFE6FF4B
:1044F000DACFE6FFC8ECB0F0E552E552E552E552FE
:10450000D9CFE6FFDACFE6FF33EC2EF0E552E552E5
:10451000D9500C0FE96E000EDA20EA6EEF50F00B66
:10452000E842E842E842E842040DF350146E156A8E
:10453000140E145E000E155A240E14C0DBFFDB505F
:10454000166E176AF80EDBCF08F0F90EDBCF09F014
:104550001650085C146E17500958156E140E145E30
:10456000000E155AF80E14C0DBFFF90E15C0DBFF64
:10457000FC0EDBCFE6FFFD0EDBCFE6FFD9CFE6FF7B
:10458000DACFE6FFB3EC2AF0E552E552E552E55208
:10459000000910E0F80EDBCFE6FFF90EDBCFE6FFF7
:1045A000D9CFE6FFDACFE6FFD9EC30F0E552E5529D
:1045B000E552E55265ECABF0010E00D0146E250E0D
:1045C000E15C02E2E16AE552E16E1450E552E5CFAA
:1045D000DAFFE7CFD9FF1200D9CFE6FFDACFE6FF47
:1045E000E1CFD9FFE2CFDAFF2A0EE12402E3E1684E
:1045F000E652E16E64EC00F0FD0EDBA013D0020188
:10460000F9511C0DF3CFE9FFF4CFEAFF000EE926C4
:104610000F0EEA22170EE926000EEA22EE52EF866E
:10462000FD0EDB900201F9511C0DF3CFE9FFF4CF31
:10463000EAFF000EE9260F0EEA22170EE926000E09
:10464000EA22EF9AF9511C0DF3CFE9FFF4CFEAFF0C
:10465000000EE9260F0EEA22170EE926000EEA22C6
:10466000EF9CF9511C0DF3CFE9FFF4CFEAFF000EE8
:10467000E9260F0EEA22170EE926000EEA22EF9E27
:10468000F9511C0DF3CFE9FFF4CFEAFF000EE92644
:104690000F0EEA22170EE926000EEA22EE52EF92E2
:1046A000F9511C0DF3CFE9FFF4CFEAFF000EE92624
:1046B0000F0EEA22170EE926000EEA22EE52EF94C0
:1046C000F9511C0DF3CFE9FFF4CFEAFF000EE92604
:1046D0000F0EEA22170EE926000EEA22EE52EF90A4
:1046E00048ECABF0000901E1FBD7FD0EDB50060BF7
:1046F00005E0260EDB6A270EDB6AE6D30201F951DC
:104700001C0DF3CFE9FFF4CFEAFF000EE9260F0EF0
:10471000EA22060EE926000EEA22EECF14F0EFCFD1
:1047200015F002018E51141802E18F5115181EE187
:10473000260EDB6A270EDB6A0201F9511C0DF3CF4E
:10474000E9FFF4CFEAFF000EE9260F0EEA22170E6A
:10475000E926000EEA22EE52EF50080B06E00201B5
:104760009451951102E0FD0EDB80AED30201F951A8
:104770001C0DF3CFE9FFF4CFEAFF000EE9260F0E80
:10478000EA22060EE926000EEA22EECF14F0EFCF61
:1047900015F0020114508E5D15508F5901E34CD174
:1047A0000201F9511C0DF3CFE9FFF4CFEAFF000E2F
:1047B000E9260F0EEA22060EE926000EEA22020181
:1047C0008E51EE5C146E8F51EE58156E260E14C08D
:1047D000DBFF270E15C0DBFF280E94C2DBFF290E7E
:1047E00095C2DBFF0201F9511C0DF3CFE9FFF4CFB5
:1047F000EAFF000EE9260F0EEA22080EE926000E57
:10480000EA22EECF14F0EFCF15F0020114508E5DC6
:1048100015508F5921E30201F9511C0DF3CFE9FF27
:10482000F4CFEAFF000EE9260F0EEA22080EE92671
:10483000000EEA220201EE508E5D146EEE508F598A
:10484000156ED950280FE96E000EDA20EA6E14506A
:10485000EE5E1550ED5A48D00201F9511C0DF3CF10
:10486000E9FFF4CFEAFF000EE9260F0EEA22020E5E
:10487000E926000EEA22EECF18F0EFCF19F0F95139
:104880001C0DF3CFE9FFF4CFEAFF000EE9260F0E6F
:10489000EA22EE50185C166EEE501958176EF95158
:1048A0001C0DF3CFE9FFF4CFEAFF000EE9260F0E4F
:1048B000EA22080EE926000EEA2202018E51EE5C81
:1048C0001A6E8F51EE581B6E1A50165C146E1B50E8
:1048D0001758156ED950280FE96E000EDA20EA6ECF
:1048E0001450EE5E1550ED5A260EDBCF14F0270E55
:1048F000DBCF15F0280EDBCF16F0290EDBCF17F03B
:104900001450165C155017580CE2280EDBCF08F037
:10491000290EDBCF09F0260E08C0DBFF270E09C0E9
:10492000DBFFD950260FE96E000EDA20EA6E180E72
:10493000D880EE54020EED541BE2180EF36E260ED4
:10494000F3CFDBFF020EF36E270EF3CFDBFF020186
:10495000F9511C0DF3CFE9FFF4CFEAFF000EE92671
:104960000F0EEA22170EE926000EEA22EE52EF841D
:104970000201F9511C0DF3CFE9FFF4CFEAFF000E5D
:10498000E9260F0EEA22170EE926000EEA22EE5261
:10499000EF50080B1CE0260EDBCF14F0270EDBCF08
:1049A00015F0280EDB50141803E1290EDB50151802
:1049B0000EE0D950260FE96E000EDA20EA6E180ECE
:1049C000EE1802E1020EED1802E0FD0EDB80260E6D
:1049D000DBCFE6FF270EDBCFE6FFF9511C0DF3CF4F
:1049E000E9FFF4CFEAFF000EE9260F0EEA221B0EC4
:1049F000E926000EEA22EF50E66E8EC2E6FF8FC275
:104A0000E6FFE66A290EE66E0F0EE66E92EC45F0C2
:104A1000146E080EE15C02E2E16AE552E16E1450A8
:104A2000260EDBCF08F0270EDBCF09F0085002017D
:104A30008E2709508F2348D20201F9511C0DF3CF64
:104A4000E9FFF4CFEAFF000EE9260F0EEA22020E7C
:104A5000E926000EEA2202018E51EE5C146E8F519F
:104A6000EE58156E240E14C0DBFF250E15C0DBFFBB
:104A7000240EDBCF18F0250EDBCF19F00201F9511F
:104A80001C0DF3CFE9FFF4CFEAFF000EE9260F0E6D
:104A9000EA22060EE926000EEA221850EE24166ECF
:104AA0001950EE20176EF9511C0DF3CFE9FFF4CF2A
:104AB000EAFF000EE9260F0EEA22EE50165C146E95
:104AC000EE501758156E260E14C0DBFF270E15C0CA
:104AD000DBFF280E94C2DBFF290E95C2DBFFF951E4
:104AE0001C0DF3CFE9FFF4CFEAFF000EE9260F0E0D
:104AF000EA22080EE926000EEA22EECF14F0EFCFEC
:104B000015F0020114508E5D15508F5921E30201FA
:104B1000F9511C0DF3CFE9FFF4CFEAFF000EE926AF
:104B20000F0EEA22080EE926000EEA220201EE50DC
:104B30008E5D146EEE508F59156ED950280FE96EA8
:104B4000000EDA20EA6E1450EE5E1550ED5A48D091
:104B50000201F9511C0DF3CFE9FFF4CFEAFF000E7B
:104B6000E9260F0EEA22020EE926000EEA22EECF17
:104B700018F0EFCF19F0F9511C0DF3CFE9FFF4CF86
:104B8000EAFF000EE9260F0EEA22EE50185C166EC0
:104B9000EE501958176EF9511C0DF3CFE9FFF4CF01
:104BA000EAFF000EE9260F0EEA22080EE926000EA3
:104BB000EA2202018E51EE5C1A6E8F51EE581B6E86
:104BC0001A50165C146E1B501758156ED950280FCA
:104BD000E96E000EDA20EA6E1450EE5E1550ED5AC2
:104BE000260EDBCF14F0270EDBCF15F0280EDBCF1F
:104BF00016F0290EDBCF17F01450165C155017581D
:104C00000CE2280EDBCF08F0290EDBCF09F0260ED0
:104C100008C0DBFF270E09C0DBFFD950260FE96E65
:104C2000000EDA20EA6E180ED880EE54020EED5413
:104C30001BE2180EF36E260EF3CFDBFF020EF36EAF
:104C4000270EF3CFDBFF0201F9511C0DF3CFE9FF73
:104C5000F4CFEAFF000EE9260F0EEA22170EE9262E
:104C6000000EEA22EE52EF840201F9511C0DF3CF3F
:104C7000E9FFF4CFEAFF000EE9260F0EEA22170E35
:104C8000E926000EEA22EE52EF50080B1CE0260E39
:104C9000DBCF14F0270EDBCF15F0280EDB501418F5
:104CA00003E1290EDB5015180EE0D950260FE96EEE
:104CB000000EDA20EA6E180EEE1802E1020EED1870
:104CC00002E0FD0EDB80240EDBCF14F0250EDBCFDF
:104CD00015F0260EDBCF16F0270EDBCF17F01450A1
:104CE000165C155017580CE2260EDBCF08F0270E85
:104CF000DBCF09F0240E08C0DBFF250E09C0DBFF67
:104D0000240EDBCFE6FF250EDBCFE6FFF9511C0DAD
:104D1000F3CFE9FFF4CFEAFF000EE9260F0EEA22F7
:104D20001B0EE926000EEA22EF50E66E8EC2E6FF69
:104D30008FC2E6FFE66A290EE66E0F0EE66E92EC73
:104D400045F0146E080EE15C02E2E16AE552E16EA4
:104D50001450260EDBCF16F0270EDBCF17F0240EF3
:104D6000DB50165C146E250EDB501758156E240EA2
:104D700014C0DBFF250E15C0DBFFD950240FE96EF0
:104D8000000EDA20EA6EEE50ED1052E0240EDBCF7A
:104D9000E6FF250EDBCFE6FF0201F9511C0DF3CF34
:104DA000E9FFF4CFEAFF000EE9260F0EEA221B0E00
:104DB000E926000EEA22EF50E66EF9511C0DF3CF02
:104DC000E9FFF4CFEAFF000EE9260F0EEA22EECF4C
:104DD000E6FFEFCFE6FFE66AF9511C0DF3CFE9FFDE
:104DE000F4CFEAFF000EE9260F0EEA22020EE926B2
:104DF000000EEA2202018E51EE5C146E8F51EE58C5
:104E0000156E166A176A290E14260F0E1522000E4B
:104E10001622172214C0E6FF15C0E6FF92EC45F0FB
:104E2000186E080EE15C02E2E16AE552E16E18508C
:104E3000260EDBCF08F0270EDBCF09F00850020169
:104E40008E2709508F230201F9511C0DF3CFE9FF82
:104E5000F4CFEAFF000EE9260F0EEA22020EE92641
:104E6000000EEA22EECF14F0EFCF15F0020114503D
:104E70008E5D15508F5928E30201F9511C0DF3CFB7
:104E8000E9FFF4CFEAFF000EE9260F0EEA22020E38
:104E9000E926000EEA22EECF16F0EFCF17F0F95117
:104EA0001C0DF3CFE9FFF4CFEAFF000EE9260F0E49
:104EB000EA22EE50165C146EEE501758156E145020
:104EC00002018E5F15508F5BD950260FE96E000EE0
:104ED000DA20EA6EEE50ED1004E1FD0EDB50030B1C
:104EE0004CE0D950260FE96E000EDA20EA6EEE5043
:104EF000ED1002E0FD0EDB86FC0EDBA008D0020107
:104F0000A56BF20E826F9E0E836F846B856B38ECFF
:104F1000DCF0065002018225146E07508321156EC5
:104F200008508421166E09508521176E0201F9512F
:104F30001C0DF3CFE9FFF4CFEAFF000EE9260F0EB8
:104F4000EA220E0EE926000EEA2214C0EEFF15C07A
:104F5000EEFF16C0EEFF17C0EEFFF9511C0DF3CFA8
:104F6000E9FFF4CFEAFF000EE9260F0EEA22170E42
:104F7000E926000EEA22EF8871D0FC0EDBA22AD0CF
:104F80000201F9511C0DF3CFE9FFF4CFEAFF000E47
:104F9000E9260F0EEA22170EE926000EEA22EF504C
:104FA000070BE82AF36EF350070BF36EF46EF80E5E
:104FB000EF14F310EF6EF45002018607000E875BCA
:104FC000885B895B010EF36E260EF3CFDBFF270EA5
:104FD000DB6A44D00201F9511C0DF3CFE9FFF4CF95
:104FE000EAFF000EE9260F0EEA22170EE926000E50
:104FF000EA22EF50100B32E0FC0EDBB009D00201C8
:10500000A55106E0A507D8908533843383338233D6
:1050100038ECDCF0065002018225146E0750832123
:10502000156E08508421166E09508521176E0201F5
:10503000F9511C0DF3CFE9FFF4CFEAFF000EE9268A
:105040000F0EEA220E0EE926000EEA2214C0EEFF31
:1050500015C0EEFF16C0EEFF17C0EEFF020E92C2A3
:10506000DBFF030E93C2DBFF040E90C2DBFF050ED5
:1050700091C2DBFF060E86C2DBFF070E87C2DBFF95
:10508000080E88C2DBFF090E89C2DBFF0A0E8AC246
:10509000DBFF0B0E8BC2DBFF0C0E8CC2DBFF0D0E99
:1050A0008DC2DBFF0F0EDB9CDB9E0E0EDB90DB92D6
:1050B000DB94DB96FD0EDB50E76E0F0EE7CFDBFFD8
:1050C000140EDB6A150EDB6A260EDBCF14F0270EFA
:1050D000DBCF15F0000114500201862700011550A6
:1050E00002018723000E88238923FD0EDBA21ED038
:1050F000DBB808D00A0EDB6A0B0EDB6A0C0EDB6A2B
:105100000D0EDB6AA4A30CD0D950060FE96E000E79
:10511000DA20EA6EEE06000EEE5AEE5AEE5A06D08D
:10512000862B000E872388238923A483FD0EDBA012
:1051300014D0A4A10CD0D950060FE96E000EDA20CD
:10514000EA6EEE06000EEE5AEE5AEE5A06D0862BA6
:10515000000E872388238923A4810201F9511C0DA5
:10516000F3CFE9FFF4CFEAFF000EE9260F0EEA22A3
:105170000A0EE926000EEA22EECF14F0EFCF15F06A
:10518000F9511C0DF3CFE9FFF4CFEAFF000EE92639
:105190000F0EEA220C0EE926000EEA22EECF16F0E0
:1051A000EFCF17F01650145C1750155859E3F9510A
:1051B0001C0DF3CFE9FFF4CFEAFF000EE9260F0E36
:1051C000EA22040EE926000EEA22EECF18F0EFCF15
:1051D00019F0F9511C0DF3CFE9FFF4CFEAFF000EEF
:1051E000E9260F0EEA22020EE926000EEA22EE5010
:1051F000185C166EEE501958176EF9511C0DF3CF4E
:10520000E9FFF4CFEAFF000EE9260F0EEA220A0EAC
:10521000E926000EEA22EECF1CF0EFCF1DF0F95187
:105220001C0DF3CFE9FFF4CFEAFF000EE9260F0EC5
:10523000EA220C0EE926000EEA22EE501C5C1A6EE1
:10524000EE501D581B6E1A50165C146E1B501758EA
:10525000156E100E14C0DBFF110E15C0DBFF2FD032
:10526000F9511C0DF3CFE9FFF4CFEAFF000EE92658
:105270000F0EEA220C0EE926000EEA22EECF16F0FF
:10528000EFCF17F0F9511C0DF3CFE9FFF4CFEAFF90
:10529000000EE9260F0EEA220A0EE926000EEA2287
:1052A000EE50165C146EEE501758156E1406000E74
:1052B000155A100E14C0DBFF110E15C0DBFFB2EC47
:1052C000ABF0F3CF14F0F4CF15F0400E145E000EE7
:1052D000155A14C0DEFF15C0DDFFDECF14F0DDCFA0
:1052E00015F00001800E151402E0DE6ADD6A100E72
:1052F000DBCF14F0110EDBCF15F0DECF16F0DDCFD3
:1053000017F01450165C155017580AE2D9CFE9FF70
:10531000DACFEAFF100EEECFDBFF110EEDCFDBFF91
:10532000D950020FE66E000EDA20E66E33EC2EF056
:10533000E552E552D950260FE96E000EDA20EA6EEA
:10534000140EEE26000EED220E0EDB88DB9ADB8CAF
:10535000DB9EFD0EDBA239D0D950260FE96E000E80
:10536000DA20EA6E040EEE26000EED22020EF36E37
:10537000160EF3CFDBFF040EF36E170EF3CFDBFF39
:10538000020EF36E180EF3CFDBFF140EF36E190E40
:10539000F3CFDBFF010E146ED9500E0FE96E000E35
:1053A000DA20EA6EEF50F00BE842E842E842E842C9
:1053B00014240F0BF36EF46EF346F346F346F346F4
:1053C0000F0EEF14F310EF6EF4501A0E6BC1DBFFEB
:1053D0001B0E6CC1DBFF1C0E6DC1DBFF1D0E6EC111
:1053E000DBFF1E0E98C2DBFF1F0E99C2DBFF200EF3
:1053F0009AC2DBFF210E9BC2DBFF220EDB6A060E88
:10540000F36E230EF3CFDBFF260EDBCF08F0270E63
:10541000DBCF09F0240E08C0DBFF250E09C0DBFF3F
:10542000240EDBCFE6FF250EDBCFE6FFA5ECA0F0D8
:10543000E552E552240EF3CFDBFF250EF4CFDBFF60
:105440000C0EE66EE66AD9501A0FE66E000EDA20F0
:10545000E66E2CECA1F0E552E552E552E552F3CFB1
:1054600014F0F4CF15F0141E151E120E14C0DBFF3D
:10547000130E15C0DBFF010EE66E0F0EE66EB9ECE3
:10548000ADF0E552E552260EDBCFE6FF270EDBCF6F
:10549000E6FF060EE66E980EE66E020EE66E91ECE4
:1054A000CFF0146E050EE15C02E2E16AE552E16EB6
:1054B0001450140EE66EE66AD950020FE66E000E26
:1054C000DA20E66E2FECB1F0E552E552E552E552F6
:1054D000FD0EDBA20FD0040EE66EE66AD950160F61
:1054E000E66E000EDA20E66E2FECB1F0E552E552E2
:1054F000E552E552150EE66E0F0EE66EDEECADF0EF
:10550000E552E552260EDBCFE6FF270EDBCFE6FFA6
:105510006CECAEF0E552E552F3CFDEFFF4CFDDFFE9
:10552000250EE66E0F0EE66EB9ECADF0E552E552D3
:10553000020EE66EE66AD9CFE6FFDACFE6FF2FEC81
:10554000B1F0E552E552E552E55256ECADF02A0EC7
:10555000E15C02E2E16AE552E16EE552E5CFDAFF95
:10556000E7CFD9FF1200D9CFE6FFDACFE6FFE1CFD0
:10557000D9FFE2CFDAFF060EE12402E3E168E6524A
:10558000E16EFC0EDBCFE9FFFD0EDBCFEAFF020E82
:10559000E926000EEA22EE50ED1002E1000E55D38E
:1055A000DE52FE0EDD6EFA0EDBCFE9FFFB0EDBCF27
:1055B000EAFF020EE926000EEA22EECF1AF0EFCF44
:1055C0001BF0FA0EDBCFE9FFFB0EDBCFEAFF1A5030
:1055D000EE24186E1B50EE20196EFC0EDBCFE9FF97
:1055E000FD0EDBCFEAFF1850EE24166E1950EE20A8
:1055F000176EFC0EDBCFE9FFFD0EDBCFEAFF020EDC
:10560000E926000EEA221650EE18146E1750EE1816
:10561000156E020E14C0DBFF030E15C0DBFFDF6A40
:10562000DF50146E156A030E145C000E155801E36A
:10563000ACD0DFCFF9F20201F9511C0DF3CFE9FF35
:10564000F4CFEAFF000EE9260F0EEA22160EE92635
:10565000000EEA22EF500D0802E195D058D0F95122
:105660001C0DF3CFE9FFF4CFEAFF000EE9260F0E81
:10567000EA22160EE926000EEA22EF5004082CE179
:10568000F9511C0DF3CFE9FFF4CFEAFF000EE92634
:105690000F0EEA22190EE926000EEA22EECF14F0D0
:1056A000EFCF15F0FC0EDBCFE9FFFD0EDBCFEAFFFD
:1056B000020EE926000EEA22EECF16F0EFCF17F029
:1056C00016500001141802E11750151803E1010EDD
:1056D000DFCFDBFF58D01BD0F9511C0DF3CFE9FF12
:1056E000F4CFEAFF000EE9260F0EEA22190EE92692
:1056F000000EEA22EECF14F0EFCF15F0020EDB50D1
:10570000141803E1030EDB50151801E03CD064ECE3
:1057100000F0FC0EDBCFE9FFFD0EDBCFEAFF020E4F
:10572000E926000EEA22EECF14F0EFCF15F00201C9
:105730009251141802E19351151825E1FC0EDBCFAC
:10574000E9FFFD0EDBCFEAFFEECF16F0EFCF17F04B
:105750009051161802E19151171815E1FA0EDBCF9E
:10576000E9FFFB0EDBCFEAFFEE50981909E1EE509E
:10577000991906E1EE509A1903E1EE509B1900E1E8
:1057800002E1010E62D2DF2A4BD7010EDB50FE0888
:105790005EE0010EDBCFF9F264EC00F0010EDB50AD
:1057A000FE0855E00201F9511C0DF3CFE9FFF4CFDB
:1057B000EAFF000EE9260F0EEA22190EE926000E76
:1057C000EA22020EDBCFEEFF030EDBCFEDFF0A0E67
:1057D000E66EE66AFA0EDBCFE6FFFB0EDBCFE6FFF6
:1057E000980EE66E020EE66E1FECD9F0146E060EF1
:1057F000E15C02E2E16AE552E16E1450FC0EDBCF9F
:10580000E9FFFD0EDBCFEAFFEECF90F2EDCF91F294
:10581000FC0EDBCFE9FFFD0EDBCFEAFF020EE9262F
:10582000000EEA22EECF92F2EDCF93F20201F9518F
:105830001C0DF3CFE9FFF4CFEAFF000EE9260F0EAF
:10584000EA22EECF8EF2EDCF8FF2010EFED1FC0EEA
:10585000DBCFE9FFFD0EDBCFEAFF0D0EE926000EE0
:10586000EA22EF50020B02E1000EEFD102017C515F
:105870007D1102E0000EE9D1040EDB6A050EDB6A41
:10588000040EDBCF14F0050EDBCF15F0030E145C15
:10589000000E155801E3CFD0040EDBCFE9FF050E53
:1058A000DBCFEAFF140EEA02F3CFEAFFE902F3CFFF
:1058B000E9FFF450EA26440EE926020EEA22100E11
:1058C000E926000EEA22EE50ED1001E1B4D0040EFC
:1058D000DBCFE9FF050EDBCFEAFF140EEA02F3CFC0
:1058E000EAFFE902F3CFE9FFF450EA26440EE92685
:1058F000020EEA22100EE926000EEA22EECF14F084
:10590000EFCF15F0FC0EDBCFE9FFFD0EDBCFEAFF9A
:10591000020EE926000EEA22EECF16F0EFCF17F0C6
:105920001650141802E11750151801E07ED0040E2D
:10593000DBCFE9FF050EDBCFEAFF140EEA02F3CF5F
:10594000EAFFE902F3CFE9FFF450EA26440EE92624
:10595000020EEA220A0EE926000EEA22EECF14F029
:10596000EFCF15F0FC0EDBCFE9FFFD0EDBCFEAFF3A
:10597000EECF16F0EFCF17F01650141802E11750C3
:10598000151801E052D0FA0EDBCFE9FFFB0EDBCF9A
:10599000EAFFEECF14F0EECF15F0EECF16F0EFCF1A
:1059A00017F0040EDBCFE9FF050EDBCFEAFF140E84
:1059B000EA02F3CFEAFFE902F3CFE9FFF450EA2667
:1059C000440EE926020EEA22EE500001141809E105
:1059D000EE50151806E1EE50161803E1EE501718B8
:1059E00000E101E022D043ECDCF006C014F007C077
:1059F00015F0040EDBCFE9FF050EDBCFEAFF140E36
:105A0000EA02F3CFEAFFE902F3CFE9FFF450EA2616
:105A1000440EE926020EEA22120EE926000EEA22C0
:105A200014C0EEFF15C0EDFF10D1040EDB2A050EE9
:105A300001E3DB2A25D7DF6ADF50146E156A030EF7
:105A4000145C000E155801E3FED0DFCFF9F202011D
:105A5000F9511C0DF3CFE9FFF4CFEAFF000EE92660
:105A60000F0EEA22170EE926000EEA22EF50080B6D
:105A700001E1E7D064EC00F0FC0EDBCFE9FFFD0EA6
:105A8000DBCFEAFF020EE926000EEA22EECF14F089
:105A9000EFCF15F014500201921902E1155093193D
:105AA00001E0CFD00A0EE66EE66AFA0EDBCFE6FF23
:105AB000FB0EDBCFE6FF040EDBCFE9FF050EDBCFED
